{
  "contractName": "FestakingFarm",
  "abi": [
    {
      "inputs": [
        {
          "internalType": "string",
          "name": "name_",
          "type": "string"
        },
        {
          "internalType": "address",
          "name": "tokenAddress_",
          "type": "address"
        },
        {
          "internalType": "address",
          "name": "rewardTokenAddress_",
          "type": "address"
        },
        {
          "internalType": "uint256",
          "name": "stakingStarts_",
          "type": "uint256"
        },
        {
          "internalType": "uint256",
          "name": "stakingEnds_",
          "type": "uint256"
        },
        {
          "internalType": "uint256",
          "name": "withdrawStarts_",
          "type": "uint256"
        },
        {
          "internalType": "uint256",
          "name": "withdrawEnds_",
          "type": "uint256"
        },
        {
          "internalType": "uint256",
          "name": "stakingCap_",
          "type": "uint256"
        }
      ],
      "stateMutability": "nonpayable",
      "type": "constructor"
    },
    {
      "anonymous": false,
      "inputs": [
        {
          "indexed": true,
          "internalType": "address",
          "name": "token",
          "type": "address"
        },
        {
          "indexed": true,
          "internalType": "address",
          "name": "rewardToken",
          "type": "address"
        },
        {
          "indexed": true,
          "internalType": "address",
          "name": "staker_",
          "type": "address"
        },
        {
          "indexed": false,
          "internalType": "uint256",
          "name": "amount_",
          "type": "uint256"
        },
        {
          "indexed": false,
          "internalType": "uint256",
          "name": "reward_",
          "type": "uint256"
        }
      ],
      "name": "PaidOut",
      "type": "event"
    },
    {
      "anonymous": false,
      "inputs": [
        {
          "indexed": true,
          "internalType": "address",
          "name": "token",
          "type": "address"
        },
        {
          "indexed": true,
          "internalType": "address",
          "name": "staker_",
          "type": "address"
        },
        {
          "indexed": false,
          "internalType": "uint256",
          "name": "requestedAmount_",
          "type": "uint256"
        },
        {
          "indexed": false,
          "internalType": "uint256",
          "name": "stakedAmount_",
          "type": "uint256"
        }
      ],
      "name": "Staked",
      "type": "event"
    },
    {
      "inputs": [],
      "name": "ERC20Interface",
      "outputs": [
        {
          "internalType": "contract IERC20",
          "name": "",
          "type": "address"
        }
      ],
      "stateMutability": "view",
      "type": "function",
      "constant": true
    },
    {
      "inputs": [],
      "name": "earlyWithdrawReward",
      "outputs": [
        {
          "internalType": "uint256",
          "name": "",
          "type": "uint256"
        }
      ],
      "stateMutability": "view",
      "type": "function",
      "constant": true
    },
    {
      "inputs": [],
      "name": "name",
      "outputs": [
        {
          "internalType": "string",
          "name": "",
          "type": "string"
        }
      ],
      "stateMutability": "view",
      "type": "function",
      "constant": true
    },
    {
      "inputs": [],
      "name": "rewardBalance",
      "outputs": [
        {
          "internalType": "uint256",
          "name": "",
          "type": "uint256"
        }
      ],
      "stateMutability": "view",
      "type": "function",
      "constant": true
    },
    {
      "inputs": [],
      "name": "rewardTokenAddress",
      "outputs": [
        {
          "internalType": "address",
          "name": "",
          "type": "address"
        }
      ],
      "stateMutability": "view",
      "type": "function",
      "constant": true
    },
    {
      "inputs": [],
      "name": "stakedBalance",
      "outputs": [
        {
          "internalType": "uint256",
          "name": "",
          "type": "uint256"
        }
      ],
      "stateMutability": "view",
      "type": "function",
      "constant": true
    },
    {
      "inputs": [],
      "name": "stakedTotal",
      "outputs": [
        {
          "internalType": "uint256",
          "name": "",
          "type": "uint256"
        }
      ],
      "stateMutability": "view",
      "type": "function",
      "constant": true
    },
    {
      "inputs": [],
      "name": "stakingCap",
      "outputs": [
        {
          "internalType": "uint256",
          "name": "",
          "type": "uint256"
        }
      ],
      "stateMutability": "view",
      "type": "function",
      "constant": true
    },
    {
      "inputs": [],
      "name": "stakingEnds",
      "outputs": [
        {
          "internalType": "uint256",
          "name": "",
          "type": "uint256"
        }
      ],
      "stateMutability": "view",
      "type": "function",
      "constant": true
    },
    {
      "inputs": [],
      "name": "stakingStarts",
      "outputs": [
        {
          "internalType": "uint256",
          "name": "",
          "type": "uint256"
        }
      ],
      "stateMutability": "view",
      "type": "function",
      "constant": true
    },
    {
      "inputs": [],
      "name": "tokenAddress",
      "outputs": [
        {
          "internalType": "address",
          "name": "",
          "type": "address"
        }
      ],
      "stateMutability": "view",
      "type": "function",
      "constant": true
    },
    {
      "inputs": [],
      "name": "rewardsTotal",
      "outputs": [
        {
          "internalType": "uint256",
          "name": "",
          "type": "uint256"
        }
      ],
      "stateMutability": "view",
      "type": "function",
      "constant": true
    },
    {
      "inputs": [],
      "name": "totalReward",
      "outputs": [
        {
          "internalType": "uint256",
          "name": "",
          "type": "uint256"
        }
      ],
      "stateMutability": "view",
      "type": "function",
      "constant": true
    },
    {
      "inputs": [],
      "name": "withdrawEnds",
      "outputs": [
        {
          "internalType": "uint256",
          "name": "",
          "type": "uint256"
        }
      ],
      "stateMutability": "view",
      "type": "function",
      "constant": true
    },
    {
      "inputs": [],
      "name": "withdrawStarts",
      "outputs": [
        {
          "internalType": "uint256",
          "name": "",
          "type": "uint256"
        }
      ],
      "stateMutability": "view",
      "type": "function",
      "constant": true
    },
    {
      "inputs": [
        {
          "internalType": "uint256",
          "name": "rewardAmount",
          "type": "uint256"
        },
        {
          "internalType": "uint256",
          "name": "withdrawableAmount",
          "type": "uint256"
        }
      ],
      "name": "addReward",
      "outputs": [
        {
          "internalType": "bool",
          "name": "",
          "type": "bool"
        }
      ],
      "stateMutability": "nonpayable",
      "type": "function"
    },
    {
      "inputs": [
        {
          "internalType": "address",
          "name": "account",
          "type": "address"
        }
      ],
      "name": "stakeOf",
      "outputs": [
        {
          "internalType": "uint256",
          "name": "",
          "type": "uint256"
        }
      ],
      "stateMutability": "view",
      "type": "function",
      "constant": true
    },
    {
      "inputs": [
        {
          "internalType": "uint256",
          "name": "amount",
          "type": "uint256"
        }
      ],
      "name": "stake",
      "outputs": [
        {
          "internalType": "bool",
          "name": "",
          "type": "bool"
        }
      ],
      "stateMutability": "nonpayable",
      "type": "function"
    },
    {
      "inputs": [
        {
          "internalType": "uint256",
          "name": "amount",
          "type": "uint256"
        }
      ],
      "name": "withdraw",
      "outputs": [
        {
          "internalType": "bool",
          "name": "",
          "type": "bool"
        }
      ],
      "stateMutability": "nonpayable",
      "type": "function"
    }
  ],
  "bytecode": "0x60806040523480156200001157600080fd5b50604051620028863803806200288683398181016040526101008110156200003857600080fd5b81019080805160405193929190846401000000008211156200005957600080fd5b838201915060208201858111156200007057600080fd5b82518660018202830111640100000000821117156200008e57600080fd5b8083526020830192505050908051906020019080838360005b83811015620000c4578082015181840152602081019050620000a7565b50505050905090810190601f168015620000f25780820380516001836020036101000a031916815260200191505b506040526020018051906020019092919080519060200190929190805190602001909291908051906020019092919080519060200190929190805190602001909291908051906020019092919050505087600190805190602001906200015a92919062000538565b50600073ffffffffffffffffffffffffffffffffffffffff168773ffffffffffffffffffffffffffffffffffffffff161415620001ff576040517f08c379a00000000000000000000000000000000000000000000000000000000081526004018080602001828103825260148152602001807f46657374616b696e673a2030206164647265737300000000000000000000000081525060200191505060405180910390fd5b86600260006101000a81548173ffffffffffffffffffffffffffffffffffffffff021916908373ffffffffffffffffffffffffffffffffffffffff160217905550600073ffffffffffffffffffffffffffffffffffffffff168673ffffffffffffffffffffffffffffffffffffffff161415620002e4576040517f08c379a000000000000000000000000000000000000000000000000000000000815260040180806020018281038252601b8152602001807f46657374616b696e673a2030207265776172642061646472657373000000000081525060200191505060405180910390fd5b85600360006101000a81548173ffffffffffffffffffffffffffffffffffffffff021916908373ffffffffffffffffffffffffffffffffffffffff1602179055506000851162000380576040517f08c379a0000000000000000000000000000000000000000000000000000000008152600401808060200182810382526022815260200180620028646022913960400191505060405180910390fd5b428510156200039657426004819055506200039e565b846004819055505b6004548411620003fa576040517f08c379a0000000000000000000000000000000000000000000000000000000008152600401808060200182810382526033815260200180620027a26033913960400191505060405180910390fd5b836005819055506005548310156200045e576040517f08c379a0000000000000000000000000000000000000000000000000000000008152600401808060200182810382526034815260200180620028306034913960400191505060405180910390fd5b826006819055506006548211620004c1576040517f08c379a0000000000000000000000000000000000000000000000000000000008152600401808060200182810382526035815260200180620027d56035913960400191505060405180910390fd5b816007819055506000811162000523576040517f08c379a00000000000000000000000000000000000000000000000000000000081526004018080602001828103825260268152602001806200280a6026913960400191505060405180910390fd5b806009819055505050505050505050620005e7565b828054600181600116156101000203166002900490600052602060002090601f016020900481019282601f106200057b57805160ff1916838001178555620005ac565b82800160010185558215620005ac579182015b82811115620005ab5782518255916020019190600101906200058e565b5b509050620005bb9190620005bf565b5090565b620005e491905b80821115620005e0576000816000905550600101620005c6565b5090565b90565b6121ab80620005f76000396000f3fe608060405234801561001057600080fd5b50600436106101165760003560e01c80636d68c7d4116100a2578063a694fc3a11610071578063a694fc3a1461041e578063aa5c3ab414610464578063b410e2a114610482578063d66692a7146104a0578063eacebf61146104be57610116565b80636d68c7d414610348578063750142e61461036657806375c93bb9146103845780639d76ea58146103d457610116565b80632e1a7d4d116100e95780632e1a7d4d146102505780633f7fd60a1461029657806342623360146102b457806344c370d31461030c5780635b9f00161461032a57610116565b806306fdde031461011b578063125f9e331461019e5780631bbc4b83146101e857806321b13cdf14610232575b600080fd5b6101236104dc565b6040518080602001828103825283818151815260200191508051906020019080838360005b83811015610163578082015181840152602081019050610148565b50505050905090810190601f1680156101905780820380516001836020036101000a031916815260200191505b509250505060405180910390f35b6101a661057a565b604051808273ffffffffffffffffffffffffffffffffffffffff1673ffffffffffffffffffffffffffffffffffffffff16815260200191505060405180910390f35b6101f06105a0565b604051808273ffffffffffffffffffffffffffffffffffffffff1673ffffffffffffffffffffffffffffffffffffffff16815260200191505060405180910390f35b61023a6105c6565b6040518082815260200191505060405180910390f35b61027c6004803603602081101561026657600080fd5b81019080803590602001909291905050506105cc565b604051808215151515815260200191505060405180910390f35b61029e610831565b6040518082815260200191505060405180910390f35b6102f6600480360360208110156102ca57600080fd5b81019080803573ffffffffffffffffffffffffffffffffffffffff169060200190929190505050610837565b6040518082815260200191505060405180910390f35b61031461087f565b6040518082815260200191505060405180910390f35b610332610885565b6040518082815260200191505060405180910390f35b61035061088b565b6040518082815260200191505060405180910390f35b61036e610891565b6040518082815260200191505060405180910390f35b6103ba6004803603604081101561039a57600080fd5b810190808035906020019092919080359060200190929190505050610897565b604051808215151515815260200191505060405180910390f35b6103dc610a8c565b604051808273ffffffffffffffffffffffffffffffffffffffff1673ffffffffffffffffffffffffffffffffffffffff16815260200191505060405180910390f35b61044a6004803603602081101561043457600080fd5b8101908080359060200190929190505050610ab2565b604051808215151515815260200191505060405180910390f35b61046c610be9565b6040518082815260200191505060405180910390f35b61048a610bef565b6040518082815260200191505060405180910390f35b6104a8610bf5565b6040518082815260200191505060405180910390f35b6104c6610bfb565b6040518082815260200191505060405180910390f35b60018054600181600116156101000203166002900480601f0160208091040260200160405190810160405280929190818152602001828054600181600116156101000203166002900480156105725780601f1061054757610100808354040283529160200191610572565b820191906000526020600020905b81548152906001019060200180831161055557829003601f168201915b505050505081565b600360009054906101000a900473ffffffffffffffffffffffffffffffffffffffff1681565b600e60009054906101000a900473ffffffffffffffffffffffffffffffffffffffff1681565b60065481565b60006006548042101561062a576040517f08c379a000000000000000000000000000000000000000000000000000000000815260040180806020018281038252602581526020018061205d6025913960400191505060405180910390fd5b8260008110156106a2576040517f08c379a000000000000000000000000000000000000000000000000000000000815260040180806020018281038252601a8152602001807f46657374616b696e673a206e6567617469766520616d6f756e7400000000000081525060200191505060405180910390fd5b33600073ffffffffffffffffffffffffffffffffffffffff168173ffffffffffffffffffffffffffffffffffffffff161415610746576040517f08c379a00000000000000000000000000000000000000000000000000000000081526004018080602001828103825260178152602001807f46657374616b696e673a207a65726f206164647265737300000000000000000081525060200191505060405180910390fd5b60003390506000808273ffffffffffffffffffffffffffffffffffffffff1673ffffffffffffffffffffffffffffffffffffffff168152602001908152602001600020548611156107ff576040517f08c379a000000000000000000000000000000000000000000000000000000000815260040180806020018281038252601d8152602001807f46657374616b696e673a206e6f7420656e6f7567682062616c616e636500000081525060200191505060405180910390fd5b60075442101561081b576108138187610c01565b945050610829565b6108258187610fa5565b9450505b505050919050565b600b5481565b60008060008373ffffffffffffffffffffffffffffffffffffffff1673ffffffffffffffffffffffffffffffffffffffff168152602001908152602001600020549050919050565b60095481565b600d5481565b60045481565b600a5481565b60006006548042106108f4576040517f08c379a000000000000000000000000000000000000000000000000000000000815260040180806020018281038252602581526020018061205d6025913960400191505060405180910390fd5b6000841161094d576040517f08c379a00000000000000000000000000000000000000000000000000000000081526004018080602001828103825260228152602001806120f16022913960400191505060405180910390fd5b60008310156109a7576040517f08c379a000000000000000000000000000000000000000000000000000000000815260040180806020018281038252603181526020018061202c6031913960400191505060405180910390fd5b83831115610a00576040517f08c379a000000000000000000000000000000000000000000000000000000000815260040180806020018281038252604e8152602001806120a3604e913960600191505060405180910390fd5b6000339050610a328186600360009054906101000a900473ffffffffffffffffffffffffffffffffffffffff166112bf565b610a40576000925050610a85565b610a5585600a546112d690919063ffffffff16565b600a81905550600a54600c81905550610a7984600b546112d690919063ffffffff16565b600b8190555060019250505b5092915050565b600260009054906101000a900473ffffffffffffffffffffffffffffffffffffffff1681565b6000816000811015610b2c576040517f08c379a000000000000000000000000000000000000000000000000000000000815260040180806020018281038252601a8152602001807f46657374616b696e673a206e6567617469766520616d6f756e7400000000000081525060200191505060405180910390fd5b33600073ffffffffffffffffffffffffffffffffffffffff168173ffffffffffffffffffffffffffffffffffffffff161415610bd0576040517f08c379a00000000000000000000000000000000000000000000000000000000081526004018080602001828103825260178152602001807f46657374616b696e673a207a65726f206164647265737300000000000000000081525060200191505060405180910390fd5b6000339050610bdf818661135e565b9350505050919050565b600c5481565b60055481565b60085481565b60075481565b600082600073ffffffffffffffffffffffffffffffffffffffff168173ffffffffffffffffffffffffffffffffffffffff161415610ca7576040517f08c379a00000000000000000000000000000000000000000000000000000000081526004018080602001828103825260178152602001807f46657374616b696e673a207a65726f206164647265737300000000000000000081525060200191505060405180910390fd5b6000610cd4600854610cc660055460075461174390919063ffffffff16565b61178d90919063ffffffff16565b90506000610d2582610d1787610d09600b54610cfb6005544261174390919063ffffffff16565b61178d90919063ffffffff16565b61178d90919063ffffffff16565b61181390919063ffffffff16565b9050610d3c81600c5461174390919063ffffffff16565b600c81905550610d5785600d5461174390919063ffffffff16565b600d81905550610dae856000808973ffffffffffffffffffffffffffffffffffffffff1673ffffffffffffffffffffffffffffffffffffffff1681526020019081526020016000205461174390919063ffffffff16565b6000808873ffffffffffffffffffffffffffffffffffffffff1673ffffffffffffffffffffffffffffffffffffffff168152602001908152602001600020819055506000610e1f8787600260009054906101000a900473ffffffffffffffffffffffffffffffffffffffff1661185d565b90506000610e508884600360009054906101000a900473ffffffffffffffffffffffffffffffffffffffff1661185d565b9050818015610e5c5750805b610ece576040517f08c379a00000000000000000000000000000000000000000000000000000000081526004018080602001828103825260178152602001807f46657374616b696e673a206572726f7220706179696e6700000000000000000081525060200191505060405180910390fd5b8773ffffffffffffffffffffffffffffffffffffffff16600360009054906101000a900473ffffffffffffffffffffffffffffffffffffffff1673ffffffffffffffffffffffffffffffffffffffff16600260009054906101000a900473ffffffffffffffffffffffffffffffffffffffff1673ffffffffffffffffffffffffffffffffffffffff167f0fd12da3890315fa38b862dc2fff7f24c95981f6508cc2be090640de791b671e8a87604051808381526020018281526020019250505060405180910390a460019550505050505092915050565b600082600073ffffffffffffffffffffffffffffffffffffffff168173ffffffffffffffffffffffffffffffffffffffff16141561104b576040517f08c379a00000000000000000000000000000000000000000000000000000000081526004018080602001828103825260178152602001807f46657374616b696e673a207a65726f206164647265737300000000000000000081525060200191505060405180910390fd5b6000611076600d5461106886600c5461178d90919063ffffffff16565b61181390919063ffffffff16565b90506110c9846000808873ffffffffffffffffffffffffffffffffffffffff1673ffffffffffffffffffffffffffffffffffffffff1681526020019081526020016000205461174390919063ffffffff16565b6000808773ffffffffffffffffffffffffffffffffffffffff1673ffffffffffffffffffffffffffffffffffffffff16815260200190815260200160002081905550600061113a8686600260009054906101000a900473ffffffffffffffffffffffffffffffffffffffff1661185d565b9050600061116b8784600360009054906101000a900473ffffffffffffffffffffffffffffffffffffffff1661185d565b90508180156111775750805b6111e9576040517f08c379a00000000000000000000000000000000000000000000000000000000081526004018080602001828103825260178152602001807f46657374616b696e673a206572726f7220706179696e6700000000000000000081525060200191505060405180910390fd5b8673ffffffffffffffffffffffffffffffffffffffff16600360009054906101000a900473ffffffffffffffffffffffffffffffffffffffff1673ffffffffffffffffffffffffffffffffffffffff16600260009054906101000a900473ffffffffffffffffffffffffffffffffffffffff1673ffffffffffffffffffffffffffffffffffffffff167f0fd12da3890315fa38b862dc2fff7f24c95981f6508cc2be090640de791b671e8987604051808381526020018281526020019250505060405180910390a4600194505050505092915050565b60006112cd8430858561190a565b90509392505050565b600080828401905083811015611354576040517f08c379a000000000000000000000000000000000000000000000000000000000815260040180806020018281038252601b8152602001807f536166654d6174683a206164646974696f6e206f766572666c6f77000000000081525060200191505060405180910390fd5b8091505092915050565b6000600454804210156113bc576040517f08c379a000000000000000000000000000000000000000000000000000000000815260040180806020018281038252602581526020018061205d6025913960400191505060405180910390fd5b600554804210611417576040517f08c379a000000000000000000000000000000000000000000000000000000000815260040180806020018281038252602581526020018061205d6025913960400191505060405180910390fd5b83600081101561148f576040517f08c379a000000000000000000000000000000000000000000000000000000000815260040180806020018281038252601a8152602001807f46657374616b696e673a206e6567617469766520616d6f756e7400000000000081525060200191505060405180910390fd5b60008590506114ab600d5460095461174390919063ffffffff16565b8111156114cc576114c9600d5460095461174390919063ffffffff16565b90505b60008111611542576040517f08c379a00000000000000000000000000000000000000000000000000000000081526004018080602001828103825260208152602001807f46657374616b696e673a205374616b696e67206361702069732066696c6c656481525060200191505060405180910390fd5b600954600854820111156115a1576040517f08c379a000000000000000000000000000000000000000000000000000000000815260040180806020018281038252603981526020018061213d6039913960400191505060405180910390fd5b6115ce8782600260009054906101000a900473ffffffffffffffffffffffffffffffffffffffff166112bf565b6115dc57600094505061173a565b8673ffffffffffffffffffffffffffffffffffffffff16600260009054906101000a900473ffffffffffffffffffffffffffffffffffffffff1673ffffffffffffffffffffffffffffffffffffffff167f6c86f3fd5118b3aa8bb4f389a617046de0a3d3d477de1a1673d227f802f616dc8884604051808381526020018281526020019250505060405180910390a361168081600d546112d690919063ffffffff16565b600d8190555061169b816008546112d690919063ffffffff16565b6008819055506116f2816000808a73ffffffffffffffffffffffffffffffffffffffff1673ffffffffffffffffffffffffffffffffffffffff168152602001908152602001600020546112d690919063ffffffff16565b6000808973ffffffffffffffffffffffffffffffffffffffff1673ffffffffffffffffffffffffffffffffffffffff1681526020019081526020016000208190555060019450505b50505092915050565b600061178583836040518060400160405280601e81526020017f536166654d6174683a207375627472616374696f6e206f766572666c6f7700008152506119a8565b905092915050565b6000808314156117a0576000905061180d565b60008284029050828482816117b157fe5b0414611808576040517f08c379a00000000000000000000000000000000000000000000000000000000081526004018080602001828103825260218152602001806120826021913960400191505060405180910390fd5b809150505b92915050565b600061185583836040518060400160405280601a81526020017f536166654d6174683a206469766973696f6e206279207a65726f000000000000815250611a68565b905092915050565b6000808314156118705760019050611903565b81600e60006101000a81548173ffffffffffffffffffffffffffffffffffffffff021916908373ffffffffffffffffffffffffffffffffffffffff1602179055506118fe8484600e60009054906101000a900473ffffffffffffffffffffffffffffffffffffffff1673ffffffffffffffffffffffffffffffffffffffff16611b2e9092919063ffffffff16565b600190505b9392505050565b600081600e60006101000a81548173ffffffffffffffffffffffffffffffffffffffff021916908373ffffffffffffffffffffffffffffffffffffffff16021790555061199c858585600e60009054906101000a900473ffffffffffffffffffffffffffffffffffffffff1673ffffffffffffffffffffffffffffffffffffffff16611be6909392919063ffffffff16565b60019050949350505050565b6000838311158290611a55576040517f08c379a00000000000000000000000000000000000000000000000000000000081526004018080602001828103825283818151815260200191508051906020019080838360005b83811015611a1a5780820151818401526020810190506119ff565b50505050905090810190601f168015611a475780820380516001836020036101000a031916815260200191505b509250505060405180910390fd5b5060008385039050809150509392505050565b60008083118290611b14576040517f08c379a00000000000000000000000000000000000000000000000000000000081526004018080602001828103825283818151815260200191508051906020019080838360005b83811015611ad9578082015181840152602081019050611abe565b50505050905090810190601f168015611b065780820380516001836020036101000a031916815260200191505b509250505060405180910390fd5b506000838581611b2057fe5b049050809150509392505050565b611be18363a9059cbb60e01b8484604051602401808373ffffffffffffffffffffffffffffffffffffffff1673ffffffffffffffffffffffffffffffffffffffff16815260200182815260200192505050604051602081830303815290604052907bffffffffffffffffffffffffffffffffffffffffffffffffffffffff19166020820180517bffffffffffffffffffffffffffffffffffffffffffffffffffffffff8381831617835250505050611cd3565b505050565b611ccd846323b872dd60e01b858585604051602401808473ffffffffffffffffffffffffffffffffffffffff1673ffffffffffffffffffffffffffffffffffffffff1681526020018373ffffffffffffffffffffffffffffffffffffffff1673ffffffffffffffffffffffffffffffffffffffff1681526020018281526020019350505050604051602081830303815290604052907bffffffffffffffffffffffffffffffffffffffffffffffffffffffff19166020820180517bffffffffffffffffffffffffffffffffffffffffffffffffffffffff8381831617835250505050611cd3565b50505050565b6060611d35826040518060400160405280602081526020017f5361666545524332303a206c6f772d6c6576656c2063616c6c206661696c65648152508573ffffffffffffffffffffffffffffffffffffffff16611dc29092919063ffffffff16565b9050600081511115611dbd57808060200190516020811015611d5657600080fd5b8101908080519060200190929190505050611dbc576040517f08c379a000000000000000000000000000000000000000000000000000000000815260040180806020018281038252602a815260200180612113602a913960400191505060405180910390fd5b5b505050565b6060611dd18484600085611dda565b90509392505050565b6060611de585611fe0565b611e57576040517f08c379a000000000000000000000000000000000000000000000000000000000815260040180806020018281038252601d8152602001807f416464726573733a2063616c6c20746f206e6f6e2d636f6e747261637400000081525060200191505060405180910390fd5b600060608673ffffffffffffffffffffffffffffffffffffffff1685876040518082805190602001908083835b60208310611ea75780518252602082019150602081019050602083039250611e84565b6001836020036101000a03801982511681845116808217855250505050505090500191505060006040518083038185875af1925050503d8060008114611f09576040519150601f19603f3d011682016040523d82523d6000602084013e611f0e565b606091505b50915091508115611f23578092505050611fd8565b600081511115611f365780518082602001fd5b836040517f08c379a00000000000000000000000000000000000000000000000000000000081526004018080602001828103825283818151815260200191508051906020019080838360005b83811015611f9d578082015181840152602081019050611f82565b50505050905090810190601f168015611fca5780820380516001836020036101000a031916815260200191505b509250505060405180910390fd5b949350505050565b60008060007fc5d2460186f7233c927e7db2dcc703c0e500b653ca82273b7bfad8045d85a47060001b9050833f915080821415801561202257506000801b8214155b9250505091905056fe46657374616b696e673a20776974686472617761626c6520616d6f756e742063616e6e6f74206265206e6567617469766546657374616b696e673a206261642074696d696e6720666f72207468652072657175657374536166654d6174683a206d756c7469706c69636174696f6e206f766572666c6f7746657374616b696e673a20776974686472617761626c6520616d6f756e74206d757374206265206c657373207468616e206f7220657175616c20746f207468652072657761726420616d6f756e7446657374616b696e673a20726577617264206d75737420626520706f7369746976655361666545524332303a204552433230206f7065726174696f6e20646964206e6f74207375636365656446657374616b696e673a20746869732077696c6c20696e637265617365207374616b696e6720616d6f756e7420706173732074686520636170a2646970667358221220251dbaa59578e3d795fa615408a216f1764f8444ab602d623e63782caa6f2d5564736f6c6343000602003346657374616b696e673a207374616b696e6720656e64206d757374206265206166746572207374616b696e672073746172747346657374616b696e673a207769746864726177456e6473206d7573742062652061667465722077697468647261772073746172747346657374616b696e673a207374616b696e67436170206d75737420626520706f73697469766546657374616b696e673a207769746864726177537461727473206d757374206265206166746572207374616b696e6720656e647346657374616b696e673a207a65726f207374616b696e672073746172742074696d65",
  "source": "pragma solidity ^0.6.0;\n\nimport \"@openzeppelin/contracts/math/SafeMath.sol\";\nimport \"@openzeppelin/contracts/token/ERC20/SafeERC20.sol\";\n\ncontract FestakingFarm {\n    using SafeMath for uint256;\n    using SafeERC20 for IERC20;\n\n    mapping (address => uint256) private _stakes;\n\n    string public name;\n    address  public tokenAddress;\n    address  public rewardTokenAddress;\n    uint public stakingStarts;\n    uint public stakingEnds;\n    uint public withdrawStarts;\n    uint public withdrawEnds;\n    uint256 public stakedTotal;\n    uint256 public stakingCap;\n    uint256 public totalReward;\n    uint256 public earlyWithdrawReward;\n    uint256 public rewardBalance;\n    uint256 public stakedBalance;\n\n    IERC20 public ERC20Interface;\n    event Staked(address indexed token, address indexed staker_, uint256 requestedAmount_, uint256 stakedAmount_);\n    event PaidOut(address indexed token, address indexed rewardToken, address indexed staker_, uint256 amount_, uint256 reward_);\n\n    /**\n     */\n    constructor (string memory name_,\n        address tokenAddress_,\n        address rewardTokenAddress_,\n        uint stakingStarts_,\n        uint stakingEnds_,\n        uint withdrawStarts_,\n        uint withdrawEnds_,\n        uint256 stakingCap_) public {\n        name = name_;\n        require(tokenAddress_ != address(0), \"Festaking: 0 address\");\n        tokenAddress = tokenAddress_;\n\n        require(rewardTokenAddress_ != address(0), \"Festaking: 0 reward address\");\n        rewardTokenAddress = rewardTokenAddress_;\n\n        require(stakingStarts_ > 0, \"Festaking: zero staking start time\");\n        if (stakingStarts_ < now) {\n            stakingStarts = now;\n        } else {\n            stakingStarts = stakingStarts_;\n        }\n\n        require(stakingEnds_ > stakingStarts, \"Festaking: staking end must be after staking starts\");\n        stakingEnds = stakingEnds_;\n\n        require(withdrawStarts_ >= stakingEnds, \"Festaking: withdrawStarts must be after staking ends\");\n        withdrawStarts = withdrawStarts_;\n\n        require(withdrawEnds_ > withdrawStarts, \"Festaking: withdrawEnds must be after withdraw starts\");\n        withdrawEnds = withdrawEnds_;\n\n        require(stakingCap_ > 0, \"Festaking: stakingCap must be positive\");\n        stakingCap = stakingCap_;\n    }\n\n    function addReward(uint256 rewardAmount, uint256 withdrawableAmount)\n    public\n    _before(withdrawStarts)\n    returns (bool) {\n        require(rewardAmount > 0, \"Festaking: reward must be positive\");\n        require(withdrawableAmount >= 0, \"Festaking: withdrawable amount cannot be negative\");\n        require(withdrawableAmount <= rewardAmount, \"Festaking: withdrawable amount must be less than or equal to the reward amount\");\n        address from = msg.sender;\n        if (!_payMe(from, rewardAmount, rewardTokenAddress)) {\n            return false;\n        }\n\n        totalReward = totalReward.add(rewardAmount);\n        rewardBalance = totalReward;\n        earlyWithdrawReward = earlyWithdrawReward.add(withdrawableAmount);\n        return true;\n    }\n\n    function stakeOf(address account) public view returns (uint256) {\n        return _stakes[account];\n    }\n\n    /**\n    * Requirements:\n    * - `amount` Amount to be staked\n    */\n    function stake(uint256 amount)\n    public\n    _positive(amount)\n    _realAddress(msg.sender)\n    returns (bool) {\n        address from = msg.sender;\n        return _stake(from, amount);\n    }\n\n    function withdraw(uint256 amount)\n    public\n    _after(withdrawStarts)\n    _positive(amount)\n    _realAddress(msg.sender)\n    returns (bool) {\n        address from = msg.sender;\n        require(amount <= _stakes[from], \"Festaking: not enough balance\");\n        if (now < withdrawEnds) {\n            return _withdrawEarly(from, amount);\n        } else {\n            return _withdrawAfterClose(from, amount);\n        }\n    }\n\n    function _withdrawEarly(address from, uint256 amount)\n    private\n    _realAddress(from)\n    returns (bool) {\n        // This is the formula to calculate reward:\n        // r = (earlyWithdrawReward / stakedTotal) * (now - stakingEnds) / (withdrawEnds - stakingEnds)\n        // w = (1+r) * a\n        uint256 denom = (withdrawEnds.sub(stakingEnds)).mul(stakedTotal);\n        uint256 reward = (\n        ( (now.sub(stakingEnds)).mul(earlyWithdrawReward) ).mul(amount)\n        ).div(denom);\n        rewardBalance = rewardBalance.sub(reward);\n        stakedBalance = stakedBalance.sub(amount);\n        _stakes[from] = _stakes[from].sub(amount);\n        bool principalPaid = _payDirect(from, amount, tokenAddress);\n        bool rewardPaid = _payDirect(from, reward, rewardTokenAddress);\n        require(principalPaid && rewardPaid, \"Festaking: error paying\");\n        emit PaidOut(tokenAddress, rewardTokenAddress, from, amount, reward);\n        return true;\n    }\n\n    function _withdrawAfterClose(address from, uint256 amount)\n    private\n    _realAddress(from)\n    returns (bool) {\n        uint256 reward = (rewardBalance.mul(amount)).div(stakedBalance);\n        _stakes[from] = _stakes[from].sub(amount);\n        bool principalPaid = _payDirect(from, amount, tokenAddress);\n        bool rewardPaid = _payDirect(from, reward, rewardTokenAddress);\n        require(principalPaid && rewardPaid, \"Festaking: error paying\");\n        emit PaidOut(tokenAddress, rewardTokenAddress, from, amount, reward);\n        return true;\n    }\n\n    function _stake(address staker, uint256 amount)\n    private\n    _after(stakingStarts)\n    _before(stakingEnds)\n    _positive(amount)\n    returns (bool) {\n        // check the remaining amount to be staked\n        uint256 remaining = amount;\n        if (remaining > (stakingCap.sub(stakedBalance))) {\n            remaining = stakingCap.sub(stakedBalance);\n        }\n        // These requires are not necessary, because it will never happen, but won't hurt to double check\n        // this is because stakedTotal and stakedBalance are only modified in this method during the staking period\n        require(remaining > 0, \"Festaking: Staking cap is filled\");\n        require((remaining + stakedTotal) <= stakingCap, \"Festaking: this will increase staking amount pass the cap\");\n        if (!_payMe(staker, remaining, tokenAddress)) {\n            return false;\n        }\n        emit Staked(tokenAddress, staker, amount, remaining);\n\n        // Transfer is completed\n        stakedBalance = stakedBalance.add(remaining);\n        stakedTotal = stakedTotal.add(remaining);\n        _stakes[staker] = _stakes[staker].add(remaining);\n        return true;\n    }\n\n    function _payMe(address payer, uint256 amount, address token)\n    private\n    returns (bool) {\n        return _payTo(payer, address(this), amount, token);\n    }\n\n    function _payTo(address allower, address receiver, uint256 amount, address token)\n    private\n    returns (bool) {\n        // Request to transfer amount from the contract to receiver.\n        // contract does not own the funds, so the allower must have added allowance to the contract\n        // Allower is the original owner.\n        ERC20Interface = IERC20(token);\n        ERC20Interface.safeTransferFrom(allower, receiver, amount);\n        return true;\n    }\n\n    function _payDirect(address to, uint256 amount, address token)\n    private\n    returns (bool) {\n        if (amount == 0) {\n            return true;\n        }\n        ERC20Interface = IERC20(token);\n        ERC20Interface.safeTransfer(to, amount);\n        return true;\n    }\n\n    modifier _realAddress(address addr) {\n        require(addr != address(0), \"Festaking: zero address\");\n        _;\n    }\n\n    modifier _positive(uint256 amount) {\n        require(amount >= 0, \"Festaking: negative amount\");\n        _;\n    }\n\n    modifier _after(uint eventTime) {\n        require(now >= eventTime, \"Festaking: bad timing for the request\");\n        _;\n    }\n\n    modifier _before(uint eventTime) {\n        require(now < eventTime, \"Festaking: bad timing for the request\");\n        _;\n    }\n}\n",
  "sourcePath": "/home/naiemk/nk/unifyre-app-staking/contract/contracts/FestakingFarm.sol",
  "compiler": {
    "name": "solc",
    "version": "0.6.2+commit.bacdbe57.Emscripten.clang"
  },
  "schemaVersion": "3.2.3",
  "updatedAt": "2020-09-26T00:24:17.755Z",
  "networkType": "ethereum",
  "devdoc": {
    "methods": {}
  },
  "userdoc": {
    "methods": {
      "stake(uint256)": {
        "notice": "Requirements: - `amount` Amount to be staked"
      }
    }
  }
}