{
	"contractName": "FerrumToken",
	"abi": [
		{
			"inputs": [],
			"payable": false,
			"stateMutability": "nonpayable",
			"type": "constructor"
		},
		{
			"anonymous": false,
			"inputs": [
				{
					"indexed": true,
					"internalType": "address",
					"name": "owner",
					"type": "address"
				},
				{
					"indexed": true,
					"internalType": "address",
					"name": "spender",
					"type": "address"
				},
				{
					"indexed": false,
					"internalType": "uint256",
					"name": "value",
					"type": "uint256"
				}
			],
			"name": "Approval",
			"type": "event"
		},
		{
			"anonymous": false,
			"inputs": [
				{
					"indexed": true,
					"internalType": "address",
					"name": "from",
					"type": "address"
				},
				{
					"indexed": true,
					"internalType": "address",
					"name": "to",
					"type": "address"
				},
				{
					"indexed": false,
					"internalType": "uint256",
					"name": "value",
					"type": "uint256"
				}
			],
			"name": "Transfer",
			"type": "event"
		},
		{
			"constant": true,
			"inputs": [],
			"name": "INITIAL_SUPPLY",
			"outputs": [
				{
					"internalType": "uint256",
					"name": "",
					"type": "uint256"
				}
			],
			"payable": false,
			"stateMutability": "view",
			"type": "function"
		},
		{
			"constant": true,
			"inputs": [
				{
					"internalType": "address",
					"name": "owner",
					"type": "address"
				},
				{
					"internalType": "address",
					"name": "spender",
					"type": "address"
				}
			],
			"name": "allowance",
			"outputs": [
				{
					"internalType": "uint256",
					"name": "",
					"type": "uint256"
				}
			],
			"payable": false,
			"stateMutability": "view",
			"type": "function"
		},
		{
			"constant": false,
			"inputs": [
				{
					"internalType": "address",
					"name": "spender",
					"type": "address"
				},
				{
					"internalType": "uint256",
					"name": "amount",
					"type": "uint256"
				}
			],
			"name": "approve",
			"outputs": [
				{
					"internalType": "bool",
					"name": "",
					"type": "bool"
				}
			],
			"payable": false,
			"stateMutability": "nonpayable",
			"type": "function"
		},
		{
			"constant": true,
			"inputs": [
				{
					"internalType": "address",
					"name": "account",
					"type": "address"
				}
			],
			"name": "balanceOf",
			"outputs": [
				{
					"internalType": "uint256",
					"name": "",
					"type": "uint256"
				}
			],
			"payable": false,
			"stateMutability": "view",
			"type": "function"
		},
		{
			"constant": false,
			"inputs": [
				{
					"internalType": "uint256",
					"name": "amount",
					"type": "uint256"
				}
			],
			"name": "burn",
			"outputs": [],
			"payable": false,
			"stateMutability": "nonpayable",
			"type": "function"
		},
		{
			"constant": false,
			"inputs": [
				{
					"internalType": "address",
					"name": "account",
					"type": "address"
				},
				{
					"internalType": "uint256",
					"name": "amount",
					"type": "uint256"
				}
			],
			"name": "burnFrom",
			"outputs": [],
			"payable": false,
			"stateMutability": "nonpayable",
			"type": "function"
		},
		{
			"constant": true,
			"inputs": [],
			"name": "decimals",
			"outputs": [
				{
					"internalType": "uint8",
					"name": "",
					"type": "uint8"
				}
			],
			"payable": false,
			"stateMutability": "view",
			"type": "function"
		},
		{
			"constant": false,
			"inputs": [
				{
					"internalType": "address",
					"name": "spender",
					"type": "address"
				},
				{
					"internalType": "uint256",
					"name": "subtractedValue",
					"type": "uint256"
				}
			],
			"name": "decreaseAllowance",
			"outputs": [
				{
					"internalType": "bool",
					"name": "",
					"type": "bool"
				}
			],
			"payable": false,
			"stateMutability": "nonpayable",
			"type": "function"
		},
		{
			"constant": false,
			"inputs": [
				{
					"internalType": "address",
					"name": "spender",
					"type": "address"
				},
				{
					"internalType": "uint256",
					"name": "addedValue",
					"type": "uint256"
				}
			],
			"name": "increaseAllowance",
			"outputs": [
				{
					"internalType": "bool",
					"name": "",
					"type": "bool"
				}
			],
			"payable": false,
			"stateMutability": "nonpayable",
			"type": "function"
		},
		{
			"constant": true,
			"inputs": [],
			"name": "name",
			"outputs": [
				{
					"internalType": "string",
					"name": "",
					"type": "string"
				}
			],
			"payable": false,
			"stateMutability": "view",
			"type": "function"
		},
		{
			"constant": true,
			"inputs": [],
			"name": "symbol",
			"outputs": [
				{
					"internalType": "string",
					"name": "",
					"type": "string"
				}
			],
			"payable": false,
			"stateMutability": "view",
			"type": "function"
		},
		{
			"constant": true,
			"inputs": [],
			"name": "totalSupply",
			"outputs": [
				{
					"internalType": "uint256",
					"name": "",
					"type": "uint256"
				}
			],
			"payable": false,
			"stateMutability": "view",
			"type": "function"
		},
		{
			"constant": false,
			"inputs": [
				{
					"internalType": "address",
					"name": "recipient",
					"type": "address"
				},
				{
					"internalType": "uint256",
					"name": "amount",
					"type": "uint256"
				}
			],
			"name": "transfer",
			"outputs": [
				{
					"internalType": "bool",
					"name": "",
					"type": "bool"
				}
			],
			"payable": false,
			"stateMutability": "nonpayable",
			"type": "function"
		},
		{
			"constant": false,
			"inputs": [
				{
					"internalType": "address",
					"name": "sender",
					"type": "address"
				},
				{
					"internalType": "address",
					"name": "recipient",
					"type": "address"
				},
				{
					"internalType": "uint256",
					"name": "amount",
					"type": "uint256"
				}
			],
			"name": "transferFrom",
			"outputs": [
				{
					"internalType": "bool",
					"name": "",
					"type": "bool"
				}
			],
			"payable": false,
			"stateMutability": "nonpayable",
			"type": "function"
		}
	],
	"bytecode": "0x60c0604052601460808190527f46657272756d204e6574776f726b20546f6b656e00000000000000000000000060a090815262000040916003919062000213565b506040805180820190915260038082526246524d60e81b60209092019182526200006d9160049162000213565b506005805460ff1916600690811790915566012db24a42538090553480156200009557600080fd5b50620000aa33600654620000b060201b60201c565b620002b8565b6001600160a01b0382166200010c576040805162461bcd60e51b815260206004820152601f60248201527f45524332303a206d696e7420746f20746865207a65726f206164647265737300604482015290519081900360640190fd5b6200012881600254620001b160201b620009161790919060201c565b6002556001600160a01b038216600090815260208181526040909120546200015b91839062000916620001b1821b17901c565b6001600160a01b0383166000818152602081815260408083209490945583518581529351929391927fddf252ad1be2c89b69c2b068fc378daa952ba7f163c4a11628f55a4df523b3ef9281900390910190a35050565b6000828201838110156200020c576040805162461bcd60e51b815260206004820152601b60248201527f536166654d6174683a206164646974696f6e206f766572666c6f770000000000604482015290519081900360640190fd5b9392505050565b828054600181600116156101000203166002900490600052602060002090601f016020900481019282601f106200025657805160ff191683800117855562000286565b8280016001018555821562000286579182015b828111156200028657825182559160200191906001019062000269565b506200029492915062000298565b5090565b620002b591905b808211156200029457600081556001016200029f565b90565b610ca680620002c86000396000f3fe608060405234801561001057600080fd5b50600436106100ea5760003560e01c806342966c681161008c57806395d89b411161006657806395d89b41146102bf578063a457c2d7146102c7578063a9059cbb146102f3578063dd62ed3e1461031f576100ea565b806342966c681461024e57806370a082311461026d57806379cc679014610293576100ea565b806323b872dd116100c857806323b872dd146101c65780632ff2e9dc146101fc578063313ce567146102045780633950935114610222576100ea565b806306fdde03146100ef578063095ea7b31461016c57806318160ddd146101ac575b600080fd5b6100f761034d565b6040805160208082528351818301528351919283929083019185019080838360005b83811015610131578181015183820152602001610119565b50505050905090810190601f16801561015e5780820380516001836020036101000a031916815260200191505b509250505060405180910390f35b6101986004803603604081101561018257600080fd5b506001600160a01b0381351690602001356103db565b604080519115158252519081900360200190f35b6101b46103f8565b60408051918252519081900360200190f35b610198600480360360608110156101dc57600080fd5b506001600160a01b038135811691602081013590911690604001356103fe565b6101b461048b565b61020c610491565b6040805160ff9092168252519081900360200190f35b6101986004803603604081101561023857600080fd5b506001600160a01b03813516906020013561049a565b61026b6004803603602081101561026457600080fd5b50356104ee565b005b6101b46004803603602081101561028357600080fd5b50356001600160a01b0316610502565b61026b600480360360408110156102a957600080fd5b506001600160a01b03813516906020013561051d565b6100f761052b565b610198600480360360408110156102dd57600080fd5b506001600160a01b038135169060200135610586565b6101986004803603604081101561030957600080fd5b506001600160a01b0381351690602001356105f4565b6101b46004803603604081101561033557600080fd5b506001600160a01b0381358116916020013516610608565b6003805460408051602060026001851615610100026000190190941693909304601f810184900484028201840190925281815292918301828280156103d35780601f106103a8576101008083540402835291602001916103d3565b820191906000526020600020905b8154815290600101906020018083116103b657829003601f168201915b505050505081565b60006103ef6103e8610633565b8484610637565b50600192915050565b60025490565b600061040b848484610723565b61048184610417610633565b61047c85604051806060016040528060288152602001610b97602891396001600160a01b038a16600090815260016020526040812090610455610633565b6001600160a01b03168152602081019190915260400160002054919063ffffffff61087f16565b610637565b5060019392505050565b60065481565b60055460ff1681565b60006103ef6104a7610633565b8461047c85600160006104b8610633565b6001600160a01b03908116825260208083019390935260409182016000908120918c16815292529020549063ffffffff61091616565b6104ff6104f9610633565b82610977565b50565b6001600160a01b031660009081526020819052604090205490565b6105278282610a73565b5050565b6004805460408051602060026001851615610100026000190190941693909304601f810184900484028201840190925281815292918301828280156103d35780601f106103a8576101008083540402835291602001916103d3565b60006103ef610593610633565b8461047c85604051806060016040528060258152602001610c4d60259139600160006105bd610633565b6001600160a01b03908116825260208083019390935260409182016000908120918d1681529252902054919063ffffffff61087f16565b60006103ef610601610633565b8484610723565b6001600160a01b03918216600090815260016020908152604080832093909416825291909152205490565b3390565b6001600160a01b03831661067c5760405162461bcd60e51b8152600401808060200182810382526024815260200180610c296024913960400191505060405180910390fd5b6001600160a01b0382166106c15760405162461bcd60e51b8152600401808060200182810382526022815260200180610b4f6022913960400191505060405180910390fd5b6001600160a01b03808416600081815260016020908152604080832094871680845294825291829020859055815185815291517f8c5be1e5ebec7d5bd14f71427d1e84f3dd0314c0f7b2291e5b200ac8c7c3b9259281900390910190a3505050565b6001600160a01b0383166107685760405162461bcd60e51b8152600401808060200182810382526025815260200180610c046025913960400191505060405180910390fd5b6001600160a01b0382166107ad5760405162461bcd60e51b8152600401808060200182810382526023815260200180610b0a6023913960400191505060405180910390fd5b6107f081604051806060016040528060268152602001610b71602691396001600160a01b038616600090815260208190526040902054919063ffffffff61087f16565b6001600160a01b038085166000908152602081905260408082209390935590841681522054610825908263ffffffff61091616565b6001600160a01b038084166000818152602081815260409182902094909455805185815290519193928716927fddf252ad1be2c89b69c2b068fc378daa952ba7f163c4a11628f55a4df523b3ef92918290030190a3505050565b6000818484111561090e5760405162461bcd60e51b81526004018080602001828103825283818151815260200191508051906020019080838360005b838110156108d35781810151838201526020016108bb565b50505050905090810190601f1680156109005780820380516001836020036101000a031916815260200191505b509250505060405180910390fd5b505050900390565b600082820183811015610970576040805162461bcd60e51b815260206004820152601b60248201527f536166654d6174683a206164646974696f6e206f766572666c6f770000000000604482015290519081900360640190fd5b9392505050565b6001600160a01b0382166109bc5760405162461bcd60e51b8152600401808060200182810382526021815260200180610be36021913960400191505060405180910390fd5b6109ff81604051806060016040528060228152602001610b2d602291396001600160a01b038516600090815260208190526040902054919063ffffffff61087f16565b6001600160a01b038316600090815260208190526040902055600254610a2b908263ffffffff610ac716565b6002556040805182815290516000916001600160a01b038516917fddf252ad1be2c89b69c2b068fc378daa952ba7f163c4a11628f55a4df523b3ef9181900360200190a35050565b610a7d8282610977565b61052782610a89610633565b61047c84604051806060016040528060248152602001610bbf602491396001600160a01b038816600090815260016020526040812090610455610633565b600061097083836040518060400160405280601e81526020017f536166654d6174683a207375627472616374696f6e206f766572666c6f77000081525061087f56fe45524332303a207472616e7366657220746f20746865207a65726f206164647265737345524332303a206275726e20616d6f756e7420657863656564732062616c616e636545524332303a20617070726f766520746f20746865207a65726f206164647265737345524332303a207472616e7366657220616d6f756e7420657863656564732062616c616e636545524332303a207472616e7366657220616d6f756e74206578636565647320616c6c6f77616e636545524332303a206275726e20616d6f756e74206578636565647320616c6c6f77616e636545524332303a206275726e2066726f6d20746865207a65726f206164647265737345524332303a207472616e736665722066726f6d20746865207a65726f206164647265737345524332303a20617070726f76652066726f6d20746865207a65726f206164647265737345524332303a2064656372656173656420616c6c6f77616e63652062656c6f77207a65726fa265627a7a7231582089c36e9528039918da4d09a2019cffb58244e00b4ade56789b2f242fdcef706e64736f6c63430005100032",
	"source": "  \r\npragma solidity >=0.4.21 <0.7.0;\r\n\r\nimport \"openzeppelin-solidity/contracts/token/ERC20/ERC20Burnable.sol\";\r\n\r\ncontract FerrumToken is ERC20Burnable {\r\n    string public name = \"Ferrum Network Token\";\r\n    string public symbol = \"FRM\";\r\n    uint8 public decimals = 6;\r\n    uint public INITIAL_SUPPLY = 331718750 * 1000000;\r\n\r\n    constructor() public {\r\n        _mint(msg.sender, INITIAL_SUPPLY);\r\n    }\r\n}",
	"sourcePath": "C:/Users/horla/OneDrive/Documents/unifyre-staking-app/new/contracts/FerrumToken.sol",
	"compiler": {
		"name": "solc",
		"version": "0.5.16+commit.9c3226ce.Emscripten.clang"
	},
	"schemaVersion": "3.2.3",
	"updatedAt": "2020-08-11T12:52:23.139Z",
	"networkType": "ethereum",
	"devdoc": {
		"methods": {
			"allowance(address,address)": {
				"details": "See {IERC20-allowance}."
			},
			"approve(address,uint256)": {
				"details": "See {IERC20-approve}.     * Requirements:     * - `spender` cannot be the zero address."
			},
			"balanceOf(address)": {
				"details": "See {IERC20-balanceOf}."
			},
			"burn(uint256)": {
				"details": "Destroys `amount` tokens from the caller.     * See {ERC20-_burn}."
			},
			"burnFrom(address,uint256)": {
				"details": "See {ERC20-_burnFrom}."
			},
			"decreaseAllowance(address,uint256)": {
				"details": "Atomically decreases the allowance granted to `spender` by the caller.     * This is an alternative to {approve} that can be used as a mitigation for problems described in {IERC20-approve}.     * Emits an {Approval} event indicating the updated allowance.     * Requirements:     * - `spender` cannot be the zero address. - `spender` must have allowance for the caller of at least `subtractedValue`."
			},
			"increaseAllowance(address,uint256)": {
				"details": "Atomically increases the allowance granted to `spender` by the caller.     * This is an alternative to {approve} that can be used as a mitigation for problems described in {IERC20-approve}.     * Emits an {Approval} event indicating the updated allowance.     * Requirements:     * - `spender` cannot be the zero address."
			},
			"totalSupply()": {
				"details": "See {IERC20-totalSupply}."
			},
			"transfer(address,uint256)": {
				"details": "See {IERC20-transfer}.     * Requirements:     * - `recipient` cannot be the zero address. - the caller must have a balance of at least `amount`."
			},
			"transferFrom(address,address,uint256)": {
				"details": "See {IERC20-transferFrom}.     * Emits an {Approval} event indicating the updated allowance. This is not required by the EIP. See the note at the beginning of {ERC20};     * Requirements: - `sender` and `recipient` cannot be the zero address. - `sender` must have a balance of at least `amount`. - the caller must have allowance for `sender`'s tokens of at least `amount`."
			}
		}
	},
	"userdoc": {
		"methods": {}
	}
}