{
  "contractName": "MyNotary",
  "abi": [
    {
      "inputs": [
        {
          "internalType": "string",
          "name": "document",
          "type": "string"
        }
      ],
      "name": "notarize",
      "outputs": [],
      "stateMutability": "nonpayable",
      "type": "function"
    },
    {
      "inputs": [
        {
          "internalType": "string",
          "name": "document",
          "type": "string"
        }
      ],
      "name": "checkDocument",
      "outputs": [
        {
          "internalType": "bool",
          "name": "",
          "type": "bool"
        }
      ],
      "stateMutability": "view",
      "type": "function",
      "constant": true
    }
  ],
  "bytecode": "0x608060405234801561001057600080fd5b506103a0806100206000396000f3fe608060405234801561001057600080fd5b50600436106100365760003560e01c806353fb92331461003b5780637183616c1461010e575b600080fd5b6100f46004803603602081101561005157600080fd5b810190808035906020019064010000000081111561006e57600080fd5b82018360208201111561008057600080fd5b803590602001918460018302840111640100000000831117156100a257600080fd5b91908080601f016020809104026020016040519081016040528093929190818152602001838380828437600081840152601f19601f8201169050808301925050505050505091929192905050506101c9565b604051808215151515815260200191505060405180910390f35b6101c76004803603602081101561012457600080fd5b810190808035906020019064010000000081111561014157600080fd5b82018360208201111561015357600080fd5b8035906020019184600183028401116401000000008311171561017557600080fd5b91908080601f016020809104026020016040519081016040528093929190818152602001838380828437600081840152601f19601f8201169050808301925050505050505091929192905050506101e8565b005b6000806101d583610202565b90506101e081610313565b915050919050565b60006101f382610202565b90506101fe8161033c565b5050565b60006002826040516020018082805190602001908083835b6020831061023d578051825260208201915060208101905060208303925061021a565b6001836020036101000a0380198251168184511680821785525050505050509050019150506040516020818303038152906040526040518082805190602001908083835b602083106102a45780518252602082019150602081019050602083039250610281565b6001836020036101000a038019825116818451168082178552505050505050905001915050602060405180830381855afa1580156102e6573d6000803e3d6000fd5b5050506040513d60208110156102fb57600080fd5b81019080805190602001909291905050509050919050565b600080600083815260200190815260200160002060009054906101000a900460ff169050919050565b600160008083815260200190815260200160002060006101000a81548160ff0219169083151502179055505056fea264697066735822122072f818377a84a968cbd108d3157565945260cc6eb45ff25f837f3f5f1ccdbf2764736f6c63430006020033",
  "source": "// SPDX-License-Identifier: MIT\r\npragma solidity >=0.6.0;\r\n\r\ncontract MyNotary {\r\n    \r\n    mapping (bytes32 => bool) documentProof;\r\n    \r\n    function notarize(string memory document) public {\r\n        bytes32 signedDocument = signDoc(document);\r\n        storeDocumentProof(signedDocument);\r\n    }\r\n    \r\n    function signDoc(string memory document) private pure returns (bytes32) {\r\n        return sha256(abi.encodePacked(document));\r\n    }\r\n    \r\n    function storeDocumentProof(bytes32 signedDocument) private {\r\n        documentProof[signedDocument] = true;\r\n    }\r\n    \r\n    function checkDocument (string memory document) public view returns (bool) {\r\n        bytes32 signedDocument = signDoc(document);\r\n        return hasProof(signedDocument);\r\n    }\r\n    \r\n    function hasProof(bytes32 signedDocument) private view returns (bool) {\r\n        return documentProof[signedDocument];\r\n    }\r\n}",
  "sourcePath": "C:/Users/horla/OneDrive/Documents/staking/contracts/Notary.sol",
  "compiler": {
    "name": "solc",
    "version": "0.6.2+commit.bacdbe57.Emscripten.clang"
  },
  "schemaVersion": "3.2.3",
  "updatedAt": "2020-08-17T12:46:51.142Z",
  "networkType": "ethereum",
  "devdoc": {
    "methods": {}
  },
  "userdoc": {
    "methods": {}
  }
}