{
  "contractName": "Staking",
  "abi": [
    {
      "inputs": [
        {
          "internalType": "string",
          "name": "name_",
          "type": "string"
        },
        {
          "internalType": "address",
          "name": "tokenAddress_",
          "type": "address"
        },
        {
          "internalType": "uint256",
          "name": "stakingStarts_",
          "type": "uint256"
        },
        {
          "internalType": "uint256",
          "name": "stakingEnds_",
          "type": "uint256"
        },
        {
          "internalType": "uint256",
          "name": "withdrawStarts_",
          "type": "uint256"
        },
        {
          "internalType": "uint256",
          "name": "withdrawEnds_",
          "type": "uint256"
        },
        {
          "internalType": "uint256",
          "name": "stakingCap_",
          "type": "uint256"
        }
      ],
      "stateMutability": "nonpayable",
      "type": "constructor"
    },
    {
      "anonymous": false,
      "inputs": [
        {
          "indexed": true,
          "internalType": "address",
          "name": "token",
          "type": "address"
        },
        {
          "indexed": true,
          "internalType": "address",
          "name": "staker_",
          "type": "address"
        },
        {
          "indexed": false,
          "internalType": "uint256",
          "name": "amount_",
          "type": "uint256"
        },
        {
          "indexed": false,
          "internalType": "uint256",
          "name": "reward_",
          "type": "uint256"
        }
      ],
      "name": "PaidOut",
      "type": "event"
    },
    {
      "anonymous": false,
      "inputs": [
        {
          "indexed": true,
          "internalType": "address",
          "name": "token",
          "type": "address"
        },
        {
          "indexed": true,
          "internalType": "address",
          "name": "staker_",
          "type": "address"
        },
        {
          "indexed": false,
          "internalType": "uint256",
          "name": "amount_",
          "type": "uint256"
        }
      ],
      "name": "Refunded",
      "type": "event"
    },
    {
      "anonymous": false,
      "inputs": [
        {
          "indexed": true,
          "internalType": "address",
          "name": "token",
          "type": "address"
        },
        {
          "indexed": true,
          "internalType": "address",
          "name": "staker_",
          "type": "address"
        },
        {
          "indexed": false,
          "internalType": "uint256",
          "name": "requestedAmount_",
          "type": "uint256"
        },
        {
          "indexed": false,
          "internalType": "uint256",
          "name": "stakedAmount_",
          "type": "uint256"
        }
      ],
      "name": "Staked",
      "type": "event"
    },
    {
      "inputs": [],
      "name": "ERC20Interface",
      "outputs": [
        {
          "internalType": "contract ERC20",
          "name": "",
          "type": "address"
        }
      ],
      "stateMutability": "view",
      "type": "function",
      "constant": true
    },
    {
      "inputs": [],
      "name": "earlyWithdrawReward",
      "outputs": [
        {
          "internalType": "uint256",
          "name": "",
          "type": "uint256"
        }
      ],
      "stateMutability": "view",
      "type": "function",
      "constant": true
    },
    {
      "inputs": [],
      "name": "name",
      "outputs": [
        {
          "internalType": "string",
          "name": "",
          "type": "string"
        }
      ],
      "stateMutability": "view",
      "type": "function",
      "constant": true
    },
    {
      "inputs": [],
      "name": "rewardBalance",
      "outputs": [
        {
          "internalType": "uint256",
          "name": "",
          "type": "uint256"
        }
      ],
      "stateMutability": "view",
      "type": "function",
      "constant": true
    },
    {
      "inputs": [],
      "name": "stakedBalance",
      "outputs": [
        {
          "internalType": "uint256",
          "name": "",
          "type": "uint256"
        }
      ],
      "stateMutability": "view",
      "type": "function",
      "constant": true
    },
    {
      "inputs": [],
      "name": "stakedTotal",
      "outputs": [
        {
          "internalType": "uint256",
          "name": "",
          "type": "uint256"
        }
      ],
      "stateMutability": "view",
      "type": "function",
      "constant": true
    },
    {
      "inputs": [],
      "name": "stakingCap",
      "outputs": [
        {
          "internalType": "uint256",
          "name": "",
          "type": "uint256"
        }
      ],
      "stateMutability": "view",
      "type": "function",
      "constant": true
    },
    {
      "inputs": [],
      "name": "stakingEnds",
      "outputs": [
        {
          "internalType": "uint256",
          "name": "",
          "type": "uint256"
        }
      ],
      "stateMutability": "view",
      "type": "function",
      "constant": true
    },
    {
      "inputs": [],
      "name": "stakingStarts",
      "outputs": [
        {
          "internalType": "uint256",
          "name": "",
          "type": "uint256"
        }
      ],
      "stateMutability": "view",
      "type": "function",
      "constant": true
    },
    {
      "inputs": [],
      "name": "tokenAddress",
      "outputs": [
        {
          "internalType": "address",
          "name": "",
          "type": "address"
        }
      ],
      "stateMutability": "view",
      "type": "function",
      "constant": true
    },
    {
      "inputs": [],
      "name": "totalReward",
      "outputs": [
        {
          "internalType": "uint256",
          "name": "",
          "type": "uint256"
        }
      ],
      "stateMutability": "view",
      "type": "function",
      "constant": true
    },
    {
      "inputs": [],
      "name": "withdrawEnds",
      "outputs": [
        {
          "internalType": "uint256",
          "name": "",
          "type": "uint256"
        }
      ],
      "stateMutability": "view",
      "type": "function",
      "constant": true
    },
    {
      "inputs": [],
      "name": "withdrawStarts",
      "outputs": [
        {
          "internalType": "uint256",
          "name": "",
          "type": "uint256"
        }
      ],
      "stateMutability": "view",
      "type": "function",
      "constant": true
    },
    {
      "inputs": [
        {
          "internalType": "uint256",
          "name": "rewardAmount",
          "type": "uint256"
        },
        {
          "internalType": "uint256",
          "name": "withdrawableAmount",
          "type": "uint256"
        }
      ],
      "name": "addReward",
      "outputs": [
        {
          "internalType": "bool",
          "name": "",
          "type": "bool"
        }
      ],
      "stateMutability": "nonpayable",
      "type": "function"
    },
    {
      "inputs": [
        {
          "internalType": "address",
          "name": "account",
          "type": "address"
        }
      ],
      "name": "stakeOf",
      "outputs": [
        {
          "internalType": "uint256",
          "name": "",
          "type": "uint256"
        }
      ],
      "stateMutability": "view",
      "type": "function",
      "constant": true
    },
    {
      "inputs": [
        {
          "internalType": "uint256",
          "name": "amount",
          "type": "uint256"
        }
      ],
      "name": "stake",
      "outputs": [
        {
          "internalType": "bool",
          "name": "",
          "type": "bool"
        }
      ],
      "stateMutability": "nonpayable",
      "type": "function"
    },
    {
      "inputs": [
        {
          "internalType": "uint256",
          "name": "amount",
          "type": "uint256"
        }
      ],
      "name": "withdraw",
      "outputs": [
        {
          "internalType": "bool",
          "name": "",
          "type": "bool"
        }
      ],
      "stateMutability": "nonpayable",
      "type": "function"
    }
  ],
  "bytecode": "0x60806040523480156200001157600080fd5b506040516200284338038062002843833981810160405260e08110156200003757600080fd5b81019080805160405193929190846401000000008211156200005857600080fd5b838201915060208201858111156200006f57600080fd5b82518660018202830111640100000000821117156200008d57600080fd5b8083526020830192505050908051906020019080838360005b83811015620000c3578082015181840152602081019050620000a6565b50505050905090810190601f168015620000f15780820380516001836020036101000a031916815260200191505b5060405260200180519060200190929190805190602001909291908051906020019092919080519060200190929190805190602001909291908051906020019092919050505086600190805190602001906200014f92919062000447565b50600073ffffffffffffffffffffffffffffffffffffffff168673ffffffffffffffffffffffffffffffffffffffff161415620001f4576040517f08c379a00000000000000000000000000000000000000000000000000000000081526004018080602001828103825260148152602001807f46657374616b696e673a2030206164647265737300000000000000000000000081525060200191505060405180910390fd5b85600260006101000a81548173ffffffffffffffffffffffffffffffffffffffff021916908373ffffffffffffffffffffffffffffffffffffffff1602179055506000851162000290576040517f08c379a0000000000000000000000000000000000000000000000000000000008152600401808060200182810382526022815260200180620028216022913960400191505060405180910390fd5b42851015620002a65742600381905550620002ae565b846003819055505b60035484116200030a576040517f08c379a00000000000000000000000000000000000000000000000000000000081526004018080602001828103825260338152602001806200275f6033913960400191505060405180910390fd5b836004819055506004548310156200036e576040517f08c379a0000000000000000000000000000000000000000000000000000000008152600401808060200182810382526034815260200180620027ed6034913960400191505060405180910390fd5b826005819055506005548211620003d1576040517f08c379a0000000000000000000000000000000000000000000000000000000008152600401808060200182810382526035815260200180620027926035913960400191505060405180910390fd5b816006819055506000811162000433576040517f08c379a0000000000000000000000000000000000000000000000000000000008152600401808060200182810382526026815260200180620027c76026913960400191505060405180910390fd5b8060088190555050505050505050620004f6565b828054600181600116156101000203166002900490600052602060002090601f016020900481019282601f106200048a57805160ff1916838001178555620004bb565b82800160010185558215620004bb579182015b82811115620004ba5782518255916020019190600101906200049d565b5b509050620004ca9190620004ce565b5090565b620004f391905b80821115620004ef576000816000905550600101620004d5565b5090565b90565b61225980620005066000396000f3fe608060405234801561001057600080fd5b506004361061010b5760003560e01c80636d68c7d4116100a2578063a694fc3a11610071578063a694fc3a146103c9578063aa5c3ab41461040f578063b410e2a11461042d578063d66692a71461044b578063eacebf61146104695761010b565b80636d68c7d4146102f3578063750142e61461031157806375c93bb91461032f5780639d76ea581461037f5761010b565b80633f7fd60a116100de5780633f7fd60a14610241578063426233601461025f57806344c370d3146102b75780635b9f0016146102d55761010b565b806306fdde03146101105780631bbc4b831461019357806321b13cdf146101dd5780632e1a7d4d146101fb575b600080fd5b610118610487565b6040518080602001828103825283818151815260200191508051906020019080838360005b8381101561015857808201518184015260208101905061013d565b50505050905090810190601f1680156101855780820380516001836020036101000a031916815260200191505b509250505060405180910390f35b61019b610525565b604051808273ffffffffffffffffffffffffffffffffffffffff1673ffffffffffffffffffffffffffffffffffffffff16815260200191505060405180910390f35b6101e561054b565b6040518082815260200191505060405180910390f35b6102276004803603602081101561021157600080fd5b8101908080359060200190929190505050610551565b604051808215151515815260200191505060405180910390f35b6102496107b6565b6040518082815260200191505060405180910390f35b6102a16004803603602081101561027557600080fd5b81019080803573ffffffffffffffffffffffffffffffffffffffff1690602001909291905050506107bc565b6040518082815260200191505060405180910390f35b6102bf610804565b6040518082815260200191505060405180910390f35b6102dd61080a565b6040518082815260200191505060405180910390f35b6102fb610810565b6040518082815260200191505060405180910390f35b610319610816565b6040518082815260200191505060405180910390f35b6103656004803603604081101561034557600080fd5b81019080803590602001909291908035906020019092919050505061081c565b604051808215151515815260200191505060405180910390f35b610387610bc1565b604051808273ffffffffffffffffffffffffffffffffffffffff1673ffffffffffffffffffffffffffffffffffffffff16815260200191505060405180910390f35b6103f5600480360360208110156103df57600080fd5b8101908080359060200190929190505050610be7565b604051808215151515815260200191505060405180910390f35b610417610d1e565b6040518082815260200191505060405180910390f35b610435610d24565b6040518082815260200191505060405180910390f35b610453610d2a565b6040518082815260200191505060405180910390f35b610471610d30565b6040518082815260200191505060405180910390f35b60018054600181600116156101000203166002900480601f01602080910402602001604051908101604052809291908181526020018280546001816001161561010002031660029004801561051d5780601f106104f25761010080835404028352916020019161051d565b820191906000526020600020905b81548152906001019060200180831161050057829003601f168201915b505050505081565b600d60009054906101000a900473ffffffffffffffffffffffffffffffffffffffff1681565b60055481565b6000600554804210156105af576040517f08c379a00000000000000000000000000000000000000000000000000000000081526004018080602001828103825260258152602001806121356025913960400191505060405180910390fd5b826000811015610627576040517f08c379a000000000000000000000000000000000000000000000000000000000815260040180806020018281038252601a8152602001807f46657374616b696e673a206e6567617469766520616d6f756e7400000000000081525060200191505060405180910390fd5b33600073ffffffffffffffffffffffffffffffffffffffff168173ffffffffffffffffffffffffffffffffffffffff1614156106cb576040517f08c379a00000000000000000000000000000000000000000000000000000000081526004018080602001828103825260178152602001807f46657374616b696e673a207a65726f206164647265737300000000000000000081525060200191505060405180910390fd5b60003390506000808273ffffffffffffffffffffffffffffffffffffffff1673ffffffffffffffffffffffffffffffffffffffff16815260200190815260200160002054861115610784576040517f08c379a000000000000000000000000000000000000000000000000000000000815260040180806020018281038252601d8152602001807f46657374616b696e673a206e6f7420656e6f7567682062616c616e636500000081525060200191505060405180910390fd5b6006544210156107a0576107988187610d36565b9450506107ae565b6107aa8187610ff5565b9450505b505050919050565b600a5481565b60008060008373ffffffffffffffffffffffffffffffffffffffff1673ffffffffffffffffffffffffffffffffffffffff168152602001908152602001600020549050919050565b60085481565b600c5481565b60035481565b60095481565b6000600554804210610879576040517f08c379a00000000000000000000000000000000000000000000000000000000081526004018080602001828103825260258152602001806121356025913960400191505060405180910390fd5b3384600260009054906101000a900473ffffffffffffffffffffffffffffffffffffffff16600d60006101000a81548173ffffffffffffffffffffffffffffffffffffffff021916908373ffffffffffffffffffffffffffffffffffffffff1602179055506000600d60009054906101000a900473ffffffffffffffffffffffffffffffffffffffff1673ffffffffffffffffffffffffffffffffffffffff1663dd62ed3e84306040518363ffffffff1660e01b8152600401808373ffffffffffffffffffffffffffffffffffffffff1673ffffffffffffffffffffffffffffffffffffffff1681526020018273ffffffffffffffffffffffffffffffffffffffff1673ffffffffffffffffffffffffffffffffffffffff1681526020019250505060206040518083038186803b1580156109b357600080fd5b505afa1580156109c7573d6000803e3d6000fd5b505050506040513d60208110156109dd57600080fd5b8101908080519060200190929190505050905080821115610a49576040517f08c379a000000000000000000000000000000000000000000000000000000000815260040180806020018281038252602c8152602001806120d8602c913960400191505060405180910390fd5b60008711610aa2576040517f08c379a00000000000000000000000000000000000000000000000000000000081526004018080602001828103825260228152602001806121c96022913960400191505060405180910390fd5b6000861015610afc576040517f08c379a00000000000000000000000000000000000000000000000000000000081526004018080602001828103825260318152602001806121046031913960400191505060405180910390fd5b86861115610b55576040517f08c379a000000000000000000000000000000000000000000000000000000000815260040180806020018281038252604e81526020018061217b604e913960600191505060405180910390fd5b6000339050610b648189611229565b610b72576000955050610bb7565b610b878860095461123e90919063ffffffff16565b600981905550600954600b81905550610bab87600a5461123e90919063ffffffff16565b600a8190555060019550505b5050505092915050565b600260009054906101000a900473ffffffffffffffffffffffffffffffffffffffff1681565b6000816000811015610c61576040517f08c379a000000000000000000000000000000000000000000000000000000000815260040180806020018281038252601a8152602001807f46657374616b696e673a206e6567617469766520616d6f756e7400000000000081525060200191505060405180910390fd5b33600073ffffffffffffffffffffffffffffffffffffffff168173ffffffffffffffffffffffffffffffffffffffff161415610d05576040517f08c379a00000000000000000000000000000000000000000000000000000000081526004018080602001828103825260178152602001807f46657374616b696e673a207a65726f206164647265737300000000000000000081525060200191505060405180910390fd5b6000339050610d1481866112c6565b9350505050919050565b600b5481565b60045481565b60075481565b60065481565b600082600073ffffffffffffffffffffffffffffffffffffffff168173ffffffffffffffffffffffffffffffffffffffff161415610ddc576040517f08c379a00000000000000000000000000000000000000000000000000000000081526004018080602001828103825260178152602001807f46657374616b696e673a207a65726f206164647265737300000000000000000081525060200191505060405180910390fd5b6000610e09600754610dfb60045460065461191490919063ffffffff16565b61195e90919063ffffffff16565b90506000610e5a82610e4c87610e3e600a54610e306004544261191490919063ffffffff16565b61195e90919063ffffffff16565b61195e90919063ffffffff16565b6119e490919063ffffffff16565b90506000610e71828761123e90919063ffffffff16565b9050610e8882600b5461191490919063ffffffff16565b600b81905550610ea386600c5461191490919063ffffffff16565b600c81905550610efa866000808a73ffffffffffffffffffffffffffffffffffffffff1673ffffffffffffffffffffffffffffffffffffffff1681526020019081526020016000205461191490919063ffffffff16565b6000808973ffffffffffffffffffffffffffffffffffffffff1673ffffffffffffffffffffffffffffffffffffffff16815260200190815260200160002081905550610f468782611a2e565b15610fe6578673ffffffffffffffffffffffffffffffffffffffff16600260009054906101000a900473ffffffffffffffffffffffffffffffffffffffff1673ffffffffffffffffffffffffffffffffffffffff167f85ab59351da11b79336de7647172267c33bf533ee87d9d292441c2672177159b8885604051808381526020018281526020019250505060405180910390a360019450505050610fee565b600094505050505b5092915050565b600082600073ffffffffffffffffffffffffffffffffffffffff168173ffffffffffffffffffffffffffffffffffffffff16141561109b576040517f08c379a00000000000000000000000000000000000000000000000000000000081526004018080602001828103825260178152602001807f46657374616b696e673a207a65726f206164647265737300000000000000000081525060200191505060405180910390fd5b60006110c6600c546110b886600b5461195e90919063ffffffff16565b6119e490919063ffffffff16565b905060006110dd828661123e90919063ffffffff16565b9050611130856000808973ffffffffffffffffffffffffffffffffffffffff1673ffffffffffffffffffffffffffffffffffffffff1681526020019081526020016000205461191490919063ffffffff16565b6000808873ffffffffffffffffffffffffffffffffffffffff1673ffffffffffffffffffffffffffffffffffffffff1681526020019081526020016000208190555061117c8682611a2e565b1561121b578573ffffffffffffffffffffffffffffffffffffffff16600260009054906101000a900473ffffffffffffffffffffffffffffffffffffffff1673ffffffffffffffffffffffffffffffffffffffff167f85ab59351da11b79336de7647172267c33bf533ee87d9d292441c2672177159b8785604051808381526020018281526020019250505060405180910390a3600193505050611222565b6000935050505b5092915050565b6000611236833084611bf8565b905092915050565b6000808284019050838110156112bc576040517f08c379a000000000000000000000000000000000000000000000000000000000815260040180806020018281038252601b8152602001807f536166654d6174683a206164646974696f6e206f766572666c6f77000000000081525060200191505060405180910390fd5b8091505092915050565b600060035480421015611324576040517f08c379a00000000000000000000000000000000000000000000000000000000081526004018080602001828103825260258152602001806121356025913960400191505060405180910390fd5b60045480421061137f576040517f08c379a00000000000000000000000000000000000000000000000000000000081526004018080602001828103825260258152602001806121356025913960400191505060405180910390fd5b8360008110156113f7576040517f08c379a000000000000000000000000000000000000000000000000000000000815260040180806020018281038252601a8152602001807f46657374616b696e673a206e6567617469766520616d6f756e7400000000000081525060200191505060405180910390fd5b8585600260009054906101000a900473ffffffffffffffffffffffffffffffffffffffff16600d60006101000a81548173ffffffffffffffffffffffffffffffffffffffff021916908373ffffffffffffffffffffffffffffffffffffffff1602179055506000600d60009054906101000a900473ffffffffffffffffffffffffffffffffffffffff1673ffffffffffffffffffffffffffffffffffffffff1663dd62ed3e84306040518363ffffffff1660e01b8152600401808373ffffffffffffffffffffffffffffffffffffffff1673ffffffffffffffffffffffffffffffffffffffff1681526020018273ffffffffffffffffffffffffffffffffffffffff1673ffffffffffffffffffffffffffffffffffffffff1681526020019250505060206040518083038186803b15801561153157600080fd5b505afa158015611545573d6000803e3d6000fd5b505050506040513d602081101561155b57600080fd5b81019080805190602001909291905050509050808211156115c7576040517f08c379a000000000000000000000000000000000000000000000000000000000815260040180806020018281038252602c8152602001806120d8602c913960400191505060405180910390fd5b60008890506115e3600c5460085461191490919063ffffffff16565b81111561160457611601600c5460085461191490919063ffffffff16565b90505b6000811161167a576040517f08c379a00000000000000000000000000000000000000000000000000000000081526004018080602001828103825260208152602001807f46657374616b696e673a205374616b696e67206361702069732066696c6c656481525060200191505060405180910390fd5b600854600754820111156116d9576040517f08c379a00000000000000000000000000000000000000000000000000000000081526004018080602001828103825260398152602001806121eb6039913960400191505060405180910390fd5b6116e38a82611229565b6116f1576000975050611908565b8973ffffffffffffffffffffffffffffffffffffffff16600260009054906101000a900473ffffffffffffffffffffffffffffffffffffffff1673ffffffffffffffffffffffffffffffffffffffff167f6c86f3fd5118b3aa8bb4f389a617046de0a3d3d477de1a1673d227f802f616dc8b84604051808381526020018281526020019250505060405180910390a38881101561183957600061179d828b61191490919063ffffffff16565b90506117aa8b8c83611bf8565b15611837578a73ffffffffffffffffffffffffffffffffffffffff16600260009054906101000a900473ffffffffffffffffffffffffffffffffffffffff1673ffffffffffffffffffffffffffffffffffffffff167fec1e5ed733e00f1a00915d56caef57b4f52312dde4f9b3165f213319a0da156b836040518082815260200191505060405180910390a35b505b61184e81600c5461123e90919063ffffffff16565b600c819055506118698160075461123e90919063ffffffff16565b6007819055506118c0816000808d73ffffffffffffffffffffffffffffffffffffffff1673ffffffffffffffffffffffffffffffffffffffff1681526020019081526020016000205461123e90919063ffffffff16565b6000808c73ffffffffffffffffffffffffffffffffffffffff1673ffffffffffffffffffffffffffffffffffffffff1681526020019081526020016000208190555060019750505b50505050505092915050565b600061195683836040518060400160405280601e81526020017f536166654d6174683a207375627472616374696f6e206f766572666c6f770000815250611f51565b905092915050565b60008083141561197157600090506119de565b600082840290508284828161198257fe5b04146119d9576040517f08c379a000000000000000000000000000000000000000000000000000000000815260040180806020018281038252602181526020018061215a6021913960400191505060405180910390fd5b809150505b92915050565b6000611a2683836040518060400160405280601a81526020017f536166654d6174683a206469766973696f6e206279207a65726f000000000000815250612011565b905092915050565b6000816000811015611aa8576040517f08c379a000000000000000000000000000000000000000000000000000000000815260040180806020018281038252601a8152602001807f46657374616b696e673a206e6567617469766520616d6f756e7400000000000081525060200191505060405180910390fd5b600260009054906101000a900473ffffffffffffffffffffffffffffffffffffffff16600d60006101000a81548173ffffffffffffffffffffffffffffffffffffffff021916908373ffffffffffffffffffffffffffffffffffffffff160217905550600d60009054906101000a900473ffffffffffffffffffffffffffffffffffffffff1673ffffffffffffffffffffffffffffffffffffffff1663a9059cbb85856040518363ffffffff1660e01b8152600401808373ffffffffffffffffffffffffffffffffffffffff1673ffffffffffffffffffffffffffffffffffffffff16815260200182815260200192505050602060405180830381600087803b158015611bb457600080fd5b505af1158015611bc8573d6000803e3d6000fd5b505050506040513d6020811015611bde57600080fd5b810190808051906020019092919050505091505092915050565b60008382600260009054906101000a900473ffffffffffffffffffffffffffffffffffffffff16600d60006101000a81548173ffffffffffffffffffffffffffffffffffffffff021916908373ffffffffffffffffffffffffffffffffffffffff1602179055506000600d60009054906101000a900473ffffffffffffffffffffffffffffffffffffffff1673ffffffffffffffffffffffffffffffffffffffff1663dd62ed3e84306040518363ffffffff1660e01b8152600401808373ffffffffffffffffffffffffffffffffffffffff1673ffffffffffffffffffffffffffffffffffffffff1681526020018273ffffffffffffffffffffffffffffffffffffffff1673ffffffffffffffffffffffffffffffffffffffff1681526020019250505060206040518083038186803b158015611d3457600080fd5b505afa158015611d48573d6000803e3d6000fd5b505050506040513d6020811015611d5e57600080fd5b8101908080519060200190929190505050905080821115611dca576040517f08c379a000000000000000000000000000000000000000000000000000000000815260040180806020018281038252602c8152602001806120d8602c913960400191505060405180910390fd5b600260009054906101000a900473ffffffffffffffffffffffffffffffffffffffff16600d60006101000a81548173ffffffffffffffffffffffffffffffffffffffff021916908373ffffffffffffffffffffffffffffffffffffffff160217905550600d60009054906101000a900473ffffffffffffffffffffffffffffffffffffffff1673ffffffffffffffffffffffffffffffffffffffff166323b872dd8888886040518463ffffffff1660e01b8152600401808473ffffffffffffffffffffffffffffffffffffffff1673ffffffffffffffffffffffffffffffffffffffff1681526020018373ffffffffffffffffffffffffffffffffffffffff1673ffffffffffffffffffffffffffffffffffffffff1681526020018281526020019350505050602060405180830381600087803b158015611f0a57600080fd5b505af1158015611f1e573d6000803e3d6000fd5b505050506040513d6020811015611f3457600080fd5b810190808051906020019092919050505093505050509392505050565b6000838311158290611ffe576040517f08c379a00000000000000000000000000000000000000000000000000000000081526004018080602001828103825283818151815260200191508051906020019080838360005b83811015611fc3578082015181840152602081019050611fa8565b50505050905090810190601f168015611ff05780820380516001836020036101000a031916815260200191505b509250505060405180910390fd5b5060008385039050809150509392505050565b600080831182906120bd576040517f08c379a00000000000000000000000000000000000000000000000000000000081526004018080602001828103825283818151815260200191508051906020019080838360005b83811015612082578082015181840152602081019050612067565b50505050905090810190601f1680156120af5780820380516001836020036101000a031916815260200191505b509250505060405180910390fd5b5060008385816120c957fe5b04905080915050939250505056fe46657374616b696e673a204d616b65207375726520746f2061646420656e6f75676820616c6c6f77616e636546657374616b696e673a20776974686472617761626c6520616d6f756e742063616e6e6f74206265206e6567617469766546657374616b696e673a206261642074696d696e6720666f72207468652072657175657374536166654d6174683a206d756c7469706c69636174696f6e206f766572666c6f7746657374616b696e673a20776974686472617761626c6520616d6f756e74206d757374206265206c657373207468616e206f7220657175616c20746f207468652072657761726420616d6f756e7446657374616b696e673a20726577617264206d75737420626520706f73697469766546657374616b696e673a20746869732077696c6c20696e637265617365207374616b696e6720616d6f756e7420706173732074686520636170a2646970667358221220ba35e4ac937dd96b2d823183e5795985fb00d7996221086461f6660e72a858e364736f6c6343000602003346657374616b696e673a207374616b696e6720656e64206d757374206265206166746572207374616b696e672073746172747346657374616b696e673a207769746864726177456e6473206d7573742062652061667465722077697468647261772073746172747346657374616b696e673a207374616b696e67436170206d75737420626520706f73697469766546657374616b696e673a207769746864726177537461727473206d757374206265206166746572207374616b696e6720656e647346657374616b696e673a207a65726f207374616b696e672073746172742074696d65",
  "source": "// SPDX-License-Identifier: MIT\r\npragma solidity >=0.4.21 <0.7.0;\r\n\r\nimport \"@openzeppelin/contracts/token/ERC20/ERC20.sol\";\r\nimport \"@openzeppelin/contracts/math/SafeMath.sol\";\r\ncontract Staking {\r\n    using SafeMath for uint256;\r\n\r\n    mapping (address => uint256) private _stakes;\r\n\r\n    string public name;\r\n    address  public tokenAddress;\r\n    uint public stakingStarts;\r\n    uint public stakingEnds;\r\n    uint public withdrawStarts;\r\n    uint public withdrawEnds;\r\n    uint256 public stakedTotal;\r\n    uint256 public stakingCap;\r\n    uint256 public totalReward;\r\n    uint256 public earlyWithdrawReward;\r\n    uint256 public rewardBalance;\r\n    uint256 public stakedBalance;\r\n\r\n    ERC20 public ERC20Interface;\r\n    event Staked(address indexed token, address indexed staker_, uint256 requestedAmount_, uint256 stakedAmount_);\r\n    event PaidOut(address indexed token, address indexed staker_, uint256 amount_, uint256 reward_);\r\n    event Refunded(address indexed token, address indexed staker_, uint256 amount_);\r\n\r\n    /**\r\n     */\r\n    constructor (string memory name_,\r\n        address tokenAddress_,\r\n        uint stakingStarts_,\r\n        uint stakingEnds_,\r\n        uint withdrawStarts_,\r\n        uint withdrawEnds_,\r\n        uint256 stakingCap_) public {\r\n        name = name_;\r\n        require(tokenAddress_ != address(0), \"Festaking: 0 address\");\r\n        tokenAddress = tokenAddress_;\r\n\r\n        require(stakingStarts_ > 0, \"Festaking: zero staking start time\");\r\n        if (stakingStarts_ < now) {\r\n            stakingStarts = now;\r\n        } else {\r\n            stakingStarts = stakingStarts_;\r\n        }\r\n\r\n        require(stakingEnds_ > stakingStarts, \"Festaking: staking end must be after staking starts\");\r\n        stakingEnds = stakingEnds_;\r\n\r\n        require(withdrawStarts_ >= stakingEnds, \"Festaking: withdrawStarts must be after staking ends\");\r\n        withdrawStarts = withdrawStarts_;\r\n\r\n        require(withdrawEnds_ > withdrawStarts, \"Festaking: withdrawEnds must be after withdraw starts\");\r\n        withdrawEnds = withdrawEnds_;\r\n\r\n        require(stakingCap_ > 0, \"Festaking: stakingCap must be positive\");\r\n        stakingCap = stakingCap_;\r\n    }\r\n\r\n    function addReward(uint256 rewardAmount, uint256 withdrawableAmount)\r\n    public\r\n    _before(withdrawStarts)\r\n    _hasAllowance(msg.sender, rewardAmount)\r\n    returns (bool) {\r\n        require(rewardAmount > 0, \"Festaking: reward must be positive\");\r\n        require(withdrawableAmount >= 0, \"Festaking: withdrawable amount cannot be negative\");\r\n        require(withdrawableAmount <= rewardAmount, \"Festaking: withdrawable amount must be less than or equal to the reward amount\");\r\n        address from = msg.sender;\r\n        if (!_payMe(from, rewardAmount)) {\r\n            return false;\r\n        }\r\n\r\n        totalReward = totalReward.add(rewardAmount);\r\n        rewardBalance = totalReward;\r\n        earlyWithdrawReward = earlyWithdrawReward.add(withdrawableAmount);\r\n        return true;\r\n    }\r\n\r\n    function stakeOf(address account) public view returns (uint256) {\r\n        return _stakes[account];\r\n    }\r\n\r\n    /**\r\n    * Requirements:\r\n    * - `amount` Amount to be staked\r\n    */\r\n    function stake(uint256 amount)\r\n    public\r\n    _positive(amount)\r\n    _realAddress(msg.sender)\r\n    returns (bool) {\r\n        address from = msg.sender;\r\n        return _stake(from, amount);\r\n    }\r\n\r\n    function withdraw(uint256 amount)\r\n    public\r\n    _after(withdrawStarts)\r\n    _positive(amount)\r\n    _realAddress(msg.sender)\r\n    returns (bool) {\r\n        address from = msg.sender;\r\n        require(amount <= _stakes[from], \"Festaking: not enough balance\");\r\n        if (now < withdrawEnds) {\r\n            return _withdrawEarly(from, amount);\r\n        } else {\r\n            return _withdrawAfterClose(from, amount);\r\n        }\r\n    }\r\n\r\n    function _withdrawEarly(address from, uint256 amount)\r\n    private\r\n    _realAddress(from)\r\n    returns (bool) {\r\n        // This is the formula to calculate reward:\r\n        // r = (earlyWithdrawReward / stakedTotal) * (now - stakingEnds) / (withdrawEnds - stakingEnds)\r\n        // w = (1+r) * a\r\n        uint256 denom = (withdrawEnds.sub(stakingEnds)).mul(stakedTotal);\r\n        uint256 reward = (\r\n        ( (now.sub(stakingEnds)).mul(earlyWithdrawReward) ).mul(amount)\r\n        ).div(denom);\r\n        uint256 payOut = amount.add(reward);\r\n        rewardBalance = rewardBalance.sub(reward);\r\n        stakedBalance = stakedBalance.sub(amount);\r\n        _stakes[from] = _stakes[from].sub(amount);\r\n        if (_payDirect(from, payOut)) {\r\n            emit PaidOut(tokenAddress, from, amount, reward);\r\n            return true;\r\n        }\r\n        return false;\r\n    }\r\n\r\n    function _withdrawAfterClose(address from, uint256 amount)\r\n    private\r\n    _realAddress(from)\r\n    returns (bool) {\r\n        uint256 reward = (rewardBalance.mul(amount)).div(stakedBalance);\r\n        uint256 payOut = amount.add(reward);\r\n        _stakes[from] = _stakes[from].sub(amount);\r\n        if (_payDirect(from, payOut)) {\r\n            emit PaidOut(tokenAddress, from, amount, reward);\r\n            return true;\r\n        }\r\n        return false;\r\n    }\r\n\r\n    function _stake(address staker, uint256 amount)\r\n    private\r\n    _after(stakingStarts)\r\n    _before(stakingEnds)\r\n    _positive(amount)\r\n    _hasAllowance(staker, amount)\r\n    returns (bool) {\r\n        // check the remaining amount to be staked\r\n        uint256 remaining = amount;\r\n        if (remaining > (stakingCap.sub(stakedBalance))) {\r\n            remaining = stakingCap.sub(stakedBalance);\r\n        }\r\n        // These requires are not necessary, because it will never happen, but won't hurt to double check\r\n        // this is because stakedTotal and stakedBalance are only modified in this method during the staking period\r\n        require(remaining > 0, \"Festaking: Staking cap is filled\");\r\n        require((remaining + stakedTotal) <= stakingCap, \"Festaking: this will increase staking amount pass the cap\");\r\n        if (!_payMe(staker, remaining)) {\r\n            return false;\r\n        }\r\n        emit Staked(tokenAddress, staker, amount, remaining);\r\n\r\n        if (remaining < amount) {\r\n            // Return the unstaked amount to sender (from allowance)\r\n            uint256 refund = amount.sub(remaining);\r\n            if (_payTo(staker, staker, refund)) {\r\n                emit Refunded(tokenAddress, staker, refund);\r\n            }\r\n        }\r\n\r\n        // Transfer is completed\r\n        stakedBalance = stakedBalance.add(remaining);\r\n        stakedTotal = stakedTotal.add(remaining);\r\n        _stakes[staker] = _stakes[staker].add(remaining);\r\n        return true;\r\n    }\r\n\r\n    function _payMe(address payer, uint256 amount)\r\n    private\r\n    returns (bool) {\r\n        return _payTo(payer, address(this), amount);\r\n    }\r\n\r\n    function _payTo(address allower, address receiver, uint256 amount)\r\n    _hasAllowance(allower, amount)\r\n    private\r\n    returns (bool) {\r\n        // Request to transfer amount from the contract to receiver.\r\n        // contract does not own the funds, so the allower must have added allowance to the contract\r\n        // Allower is the original owner.\r\n        ERC20Interface = ERC20(tokenAddress);\r\n        return ERC20Interface.transferFrom(allower, receiver, amount);\r\n    }\r\n\r\n    function _payDirect(address to, uint256 amount)\r\n    private\r\n    _positive(amount)\r\n    returns (bool) {\r\n        ERC20Interface = ERC20(tokenAddress);\r\n        return ERC20Interface.transfer(to, amount);\r\n    }\r\n\r\n    modifier _realAddress(address addr) {\r\n        require(addr != address(0), \"Festaking: zero address\");\r\n        _;\r\n    }\r\n\r\n    modifier _positive(uint256 amount) {\r\n        require(amount >= 0, \"Festaking: negative amount\");\r\n        _;\r\n    }\r\n\r\n    modifier _after(uint eventTime) {\r\n        require(now >= eventTime, \"Festaking: bad timing for the request\");\r\n        _;\r\n    }\r\n\r\n    modifier _before(uint eventTime) {\r\n        require(now < eventTime, \"Festaking: bad timing for the request\");\r\n        _;\r\n    }\r\n\r\n    modifier _hasAllowance(address allower, uint256 amount) {\r\n        // Make sure the allower has provided the right allowance.\r\n        ERC20Interface = ERC20(tokenAddress);\r\n        uint256 ourAllowance = ERC20Interface.allowance(allower, address(this));\r\n        require(amount <= ourAllowance, \"Festaking: Make sure to add enough allowance\");\r\n        _;\r\n    }\r\n}\r\n",
  "sourcePath": "C:/Users/horla/OneDrive/Documents/staking/contracts/Staking.sol",
  "compiler": {
    "name": "solc",
    "version": "0.6.2+commit.bacdbe57.Emscripten.clang"
  },
  "schemaVersion": "3.2.3",
  "updatedAt": "2020-08-17T12:47:21.046Z",
  "networkType": "ethereum",
  "devdoc": {
    "methods": {}
  },
  "userdoc": {
    "methods": {
      "stake(uint256)": {
        "notice": "Requirements: - `amount` Amount to be staked"
      }
    }
  }
}