{
  "contractName": "Staking",
  "abi": [
    {
      "inputs": [
        {
          "internalType": "string",
          "name": "tokenName_",
          "type": "string"
        },
        {
          "internalType": "address",
          "name": "tokenAddress_",
          "type": "address"
        },
        {
          "internalType": "uint256",
          "name": "stakingStarts_",
          "type": "uint256"
        },
        {
          "internalType": "uint256",
          "name": "stakingEnds_",
          "type": "uint256"
        },
        {
          "internalType": "uint256",
          "name": "withdrawStarts_",
          "type": "uint256"
        },
        {
          "internalType": "uint256",
          "name": "withdrawEnds_",
          "type": "uint256"
        },
        {
          "internalType": "uint256",
          "name": "stakingTotal_",
          "type": "uint256"
        }
      ],
      "stateMutability": "nonpayable",
      "type": "constructor"
    },
    {
      "anonymous": false,
      "inputs": [
        {
          "indexed": true,
          "internalType": "address",
          "name": "token",
          "type": "address"
        },
        {
          "indexed": true,
          "internalType": "address",
          "name": "staker_",
          "type": "address"
        },
        {
          "indexed": false,
          "internalType": "uint256",
          "name": "amount_",
          "type": "uint256"
        },
        {
          "indexed": false,
          "internalType": "uint256",
          "name": "reward_",
          "type": "uint256"
        }
      ],
      "name": "PaidOut",
      "type": "event"
    },
    {
      "anonymous": false,
      "inputs": [
        {
          "indexed": true,
          "internalType": "address",
          "name": "token",
          "type": "address"
        },
        {
          "indexed": true,
          "internalType": "address",
          "name": "staker_",
          "type": "address"
        },
        {
          "indexed": false,
          "internalType": "uint256",
          "name": "amount_",
          "type": "uint256"
        }
      ],
      "name": "Refunded",
      "type": "event"
    },
    {
      "anonymous": false,
      "inputs": [
        {
          "indexed": true,
          "internalType": "address",
          "name": "token",
          "type": "address"
        },
        {
          "indexed": true,
          "internalType": "address",
          "name": "staker_",
          "type": "address"
        },
        {
          "indexed": false,
          "internalType": "uint256",
          "name": "requestedAmount_",
          "type": "uint256"
        },
        {
          "indexed": false,
          "internalType": "uint256",
          "name": "stakedAmount_",
          "type": "uint256"
        }
      ],
      "name": "Staked",
      "type": "event"
    },
    {
      "inputs": [],
      "name": "ERC20Interface",
      "outputs": [
        {
          "internalType": "contract ERC20",
          "name": "",
          "type": "address"
        }
      ],
      "stateMutability": "view",
      "type": "function"
    },
    {
      "inputs": [],
      "name": "earlyWithdrawReward",
      "outputs": [
        {
          "internalType": "uint256",
          "name": "",
          "type": "uint256"
        }
      ],
      "stateMutability": "view",
      "type": "function"
    },
    {
      "inputs": [],
      "name": "rewardBalance",
      "outputs": [
        {
          "internalType": "uint256",
          "name": "",
          "type": "uint256"
        }
      ],
      "stateMutability": "view",
      "type": "function"
    },
    {
      "inputs": [],
      "name": "stakeBalance",
      "outputs": [
        {
          "internalType": "uint256",
          "name": "",
          "type": "uint256"
        }
      ],
      "stateMutability": "view",
      "type": "function"
    },
    {
      "inputs": [],
      "name": "stakedBalance",
      "outputs": [
        {
          "internalType": "uint256",
          "name": "",
          "type": "uint256"
        }
      ],
      "stateMutability": "view",
      "type": "function"
    },
    {
      "inputs": [],
      "name": "stakedTotal",
      "outputs": [
        {
          "internalType": "uint256",
          "name": "",
          "type": "uint256"
        }
      ],
      "stateMutability": "view",
      "type": "function"
    },
    {
      "inputs": [],
      "name": "stakingEnds",
      "outputs": [
        {
          "internalType": "uint256",
          "name": "",
          "type": "uint256"
        }
      ],
      "stateMutability": "view",
      "type": "function"
    },
    {
      "inputs": [],
      "name": "stakingStarts",
      "outputs": [
        {
          "internalType": "uint256",
          "name": "",
          "type": "uint256"
        }
      ],
      "stateMutability": "view",
      "type": "function"
    },
    {
      "inputs": [],
      "name": "stakingTotal",
      "outputs": [
        {
          "internalType": "uint256",
          "name": "",
          "type": "uint256"
        }
      ],
      "stateMutability": "view",
      "type": "function"
    },
    {
      "inputs": [],
      "name": "tokenAddress",
      "outputs": [
        {
          "internalType": "address",
          "name": "",
          "type": "address"
        }
      ],
      "stateMutability": "view",
      "type": "function"
    },
    {
      "inputs": [],
      "name": "tokenName",
      "outputs": [
        {
          "internalType": "string",
          "name": "",
          "type": "string"
        }
      ],
      "stateMutability": "view",
      "type": "function"
    },
    {
      "inputs": [],
      "name": "totalReward",
      "outputs": [
        {
          "internalType": "uint256",
          "name": "",
          "type": "uint256"
        }
      ],
      "stateMutability": "view",
      "type": "function"
    },
    {
      "inputs": [],
      "name": "withdrawEnds",
      "outputs": [
        {
          "internalType": "uint256",
          "name": "",
          "type": "uint256"
        }
      ],
      "stateMutability": "view",
      "type": "function"
    },
    {
      "inputs": [],
      "name": "withdrawStarts",
      "outputs": [
        {
          "internalType": "uint256",
          "name": "",
          "type": "uint256"
        }
      ],
      "stateMutability": "view",
      "type": "function"
    },
    {
      "inputs": [
        {
          "internalType": "uint256",
          "name": "amount",
          "type": "uint256"
        }
      ],
      "name": "stake",
      "outputs": [
        {
          "internalType": "bool",
          "name": "",
          "type": "bool"
        }
      ],
      "stateMutability": "payable",
      "type": "function"
    },
    {
      "inputs": [
        {
          "internalType": "address",
          "name": "stakerAddr",
          "type": "address"
        },
        {
          "internalType": "uint256",
          "name": "amount",
          "type": "uint256"
        }
      ],
      "name": "_stakeToken",
      "outputs": [
        {
          "internalType": "bool",
          "name": "",
          "type": "bool"
        }
      ],
      "stateMutability": "nonpayable",
      "type": "function"
    },
    {
      "inputs": [
        {
          "internalType": "uint256",
          "name": "rewardAmount",
          "type": "uint256"
        },
        {
          "internalType": "uint256",
          "name": "withdrawableAmount",
          "type": "uint256"
        }
      ],
      "name": "addReward",
      "outputs": [
        {
          "internalType": "bool",
          "name": "",
          "type": "bool"
        }
      ],
      "stateMutability": "nonpayable",
      "type": "function"
    },
    {
      "inputs": [],
      "name": "stakeOf",
      "outputs": [
        {
          "internalType": "address",
          "name": "",
          "type": "address"
        }
      ],
      "stateMutability": "view",
      "type": "function"
    },
    {
      "inputs": [
        {
          "internalType": "uint256",
          "name": "amount",
          "type": "uint256"
        }
      ],
      "name": "withdraw",
      "outputs": [
        {
          "internalType": "bool",
          "name": "",
          "type": "bool"
        }
      ],
      "stateMutability": "nonpayable",
      "type": "function"
    }
  ],
  "bytecode": "0x60806040523480156200001157600080fd5b506040516200296e3803806200296e833981810160405260e08110156200003757600080fd5b81019080805160405193929190846401000000008211156200005857600080fd5b838201915060208201858111156200006f57600080fd5b82518660018202830111640100000000821117156200008d57600080fd5b8083526020830192505050908051906020019080838360005b83811015620000c3578082015181840152602081019050620000a6565b50505050905090810190601f168015620000f15780820380516001836020036101000a031916815260200191505b5060405260200180519060200190929190805190602001909291908051906020019092919080519060200190929190805190602001909291908051906020019092919050505086600190805190602001906200014f92919062000447565b50600073ffffffffffffffffffffffffffffffffffffffff168673ffffffffffffffffffffffffffffffffffffffff161415620001f4576040517f08c379a00000000000000000000000000000000000000000000000000000000081526004018080602001828103825260148152602001807f46657374616b696e673a2030206164647265737300000000000000000000000081525060200191505060405180910390fd5b85600260006101000a81548173ffffffffffffffffffffffffffffffffffffffff021916908373ffffffffffffffffffffffffffffffffffffffff1602179055506000851162000290576040517f08c379a00000000000000000000000000000000000000000000000000000000081526004018080602001828103825260228152602001806200294c6022913960400191505060405180910390fd5b42851015620002a65742600381905550620002ae565b846003819055505b60035484116200030a576040517f08c379a0000000000000000000000000000000000000000000000000000000008152600401808060200182810382526033815260200180620028b06033913960400191505060405180910390fd5b83600481905550600081116200036c576040517f08c379a0000000000000000000000000000000000000000000000000000000008152600401808060200182810382526028815260200180620028886028913960400191505060405180910390fd5b80600581905550600454831015620003d0576040517f08c379a0000000000000000000000000000000000000000000000000000000008152600401808060200182810382526034815260200180620029186034913960400191505060405180910390fd5b82600881905550600854821162000433576040517f08c379a0000000000000000000000000000000000000000000000000000000008152600401808060200182810382526035815260200180620028e36035913960400191505060405180910390fd5b8160098190555050505050505050620004f6565b828054600181600116156101000203166002900490600052602060002090601f016020900481019282601f106200048a57805160ff1916838001178555620004bb565b82800160010185558215620004bb579182015b82811115620004ba5782518255916020019190600101906200049d565b5b509050620004ca9190620004ce565b5090565b620004f391905b80821115620004ef576000816000905550600101620004d5565b5090565b90565b61238280620005066000396000f3fe6080604052600436106101145760003560e01c8063750142e6116100a0578063aa5c3ab411610064578063aa5c3ab4146104ed578063b410e2a114610518578063d66692a714610543578063d6960d121461056e578063eacebf61146105c557610114565b8063750142e61461039d57806375c93bb9146103c857806393bc9dfe146104255780639d76ea5814610450578063a694fc3a146104a757610114565b80633f7fd60a116100e75780633f7fd60a1461021957806343746adc146102445780635b9f0016146102b75780636c02a931146102e25780636d68c7d41461037257610114565b80630d267fb2146101195780631bbc4b831461014457806321b13cdf1461019b5780632e1a7d4d146101c6575b600080fd5b34801561012557600080fd5b5061012e6105f0565b6040518082815260200191505060405180910390f35b34801561015057600080fd5b506101596105f6565b604051808273ffffffffffffffffffffffffffffffffffffffff1673ffffffffffffffffffffffffffffffffffffffff16815260200191505060405180910390f35b3480156101a757600080fd5b506101b061061c565b6040518082815260200191505060405180910390f35b3480156101d257600080fd5b506101ff600480360360208110156101e957600080fd5b8101908080359060200190929190505050610622565b604051808215151515815260200191505060405180910390f35b34801561022557600080fd5b5061022e610886565b6040518082815260200191505060405180910390f35b34801561025057600080fd5b5061029d6004803603604081101561026757600080fd5b81019080803573ffffffffffffffffffffffffffffffffffffffff1690602001909291908035906020019092919050505061088c565b604051808215151515815260200191505060405180910390f35b3480156102c357600080fd5b506102cc610eb5565b6040518082815260200191505060405180910390f35b3480156102ee57600080fd5b506102f7610ebb565b6040518080602001828103825283818151815260200191508051906020019080838360005b8381101561033757808201518184015260208101905061031c565b50505050905090810190601f1680156103645780820380516001836020036101000a031916815260200191505b509250505060405180910390f35b34801561037e57600080fd5b50610387610f59565b6040518082815260200191505060405180910390f35b3480156103a957600080fd5b506103b2610f5f565b6040518082815260200191505060405180910390f35b3480156103d457600080fd5b5061040b600480360360408110156103eb57600080fd5b810190808035906020019092919080359060200190929190505050610f65565b604051808215151515815260200191505060405180910390f35b34801561043157600080fd5b5061043a61130a565b6040518082815260200191505060405180910390f35b34801561045c57600080fd5b50610465611310565b604051808273ffffffffffffffffffffffffffffffffffffffff1673ffffffffffffffffffffffffffffffffffffffff16815260200191505060405180910390f35b6104d3600480360360208110156104bd57600080fd5b8101908080359060200190929190505050611336565b604051808215151515815260200191505060405180910390f35b3480156104f957600080fd5b5061050261146c565b6040518082815260200191505060405180910390f35b34801561052457600080fd5b5061052d611472565b6040518082815260200191505060405180910390f35b34801561054f57600080fd5b50610558611478565b6040518082815260200191505060405180910390f35b34801561057a57600080fd5b5061058361147e565b604051808273ffffffffffffffffffffffffffffffffffffffff1673ffffffffffffffffffffffffffffffffffffffff16815260200191505060405180910390f35b3480156105d157600080fd5b506105da6114a8565b6040518082815260200191505060405180910390f35b60055481565b600e60009054906101000a900473ffffffffffffffffffffffffffffffffffffffff1681565b60085481565b600060085480421015610680576040517f08c379a000000000000000000000000000000000000000000000000000000000815260040180806020018281038252602581526020018061225e6025913960400191505060405180910390fd5b82600281116106f7576040517f08c379a000000000000000000000000000000000000000000000000000000000815260040180806020018281038252601a8152602001807f46657374616b696e673a206e6567617469766520616d6f756e7400000000000081525060200191505060405180910390fd5b33600073ffffffffffffffffffffffffffffffffffffffff168173ffffffffffffffffffffffffffffffffffffffff16141561079b576040517f08c379a00000000000000000000000000000000000000000000000000000000081526004018080602001828103825260178152602001807f46657374616b696e673a207a65726f206164647265737300000000000000000081525060200191505060405180910390fd5b60003390506000808273ffffffffffffffffffffffffffffffffffffffff1673ffffffffffffffffffffffffffffffffffffffff16815260200190815260200160002054861115610854576040517f08c379a000000000000000000000000000000000000000000000000000000000815260040180806020018281038252601d8152602001807f46657374616b696e673a206e6f7420656e6f7567682062616c616e636500000081525060200191505060405180910390fd5b6009544210156108705761086881876114ae565b94505061087e565b61087a818761176d565b9450505b505050919050565b600b5481565b6000600354804210156108ea576040517f08c379a000000000000000000000000000000000000000000000000000000000815260040180806020018281038252602581526020018061225e6025913960400191505060405180910390fd5b600454804210610945576040517f08c379a000000000000000000000000000000000000000000000000000000000815260040180806020018281038252602581526020018061225e6025913960400191505060405180910390fd5b83600281116109bc576040517f08c379a000000000000000000000000000000000000000000000000000000000815260040180806020018281038252601a8152602001807f46657374616b696e673a206e6567617469766520616d6f756e7400000000000081525060200191505060405180910390fd5b8585600260009054906101000a900473ffffffffffffffffffffffffffffffffffffffff16600e60006101000a81548173ffffffffffffffffffffffffffffffffffffffff021916908373ffffffffffffffffffffffffffffffffffffffff1602179055506000600e60009054906101000a900473ffffffffffffffffffffffffffffffffffffffff1673ffffffffffffffffffffffffffffffffffffffff1663dd62ed3e84306040518363ffffffff1660e01b8152600401808373ffffffffffffffffffffffffffffffffffffffff1673ffffffffffffffffffffffffffffffffffffffff1681526020018273ffffffffffffffffffffffffffffffffffffffff1673ffffffffffffffffffffffffffffffffffffffff1681526020019250505060206040518083038186803b158015610af657600080fd5b505afa158015610b0a573d6000803e3d6000fd5b505050506040513d6020811015610b2057600080fd5b8101908080519060200190929190505050905080821115610b8c576040517f08c379a000000000000000000000000000000000000000000000000000000000815260040180806020018281038252602c815260200180612201602c913960400191505060405180910390fd5b60008890508060055403811115610ba557806005540390505b60008111610c1b576040517f08c379a00000000000000000000000000000000000000000000000000000000081526004018080602001828103825260208152602001807f46657374616b696e673a205374616b696e67206361702069732066696c6c656481525060200191505060405180910390fd5b60055460075482011115610c7a576040517f08c379a00000000000000000000000000000000000000000000000000000000081526004018080602001828103825260398152602001806123146039913960400191505060405180910390fd5b610c848a826119a1565b610c92576000975050610ea9565b8973ffffffffffffffffffffffffffffffffffffffff16600260009054906101000a900473ffffffffffffffffffffffffffffffffffffffff1673ffffffffffffffffffffffffffffffffffffffff167f6c86f3fd5118b3aa8bb4f389a617046de0a3d3d477de1a1673d227f802f616dc8b84604051808381526020018281526020019250505060405180910390a388811015610dda576000610d3e828b6119b690919063ffffffff16565b9050610d4b8b8c83611a00565b15610dd8578a73ffffffffffffffffffffffffffffffffffffffff16600260009054906101000a900473ffffffffffffffffffffffffffffffffffffffff1673ffffffffffffffffffffffffffffffffffffffff167fec1e5ed733e00f1a00915d56caef57b4f52312dde4f9b3165f213319a0da156b836040518082815260200191505060405180910390a35b505b610def81600754611d5990919063ffffffff16565b600781905550610e0a81600754611d5990919063ffffffff16565b600781905550610e61816000808d73ffffffffffffffffffffffffffffffffffffffff1673ffffffffffffffffffffffffffffffffffffffff16815260200190815260200160002054611d5990919063ffffffff16565b6000808c73ffffffffffffffffffffffffffffffffffffffff1673ffffffffffffffffffffffffffffffffffffffff1681526020019081526020016000208190555060019750505b50505050505092915050565b600d5481565b60018054600181600116156101000203166002900480601f016020809104026020016040519081016040528092919081815260200182805460018160011615610100020316600290048015610f515780601f10610f2657610100808354040283529160200191610f51565b820191906000526020600020905b815481529060010190602001808311610f3457829003601f168201915b505050505081565b60035481565b600a5481565b6000600854804210610fc2576040517f08c379a000000000000000000000000000000000000000000000000000000000815260040180806020018281038252602581526020018061225e6025913960400191505060405180910390fd5b3384600260009054906101000a900473ffffffffffffffffffffffffffffffffffffffff16600e60006101000a81548173ffffffffffffffffffffffffffffffffffffffff021916908373ffffffffffffffffffffffffffffffffffffffff1602179055506000600e60009054906101000a900473ffffffffffffffffffffffffffffffffffffffff1673ffffffffffffffffffffffffffffffffffffffff1663dd62ed3e84306040518363ffffffff1660e01b8152600401808373ffffffffffffffffffffffffffffffffffffffff1673ffffffffffffffffffffffffffffffffffffffff1681526020018273ffffffffffffffffffffffffffffffffffffffff1673ffffffffffffffffffffffffffffffffffffffff1681526020019250505060206040518083038186803b1580156110fc57600080fd5b505afa158015611110573d6000803e3d6000fd5b505050506040513d602081101561112657600080fd5b8101908080519060200190929190505050905080821115611192576040517f08c379a000000000000000000000000000000000000000000000000000000000815260040180806020018281038252602c815260200180612201602c913960400191505060405180910390fd5b600087116111eb576040517f08c379a00000000000000000000000000000000000000000000000000000000081526004018080602001828103825260228152602001806122f26022913960400191505060405180910390fd5b6000861015611245576040517f08c379a000000000000000000000000000000000000000000000000000000000815260040180806020018281038252603181526020018061222d6031913960400191505060405180910390fd5b8686111561129e576040517f08c379a000000000000000000000000000000000000000000000000000000000815260040180806020018281038252604e8152602001806122a4604e913960600191505060405180910390fd5b60003390506112ad81896119a1565b6112bb576000955050611300565b6112d088600a54611d5990919063ffffffff16565b600a81905550600a54600c819055506112f487600b54611d5990919063ffffffff16565b600b8190555060019550505b5050505092915050565b60065481565b600260009054906101000a900473ffffffffffffffffffffffffffffffffffffffff1681565b600081600281116113af576040517f08c379a000000000000000000000000000000000000000000000000000000000815260040180806020018281038252601a8152602001807f46657374616b696e673a206e6567617469766520616d6f756e7400000000000081525060200191505060405180910390fd5b33600073ffffffffffffffffffffffffffffffffffffffff168173ffffffffffffffffffffffffffffffffffffffff161415611453576040517f08c379a00000000000000000000000000000000000000000000000000000000081526004018080602001828103825260178152602001807f46657374616b696e673a207a65726f206164647265737300000000000000000081525060200191505060405180910390fd5b6000339050611462818661088c565b9350505050919050565b600c5481565b60045481565b60075481565b6000600260009054906101000a900473ffffffffffffffffffffffffffffffffffffffff16905090565b60095481565b600082600073ffffffffffffffffffffffffffffffffffffffff168173ffffffffffffffffffffffffffffffffffffffff161415611554576040517f08c379a00000000000000000000000000000000000000000000000000000000081526004018080602001828103825260178152602001807f46657374616b696e673a207a65726f206164647265737300000000000000000081525060200191505060405180910390fd5b60006115816007546115736004546009546119b690919063ffffffff16565b611de190919063ffffffff16565b905060006115d2826115c4876115b6600b546115a8600454426119b690919063ffffffff16565b611de190919063ffffffff16565b611de190919063ffffffff16565b611e6790919063ffffffff16565b905060006115e98287611d5990919063ffffffff16565b905061160082600c546119b690919063ffffffff16565b600c8190555061161b86600d546119b690919063ffffffff16565b600d81905550611672866000808a73ffffffffffffffffffffffffffffffffffffffff1673ffffffffffffffffffffffffffffffffffffffff168152602001908152602001600020546119b690919063ffffffff16565b6000808973ffffffffffffffffffffffffffffffffffffffff1673ffffffffffffffffffffffffffffffffffffffff168152602001908152602001600020819055506116be8782611eb1565b1561175e578673ffffffffffffffffffffffffffffffffffffffff16600260009054906101000a900473ffffffffffffffffffffffffffffffffffffffff1673ffffffffffffffffffffffffffffffffffffffff167f85ab59351da11b79336de7647172267c33bf533ee87d9d292441c2672177159b8885604051808381526020018281526020019250505060405180910390a360019450505050611766565b600094505050505b5092915050565b600082600073ffffffffffffffffffffffffffffffffffffffff168173ffffffffffffffffffffffffffffffffffffffff161415611813576040517f08c379a00000000000000000000000000000000000000000000000000000000081526004018080602001828103825260178152602001807f46657374616b696e673a207a65726f206164647265737300000000000000000081525060200191505060405180910390fd5b600061183e600d5461183086600c54611de190919063ffffffff16565b611e6790919063ffffffff16565b905060006118558286611d5990919063ffffffff16565b90506118a8856000808973ffffffffffffffffffffffffffffffffffffffff1673ffffffffffffffffffffffffffffffffffffffff168152602001908152602001600020546119b690919063ffffffff16565b6000808873ffffffffffffffffffffffffffffffffffffffff1673ffffffffffffffffffffffffffffffffffffffff168152602001908152602001600020819055506118f48682611eb1565b15611993578573ffffffffffffffffffffffffffffffffffffffff16600260009054906101000a900473ffffffffffffffffffffffffffffffffffffffff1673ffffffffffffffffffffffffffffffffffffffff167f85ab59351da11b79336de7647172267c33bf533ee87d9d292441c2672177159b8785604051808381526020018281526020019250505060405180910390a360019350505061199a565b6000935050505b5092915050565b60006119ae833084611a00565b905092915050565b60006119f883836040518060400160405280601e81526020017f536166654d6174683a207375627472616374696f6e206f766572666c6f77000081525061207a565b905092915050565b60008382600260009054906101000a900473ffffffffffffffffffffffffffffffffffffffff16600e60006101000a81548173ffffffffffffffffffffffffffffffffffffffff021916908373ffffffffffffffffffffffffffffffffffffffff1602179055506000600e60009054906101000a900473ffffffffffffffffffffffffffffffffffffffff1673ffffffffffffffffffffffffffffffffffffffff1663dd62ed3e84306040518363ffffffff1660e01b8152600401808373ffffffffffffffffffffffffffffffffffffffff1673ffffffffffffffffffffffffffffffffffffffff1681526020018273ffffffffffffffffffffffffffffffffffffffff1673ffffffffffffffffffffffffffffffffffffffff1681526020019250505060206040518083038186803b158015611b3c57600080fd5b505afa158015611b50573d6000803e3d6000fd5b505050506040513d6020811015611b6657600080fd5b8101908080519060200190929190505050905080821115611bd2576040517f08c379a000000000000000000000000000000000000000000000000000000000815260040180806020018281038252602c815260200180612201602c913960400191505060405180910390fd5b600260009054906101000a900473ffffffffffffffffffffffffffffffffffffffff16600e60006101000a81548173ffffffffffffffffffffffffffffffffffffffff021916908373ffffffffffffffffffffffffffffffffffffffff160217905550600e60009054906101000a900473ffffffffffffffffffffffffffffffffffffffff1673ffffffffffffffffffffffffffffffffffffffff166323b872dd8888886040518463ffffffff1660e01b8152600401808473ffffffffffffffffffffffffffffffffffffffff1673ffffffffffffffffffffffffffffffffffffffff1681526020018373ffffffffffffffffffffffffffffffffffffffff1673ffffffffffffffffffffffffffffffffffffffff1681526020018281526020019350505050602060405180830381600087803b158015611d1257600080fd5b505af1158015611d26573d6000803e3d6000fd5b505050506040513d6020811015611d3c57600080fd5b810190808051906020019092919050505093505050509392505050565b600080828401905083811015611dd7576040517f08c379a000000000000000000000000000000000000000000000000000000000815260040180806020018281038252601b8152602001807f536166654d6174683a206164646974696f6e206f766572666c6f77000000000081525060200191505060405180910390fd5b8091505092915050565b600080831415611df45760009050611e61565b6000828402905082848281611e0557fe5b0414611e5c576040517f08c379a00000000000000000000000000000000000000000000000000000000081526004018080602001828103825260218152602001806122836021913960400191505060405180910390fd5b809150505b92915050565b6000611ea983836040518060400160405280601a81526020017f536166654d6174683a206469766973696f6e206279207a65726f00000000000081525061213a565b905092915050565b60008160028111611f2a576040517f08c379a000000000000000000000000000000000000000000000000000000000815260040180806020018281038252601a8152602001807f46657374616b696e673a206e6567617469766520616d6f756e7400000000000081525060200191505060405180910390fd5b600260009054906101000a900473ffffffffffffffffffffffffffffffffffffffff16600e60006101000a81548173ffffffffffffffffffffffffffffffffffffffff021916908373ffffffffffffffffffffffffffffffffffffffff160217905550600e60009054906101000a900473ffffffffffffffffffffffffffffffffffffffff1673ffffffffffffffffffffffffffffffffffffffff1663a9059cbb85856040518363ffffffff1660e01b8152600401808373ffffffffffffffffffffffffffffffffffffffff1673ffffffffffffffffffffffffffffffffffffffff16815260200182815260200192505050602060405180830381600087803b15801561203657600080fd5b505af115801561204a573d6000803e3d6000fd5b505050506040513d602081101561206057600080fd5b810190808051906020019092919050505091505092915050565b6000838311158290612127576040517f08c379a00000000000000000000000000000000000000000000000000000000081526004018080602001828103825283818151815260200191508051906020019080838360005b838110156120ec5780820151818401526020810190506120d1565b50505050905090810190601f1680156121195780820380516001836020036101000a031916815260200191505b509250505060405180910390fd5b5060008385039050809150509392505050565b600080831182906121e6576040517f08c379a00000000000000000000000000000000000000000000000000000000081526004018080602001828103825283818151815260200191508051906020019080838360005b838110156121ab578082015181840152602081019050612190565b50505050905090810190601f1680156121d85780820380516001836020036101000a031916815260200191505b509250505060405180910390fd5b5060008385816121f257fe5b04905080915050939250505056fe46657374616b696e673a204d616b65207375726520746f2061646420656e6f75676820616c6c6f77616e636546657374616b696e673a20776974686472617761626c6520616d6f756e742063616e6e6f74206265206e6567617469766546657374616b696e673a206261642074696d696e6720666f72207468652072657175657374536166654d6174683a206d756c7469706c69636174696f6e206f766572666c6f7746657374616b696e673a20776974686472617761626c6520616d6f756e74206d757374206265206c657373207468616e206f7220657175616c20746f207468652072657761726420616d6f756e7446657374616b696e673a20726577617264206d75737420626520706f73697469766546657374616b696e673a20746869732077696c6c20696e637265617365207374616b696e6720616d6f756e7420706173732074686520636170a26469706673582212204644e65c399e5c0014428f8d7bc35ae8ba56d0d49dd65e04be352f3672822f8c64736f6c6343000602003346657374616b696e673a207374616b696e67546f74616c206d75737420626520706f73697469766546657374616b696e673a207374616b696e6720656e64206d757374206265206166746572207374616b696e672073746172747346657374616b696e673a207769746864726177456e6473206d7573742062652061667465722077697468647261772073746172747346657374616b696e673a207769746864726177537461727473206d757374206265206166746572207374616b696e6720656e647346657374616b696e673a207a65726f207374616b696e672073746172742074696d65",
  "source": "// SPDX-License-Identifier: MIT\r\npragma solidity >=0.6.0;\r\n\r\nimport \"@openzeppelin/contracts/token/ERC20/ERC20.sol\";\r\nimport \"@openzeppelin/contracts/math/SafeMath.sol\";\r\n\r\ncontract Staking {\r\n    using SafeMath for uint256;\r\n\r\n    // map address to user stake \r\n    mapping (address => uint256) stakes;\r\n\r\n    //staking details\r\n    string public tokenName;\r\n    address  public tokenAddress;\r\n    uint public stakingStarts;\r\n    uint public stakingEnds;\r\n    uint public stakingTotal;\r\n    uint public stakeBalance;\r\n    uint public stakedTotal;\r\n    uint public withdrawStarts;\r\n    uint public withdrawEnds;\r\n    uint256 public totalReward;\r\n    uint256 public earlyWithdrawReward;\r\n    uint256 public rewardBalance;\r\n    uint256 public stakedBalance;\r\n\r\n    ERC20 public ERC20Interface;\r\n    event Staked(address indexed token, address indexed staker_, uint256 requestedAmount_, uint256 stakedAmount_);\r\n    event PaidOut(address indexed token, address indexed staker_, uint256 amount_, uint256 reward_);\r\n    event Refunded(address indexed token, address indexed staker_, uint256 amount_);\r\n    \r\n    constructor(\r\n        string memory tokenName_,\r\n        address tokenAddress_,\r\n        uint stakingStarts_,\r\n        uint stakingEnds_,\r\n        uint withdrawStarts_,\r\n        uint withdrawEnds_,\r\n        uint stakingTotal_\r\n    ) public {\r\n        tokenName = tokenName_;\r\n        require(tokenAddress_ != address(0), \"Festaking: 0 address\");\r\n        tokenAddress = tokenAddress_;\r\n\r\n        require(stakingStarts_ > 0, \"Festaking: zero staking start time\");\r\n        if (stakingStarts_ < now) {\r\n            stakingStarts = now;\r\n        } else {\r\n            stakingStarts = stakingStarts_;\r\n        }\r\n\r\n        require(stakingEnds_ > stakingStarts, \"Festaking: staking end must be after staking starts\");\r\n        stakingEnds = stakingEnds_;\r\n\r\n        require(stakingTotal_ > 0, \"Festaking: stakingTotal must be positive\");\r\n        stakingTotal = stakingTotal_;\r\n\r\n        require(withdrawStarts_ >= stakingEnds, \"Festaking: withdrawStarts must be after staking ends\");\r\n        withdrawStarts = withdrawStarts_;\r\n\r\n        require(withdrawEnds_ > withdrawStarts, \"Festaking: withdrawEnds must be after withdraw starts\");\r\n        withdrawEnds = withdrawEnds_;\r\n    }\r\n    \r\n    \r\n\r\n     /**\r\n    * Requirements:\r\n    * - nameOption\r\n     */\r\n    function stake (uint256 amount)\r\n    public\r\n    _positive(amount)\r\n     _realAddress(msg.sender)\r\n    payable\r\n    returns (bool) {\r\n        address sender = msg.sender;\r\n        return _stakeToken(sender,amount);\r\n    }\r\n\r\n    modifier _realAddress(address addr) {\r\n        require(addr != address(0), \"Festaking: zero address\");\r\n        _;\r\n    }\r\n\r\n    modifier _positive(uint256 amount) {\r\n        require(amount > 2, \"Festaking: negative amount\");\r\n        _;\r\n    }\r\n\r\n     modifier _after(uint eventTime) {\r\n        require(now >= eventTime, \"Festaking: bad timing for the request\");\r\n        _;\r\n    }\r\n\r\n    modifier _before(uint eventTime) \r\n    {\r\n        require(now < eventTime, \"Festaking: bad timing for the request\");\r\n        _;\r\n    }\r\n\r\n    modifier _hasEnoughToken(address staker, uint256 amount) {\r\n        ERC20Interface = ERC20(tokenAddress);\r\n        uint256 ourAllowance = ERC20Interface.allowance(staker, address(this));\r\n        require(amount <= ourAllowance, \"Festaking: Make sure to add enough allowance\");\r\n        _;\r\n    }\r\n\r\n    function _stakeToken (address stakerAddr,uint amount) \r\n    public\r\n    _after(stakingStarts)\r\n    _before(stakingEnds)\r\n    _positive(amount)\r\n    _hasEnoughToken(stakerAddr, amount)\r\n    returns (bool)\r\n    {\r\n        uint remainingToken = amount;\r\n        if(remainingToken > (stakingTotal - remainingToken)){\r\n            remainingToken = (stakingTotal - remainingToken);\r\n        }\r\n        require(remainingToken > 0, \"Festaking: Staking cap is filled\");\r\n        require((remainingToken + stakedTotal) <= stakingTotal, \"Festaking: this will increase staking amount pass the cap\");\r\n\r\n        if (!_payMe(stakerAddr, remainingToken)) {\r\n            return false;\r\n        }\r\n        emit Staked(tokenAddress, stakerAddr, amount, remainingToken);\r\n\r\n        if (remainingToken < amount) {\r\n            // Return the unstaked amount to sender (from allowance)\r\n            uint256 refund = amount.sub(remainingToken);\r\n            // pay/refund remaining funds\r\n            if (_payTo(stakerAddr, stakerAddr, refund)) {\r\n                emit Refunded(tokenAddress, stakerAddr, refund);\r\n            }\r\n        }\r\n\r\n        stakedTotal = stakedTotal.add(remainingToken);\r\n        stakedTotal = stakedTotal.add(remainingToken);\r\n        stakes[stakerAddr] = stakes[stakerAddr].add(remainingToken);\r\n        return true;\r\n    }\r\n\r\n    function _payMe(address payer, uint256 amount)\r\n    private\r\n    returns (bool) {\r\n        return _payTo(payer, address(this), amount);\r\n    }\r\n\r\n    function _payTo(address allower, address receiver, uint256 amount)\r\n    _hasAllowance(allower, amount)\r\n    private\r\n    returns (bool) {\r\n        // Request to transfer amount from the contract to receiver.\r\n        // contract does not own the funds, so the allower must have added allowance to the contract\r\n        // Allower is the original owner.\r\n        ERC20Interface = ERC20(tokenAddress);\r\n        return ERC20Interface.transferFrom(allower, receiver, amount);\r\n    }\r\n\r\n    function _payDirect(address to, uint256 amount)\r\n    private\r\n    _positive(amount)\r\n    returns (bool) {\r\n        ERC20Interface = ERC20(tokenAddress);\r\n        return ERC20Interface.transfer(to, amount);\r\n    }\r\n\r\n    function addReward(uint256 rewardAmount, uint256 withdrawableAmount)\r\n    public\r\n    _before(withdrawStarts)\r\n    _hasAllowance(msg.sender, rewardAmount)\r\n    returns (bool) {\r\n        require(rewardAmount > 0, \"Festaking: reward must be positive\");\r\n        require(withdrawableAmount >= 0, \"Festaking: withdrawable amount cannot be negative\");\r\n        require(withdrawableAmount <= rewardAmount, \"Festaking: withdrawable amount must be less than or equal to the reward amount\");\r\n        address from = msg.sender;\r\n        if (!_payMe(from, rewardAmount)) {\r\n            return false;\r\n        }\r\n\r\n        totalReward = totalReward.add(rewardAmount);\r\n        rewardBalance = totalReward;\r\n        earlyWithdrawReward = earlyWithdrawReward.add(withdrawableAmount);\r\n        return true;\r\n    }\r\n\r\n    function stakeOf() public view returns (address) {\r\n        return tokenAddress;\r\n    }\r\n\r\n    function withdraw(uint256 amount)\r\n    public\r\n    _after(withdrawStarts)\r\n    _positive(amount)\r\n    _realAddress(msg.sender)\r\n    returns (bool) {\r\n        address from = msg.sender;\r\n        require(amount <= stakes[from], \"Festaking: not enough balance\");\r\n        if (now < withdrawEnds) {\r\n            return _withdrawEarly(from, amount);\r\n        } else {\r\n            return _withdrawAfterClose(from, amount);\r\n        }\r\n    }\r\n\r\n    function _withdrawEarly(address from, uint256 amount)\r\n    private\r\n    _realAddress(from)\r\n    returns (bool) {\r\n        // This is the formula to calculate reward:\r\n        // r = (earlyWithdrawReward / stakedTotal) * (now - stakingEnds) / (withdrawEnds - stakingEnds)\r\n        // w = (1+r) * a\r\n        uint256 denom = (withdrawEnds.sub(stakingEnds)).mul(stakedTotal);\r\n        uint256 reward = (\r\n        ( (now.sub(stakingEnds)).mul(earlyWithdrawReward) ).mul(amount)\r\n        ).div(denom);\r\n        uint256 payOut = amount.add(reward);\r\n        rewardBalance = rewardBalance.sub(reward);\r\n        stakedBalance = stakedBalance.sub(amount);\r\n        stakes[from] = stakes[from].sub(amount);\r\n        if (_payDirect(from, payOut)) {\r\n            emit PaidOut(tokenAddress, from, amount, reward);\r\n            return true;\r\n        }\r\n        return false;\r\n    }\r\n\r\n    function _withdrawAfterClose(address from, uint256 amount)\r\n    private\r\n    _realAddress(from)\r\n    returns (bool) {\r\n        uint256 reward = (rewardBalance.mul(amount)).div(stakedBalance);\r\n        uint256 payOut = amount.add(reward);\r\n        stakes[from] = stakes[from].sub(amount);\r\n        if (_payDirect(from, payOut)) {\r\n            emit PaidOut(tokenAddress, from, amount, reward);\r\n            return true;\r\n        }\r\n        return false;\r\n    }\r\n\r\n    modifier _hasAllowance(address allower, uint256 amount) {\r\n        // Make sure the allower has provided the right allowance.\r\n        ERC20Interface = ERC20(tokenAddress);\r\n        uint256 ourAllowance = ERC20Interface.allowance(allower, address(this));\r\n        require(amount <= ourAllowance, \"Festaking: Make sure to add enough allowance\");\r\n        _;\r\n    }\r\n}",
  "sourcePath": "C:/Users/horla/OneDrive/Documents/unifyre-staking-app/unifyre-staking-app/contract/contracts/Staking.sol",
  "compiler": {
    "name": "solc",
    "version": "0.6.2+commit.bacdbe57.Emscripten.clang"
  },
  "schemaVersion": "3.2.3",
  "updatedAt": "2020-08-07T16:01:03.938Z",
  "devdoc": {
    "methods": {}
  },
  "userdoc": {
    "methods": {
      "stake(uint256)": {
        "notice": "Requirements: - nameOption"
      }
    }
  }
}