{
  "contractName": "Staking",
  "abi": [
    {
      "inputs": [
        {
          "internalType": "string",
          "name": "tokenName_",
          "type": "string"
        },
        {
          "internalType": "address",
          "name": "tokenAddress_",
          "type": "address"
        },
        {
          "internalType": "uint256",
          "name": "stakingStarts_",
          "type": "uint256"
        },
        {
          "internalType": "uint256",
          "name": "stakingEnds_",
          "type": "uint256"
        },
        {
          "internalType": "uint256",
          "name": "withdrawStarts_",
          "type": "uint256"
        },
        {
          "internalType": "uint256",
          "name": "withdrawEnds_",
          "type": "uint256"
        },
        {
          "internalType": "uint256",
          "name": "stakingTotal_",
          "type": "uint256"
        }
      ],
      "payable": false,
      "stateMutability": "nonpayable",
      "type": "constructor"
    },
    {
      "anonymous": false,
      "inputs": [
        {
          "indexed": true,
          "internalType": "address",
          "name": "token",
          "type": "address"
        },
        {
          "indexed": true,
          "internalType": "address",
          "name": "staker_",
          "type": "address"
        },
        {
          "indexed": false,
          "internalType": "uint256",
          "name": "amount_",
          "type": "uint256"
        },
        {
          "indexed": false,
          "internalType": "uint256",
          "name": "reward_",
          "type": "uint256"
        }
      ],
      "name": "PaidOut",
      "type": "event"
    },
    {
      "anonymous": false,
      "inputs": [
        {
          "indexed": true,
          "internalType": "address",
          "name": "token",
          "type": "address"
        },
        {
          "indexed": true,
          "internalType": "address",
          "name": "staker_",
          "type": "address"
        },
        {
          "indexed": false,
          "internalType": "uint256",
          "name": "amount_",
          "type": "uint256"
        }
      ],
      "name": "Refunded",
      "type": "event"
    },
    {
      "anonymous": false,
      "inputs": [
        {
          "indexed": true,
          "internalType": "address",
          "name": "token",
          "type": "address"
        },
        {
          "indexed": true,
          "internalType": "address",
          "name": "staker_",
          "type": "address"
        },
        {
          "indexed": false,
          "internalType": "uint256",
          "name": "requestedAmount_",
          "type": "uint256"
        },
        {
          "indexed": false,
          "internalType": "uint256",
          "name": "stakedAmount_",
          "type": "uint256"
        }
      ],
      "name": "Staked",
      "type": "event"
    },
    {
      "constant": true,
      "inputs": [],
      "name": "ERC20Interface",
      "outputs": [
        {
          "internalType": "contract ERC20",
          "name": "",
          "type": "address"
        }
      ],
      "payable": false,
      "stateMutability": "view",
      "type": "function"
    },
    {
      "constant": true,
      "inputs": [],
      "name": "earlyWithdrawReward",
      "outputs": [
        {
          "internalType": "uint256",
          "name": "",
          "type": "uint256"
        }
      ],
      "payable": false,
      "stateMutability": "view",
      "type": "function"
    },
    {
      "constant": true,
      "inputs": [],
      "name": "rewardBalance",
      "outputs": [
        {
          "internalType": "uint256",
          "name": "",
          "type": "uint256"
        }
      ],
      "payable": false,
      "stateMutability": "view",
      "type": "function"
    },
    {
      "constant": true,
      "inputs": [],
      "name": "stakeBalance",
      "outputs": [
        {
          "internalType": "uint256",
          "name": "",
          "type": "uint256"
        }
      ],
      "payable": false,
      "stateMutability": "view",
      "type": "function"
    },
    {
      "constant": true,
      "inputs": [],
      "name": "stakedBalance",
      "outputs": [
        {
          "internalType": "uint256",
          "name": "",
          "type": "uint256"
        }
      ],
      "payable": false,
      "stateMutability": "view",
      "type": "function"
    },
    {
      "constant": true,
      "inputs": [],
      "name": "stakedTotal",
      "outputs": [
        {
          "internalType": "uint256",
          "name": "",
          "type": "uint256"
        }
      ],
      "payable": false,
      "stateMutability": "view",
      "type": "function"
    },
    {
      "constant": true,
      "inputs": [],
      "name": "stakingEnds",
      "outputs": [
        {
          "internalType": "uint256",
          "name": "",
          "type": "uint256"
        }
      ],
      "payable": false,
      "stateMutability": "view",
      "type": "function"
    },
    {
      "constant": true,
      "inputs": [],
      "name": "stakingStarts",
      "outputs": [
        {
          "internalType": "uint256",
          "name": "",
          "type": "uint256"
        }
      ],
      "payable": false,
      "stateMutability": "view",
      "type": "function"
    },
    {
      "constant": true,
      "inputs": [],
      "name": "stakingTotal",
      "outputs": [
        {
          "internalType": "uint256",
          "name": "",
          "type": "uint256"
        }
      ],
      "payable": false,
      "stateMutability": "view",
      "type": "function"
    },
    {
      "constant": true,
      "inputs": [],
      "name": "tokenAddress",
      "outputs": [
        {
          "internalType": "address",
          "name": "",
          "type": "address"
        }
      ],
      "payable": false,
      "stateMutability": "view",
      "type": "function"
    },
    {
      "constant": true,
      "inputs": [],
      "name": "tokenName",
      "outputs": [
        {
          "internalType": "string",
          "name": "",
          "type": "string"
        }
      ],
      "payable": false,
      "stateMutability": "view",
      "type": "function"
    },
    {
      "constant": true,
      "inputs": [],
      "name": "totalReward",
      "outputs": [
        {
          "internalType": "uint256",
          "name": "",
          "type": "uint256"
        }
      ],
      "payable": false,
      "stateMutability": "view",
      "type": "function"
    },
    {
      "constant": true,
      "inputs": [],
      "name": "withdrawEnds",
      "outputs": [
        {
          "internalType": "uint256",
          "name": "",
          "type": "uint256"
        }
      ],
      "payable": false,
      "stateMutability": "view",
      "type": "function"
    },
    {
      "constant": true,
      "inputs": [],
      "name": "withdrawStarts",
      "outputs": [
        {
          "internalType": "uint256",
          "name": "",
          "type": "uint256"
        }
      ],
      "payable": false,
      "stateMutability": "view",
      "type": "function"
    },
    {
      "constant": false,
      "inputs": [
        {
          "internalType": "uint256",
          "name": "amount",
          "type": "uint256"
        }
      ],
      "name": "stake",
      "outputs": [
        {
          "internalType": "bool",
          "name": "",
          "type": "bool"
        }
      ],
      "payable": true,
      "stateMutability": "payable",
      "type": "function"
    },
    {
      "constant": false,
      "inputs": [
        {
          "internalType": "address",
          "name": "stakerAddr",
          "type": "address"
        },
        {
          "internalType": "uint256",
          "name": "amount",
          "type": "uint256"
        }
      ],
      "name": "_stakeToken",
      "outputs": [
        {
          "internalType": "bool",
          "name": "",
          "type": "bool"
        }
      ],
      "payable": false,
      "stateMutability": "nonpayable",
      "type": "function"
    },
    {
      "constant": false,
      "inputs": [
        {
          "internalType": "uint256",
          "name": "rewardAmount",
          "type": "uint256"
        },
        {
          "internalType": "uint256",
          "name": "withdrawableAmount",
          "type": "uint256"
        }
      ],
      "name": "addReward",
      "outputs": [
        {
          "internalType": "bool",
          "name": "",
          "type": "bool"
        }
      ],
      "payable": false,
      "stateMutability": "nonpayable",
      "type": "function"
    },
    {
      "constant": true,
      "inputs": [
        {
          "internalType": "address",
          "name": "account",
          "type": "address"
        }
      ],
      "name": "stakeOf",
      "outputs": [
        {
          "internalType": "uint256",
          "name": "",
          "type": "uint256"
        }
      ],
      "payable": false,
      "stateMutability": "view",
      "type": "function"
    },
    {
      "constant": false,
      "inputs": [
        {
          "internalType": "uint256",
          "name": "amount",
          "type": "uint256"
        }
      ],
      "name": "withdraw",
      "outputs": [
        {
          "internalType": "bool",
          "name": "",
          "type": "bool"
        }
      ],
      "payable": false,
      "stateMutability": "nonpayable",
      "type": "function"
    }
  ],
  "bytecode": "0x60806040523480156200001157600080fd5b506040516200195538038062001955833981810160405260e08110156200003757600080fd5b81019080805160405193929190846401000000008211156200005857600080fd5b9083019060208201858111156200006e57600080fd5b82516401000000008111828201881017156200008957600080fd5b82525081516020918201929091019080838360005b83811015620000b85781810151838201526020016200009e565b50505050905090810190601f168015620000e65780820380516001836020036101000a031916815260200191505b506040908152602082810151918301516060840151608085015160a086015160c09096015189519598509296509094909390926200012a916001918a01906200031b565b506001600160a01b03861662000187576040805162461bcd60e51b815260206004820152601460248201527f46657374616b696e673a20302061646472657373000000000000000000000000604482015290519081900360640190fd5b600280546001600160a01b0319166001600160a01b03881617905584620001e05760405162461bcd60e51b8152600401808060200182810382526022815260200180620019336022913960400191505060405180910390fd5b42851015620001f35742600355620001f9565b60038590555b60035484116200023b5760405162461bcd60e51b8152600401808060200182810382526033815260200180620018976033913960400191505060405180910390fd5b6004849055806200027e5760405162461bcd60e51b81526004018080602001828103825260288152602001806200186f6028913960400191505060405180910390fd5b6005819055600454831015620002c65760405162461bcd60e51b8152600401808060200182810382526034815260200180620018ff6034913960400191505060405180910390fd5b60088390558282116200030b5760405162461bcd60e51b8152600401808060200182810382526035815260200180620018ca6035913960400191505060405180910390fd5b5060095550620003c09350505050565b828054600181600116156101000203166002900490600052602060002090601f016020900481019282601f106200035e57805160ff19168380011785556200038e565b828001600101855582156200038e579182015b828111156200038e57825182559160200191906001019062000371565b506200039c929150620003a0565b5090565b620003bd91905b808211156200039c5760008155600101620003a7565b90565b61149f80620003d06000396000f3fe6080604052600436106101145760003560e01c80636d68c7d4116100a0578063a694fc3a11610064578063a694fc3a14610368578063aa5c3ab414610385578063b410e2a11461039a578063d66692a7146103af578063eacebf61146103c457610114565b80636d68c7d4146102e4578063750142e6146102f957806375c93bb91461030e57806393bc9dfe1461033e5780639d76ea581461035357610114565b80633f7fd60a116100e75780633f7fd60a146101c457806342623360146101d957806343746adc1461020c5780635b9f0016146102455780636c02a9311461025a57610114565b80630d267fb2146101195780631bbc4b831461014057806321b13cdf146101715780632e1a7d4d14610186575b600080fd5b34801561012557600080fd5b5061012e6103d9565b60408051918252519081900360200190f35b34801561014c57600080fd5b506101556103df565b604080516001600160a01b039092168252519081900360200190f35b34801561017d57600080fd5b5061012e6103ee565b34801561019257600080fd5b506101b0600480360360208110156101a957600080fd5b50356103f4565b604080519115158252519081900360200190f35b3480156101d057600080fd5b5061012e61052b565b3480156101e557600080fd5b5061012e600480360360208110156101fc57600080fd5b50356001600160a01b0316610531565b34801561021857600080fd5b506101b06004803603604081101561022f57600080fd5b506001600160a01b03813516906020013561054c565b34801561025157600080fd5b5061012e610885565b34801561026657600080fd5b5061026f61088b565b6040805160208082528351818301528351919283929083019185019080838360005b838110156102a9578181015183820152602001610291565b50505050905090810190601f1680156102d65780820380516001836020036101000a031916815260200191505b509250505060405180910390f35b3480156102f057600080fd5b5061012e610918565b34801561030557600080fd5b5061012e61091e565b34801561031a57600080fd5b506101b06004803603604081101561033157600080fd5b5080359060200135610924565b34801561034a57600080fd5b5061012e610ade565b34801561035f57600080fd5b50610155610ae4565b6101b06004803603602081101561037e57600080fd5b5035610af3565b34801561039157600080fd5b5061012e610ba9565b3480156103a657600080fd5b5061012e610baf565b3480156103bb57600080fd5b5061012e610bb5565b3480156103d057600080fd5b5061012e610bbb565b60055481565b600e546001600160a01b031681565b60085481565b6000600854826002811161044c576040805162461bcd60e51b815260206004820152601a60248201527911995cdd185ada5b99ce881b9959d85d1a5d9948185b5bdd5b9d60321b604482015290519081900360640190fd5b3380610499576040805162461bcd60e51b815260206004820152601760248201527646657374616b696e673a207a65726f206164647265737360481b604482015290519081900360640190fd5b336000818152602081905260409020548611156104fd576040805162461bcd60e51b815260206004820152601d60248201527f46657374616b696e673a206e6f7420656e6f7567682062616c616e6365000000604482015290519081900360640190fd5b600954421015610519576105118187610bc1565b945050610523565b6105118187610d6f565b505050919050565b600b5481565b6001600160a01b031660009081526020819052604090205490565b600060035460045483600281116105a7576040805162461bcd60e51b815260206004820152601a60248201527911995cdd185ada5b99ce881b9959d85d1a5d9948185b5bdd5b9d60321b604482015290519081900360640190fd5b600254600e80546001600160a01b0319166001600160a01b03928316179081905560408051636eb1769f60e11b8152838a16600482015230602482015290518993899360009391169163dd62ed3e91604480820192602092909190829003018186803b15801561061657600080fd5b505afa15801561062a573d6000803e3d6000fd5b505050506040513d602081101561064057600080fd5b50519050808211156106835760405162461bcd60e51b815260040180806020018281038252602c815260200180611375602c913960400191505060405180910390fd5b600554889081900381111561069757600554035b600081116106ec576040805162461bcd60e51b815260206004820181905260248201527f46657374616b696e673a205374616b696e67206361702069732066696c6c6564604482015290519081900360640190fd5b600554600754820111156107315760405162461bcd60e51b81526004018080602001828103825260398152602001806114326039913960400191505060405180910390fd5b61073b8a82610eac565b610749576000975050610879565b600254604080518b81526020810184905281516001600160a01b03808f169416927f6c86f3fd5118b3aa8bb4f389a617046de0a3d3d477de1a1673d227f802f616dc928290030190a3888110156108065760006107ac8a8363ffffffff610ec216565b90506107b98b8c83610f04565b15610804576002546040805183815290516001600160a01b03808f169316917fec1e5ed733e00f1a00915d56caef57b4f52312dde4f9b3165f213319a0da156b919081900360200190a35b505b600754610819908263ffffffff61108e16565b600781905561082e908263ffffffff61108e16565b6007556001600160a01b038a1660009081526020819052604090205461085a908263ffffffff61108e16565b6001600160a01b038b1660009081526020819052604090205550600196505b50505050505092915050565b600d5481565b60018054604080516020600284861615610100026000190190941693909304601f810184900484028201840190925281815292918301828280156109105780601f106108e557610100808354040283529160200191610910565b820191906000526020600020905b8154815290600101906020018083116108f357829003601f168201915b505050505081565b60035481565b600a5481565b600854600254600e80546001600160a01b0319166001600160a01b03928316179081905560408051636eb1769f60e11b8152336004820181905230602483015291516000959492938893879391169163dd62ed3e91604480820192602092909190829003018186803b15801561099957600080fd5b505afa1580156109ad573d6000803e3d6000fd5b505050506040513d60208110156109c357600080fd5b5051905080821115610a065760405162461bcd60e51b815260040180806020018281038252602c815260200180611375602c913960400191505060405180910390fd5b60008711610a455760405162461bcd60e51b81526004018080602001828103825260228152602001806114106022913960400191505060405180910390fd5b86861115610a845760405162461bcd60e51b815260040180806020018281038252604e8152602001806113c2604e913960600191505060405180910390fd5b33610a8f8189610eac565b610a9d576000955050610ad4565b600a54610ab0908963ffffffff61108e16565b600a819055600c55600b54610acb908863ffffffff61108e16565b600b5550600194505b5050505092915050565b60065481565b6002546001600160a01b031681565b60008160028111610b48576040805162461bcd60e51b815260206004820152601a60248201527911995cdd185ada5b99ce881b9959d85d1a5d9948185b5bdd5b9d60321b604482015290519081900360640190fd5b3380610b95576040805162461bcd60e51b815260206004820152601760248201527646657374616b696e673a207a65726f206164647265737360481b604482015290519081900360640190fd5b33610ba0818661054c565b95945050505050565b600c5481565b60045481565b60075481565b60095481565b6000826001600160a01b038116610c19576040805162461bcd60e51b815260206004820152601760248201527646657374616b696e673a207a65726f206164647265737360481b604482015290519081900360640190fd5b6000610c44600754610c38600454600954610ec290919063ffffffff16565b9063ffffffff6110e816565b90506000610c7782610c6b87610c38600b54610c3860045442610ec290919063ffffffff16565b9063ffffffff61114116565b90506000610c8b868363ffffffff61108e16565b600c54909150610ca1908363ffffffff610ec216565b600c55600d54610cb7908763ffffffff610ec216565b600d556001600160a01b038716600090815260208190526040902054610ce3908763ffffffff610ec216565b6001600160a01b038816600090815260208190526040902055610d068782611183565b15610d6057600254604080518881526020810185905281516001600160a01b03808c169416927f85ab59351da11b79336de7647172267c33bf533ee87d9d292441c2672177159b928290030190a360019450505050610d68565b600094505050505b5092915050565b6000826001600160a01b038116610dc7576040805162461bcd60e51b815260206004820152601760248201527646657374616b696e673a207a65726f206164647265737360481b604482015290519081900360640190fd5b6000610de4600d54610c6b86600c546110e890919063ffffffff16565b90506000610df8858363ffffffff61108e16565b6001600160a01b038716600090815260208190526040902054909150610e24908663ffffffff610ec216565b6001600160a01b038716600090815260208190526040902055610e478682611183565b15610ea057600254604080518781526020810185905281516001600160a01b03808b169416927f85ab59351da11b79336de7647172267c33bf533ee87d9d292441c2672177159b928290030190a3600193505050610d68565b50600095945050505050565b6000610eb9833084610f04565b90505b92915050565b6000610eb983836040518060400160405280601e81526020017f536166654d6174683a207375627472616374696f6e206f766572666c6f770000815250611278565b600254600e80546001600160a01b0319166001600160a01b03928316179081905560408051636eb1769f60e11b815283871660048201523060248201529051600093879386938693919092169163dd62ed3e916044808301926020929190829003018186803b158015610f7657600080fd5b505afa158015610f8a573d6000803e3d6000fd5b505050506040513d6020811015610fa057600080fd5b5051905080821115610fe35760405162461bcd60e51b815260040180806020018281038252602c815260200180611375602c913960400191505060405180910390fd5b600254600e80546001600160a01b0319166001600160a01b039283161790819055604080516323b872dd60e01b81528a84166004820152898416602482015260448101899052905191909216916323b872dd9160648083019260209291908290030181600087803b15801561105757600080fd5b505af115801561106b573d6000803e3d6000fd5b505050506040513d602081101561108157600080fd5b5051979650505050505050565b600082820183811015610eb9576040805162461bcd60e51b815260206004820152601b60248201527f536166654d6174683a206164646974696f6e206f766572666c6f770000000000604482015290519081900360640190fd5b6000826110f757506000610ebc565b8282028284828161110457fe5b0414610eb95760405162461bcd60e51b81526004018080602001828103825260218152602001806113a16021913960400191505060405180910390fd5b6000610eb983836040518060400160405280601a81526020017f536166654d6174683a206469766973696f6e206279207a65726f00000000000081525061130f565b600081600281116111d8576040805162461bcd60e51b815260206004820152601a60248201527911995cdd185ada5b99ce881b9959d85d1a5d9948185b5bdd5b9d60321b604482015290519081900360640190fd5b600254600e80546001600160a01b0319166001600160a01b0392831617908190556040805163a9059cbb60e01b81528784166004820152602481018790529051919092169163a9059cbb9160448083019260209291908290030181600087803b15801561124457600080fd5b505af1158015611258573d6000803e3d6000fd5b505050506040513d602081101561126e57600080fd5b5051949350505050565b600081848411156113075760405162461bcd60e51b81526004018080602001828103825283818151815260200191508051906020019080838360005b838110156112cc5781810151838201526020016112b4565b50505050905090810190601f1680156112f95780820380516001836020036101000a031916815260200191505b509250505060405180910390fd5b505050900390565b6000818361135e5760405162461bcd60e51b81526020600482018181528351602484015283519092839260449091019190850190808383600083156112cc5781810151838201526020016112b4565b50600083858161136a57fe5b049594505050505056fe46657374616b696e673a204d616b65207375726520746f2061646420656e6f75676820616c6c6f77616e6365536166654d6174683a206d756c7469706c69636174696f6e206f766572666c6f7746657374616b696e673a20776974686472617761626c6520616d6f756e74206d757374206265206c657373207468616e206f7220657175616c20746f207468652072657761726420616d6f756e7446657374616b696e673a20726577617264206d75737420626520706f73697469766546657374616b696e673a20746869732077696c6c20696e637265617365207374616b696e6720616d6f756e7420706173732074686520636170a265627a7a7231582079f9333f61cd508dd729e8164895b3e5c046b5dd307731cd5c1f00ad8e15877f64736f6c6343000510003246657374616b696e673a207374616b696e67546f74616c206d75737420626520706f73697469766546657374616b696e673a207374616b696e6720656e64206d757374206265206166746572207374616b696e672073746172747346657374616b696e673a207769746864726177456e6473206d7573742062652061667465722077697468647261772073746172747346657374616b696e673a207769746864726177537461727473206d757374206265206166746572207374616b696e6720656e647346657374616b696e673a207a65726f207374616b696e672073746172742074696d65",
  "source": "// SPDX-License-Identifier: MIT\r\npragma solidity >=0.4.21 <0.7.0;\r\n\r\nimport \"openzeppelin-solidity/contracts/token/ERC20/ERC20.sol\";\r\nimport \"openzeppelin-solidity/contracts/math/SafeMath.sol\";\r\n\r\ncontract Staking {\r\n    using SafeMath for uint256;\r\n\r\n    // map address to user stake \r\n    mapping (address => uint256) stakes;\r\n\r\n    //staking details\r\n    string public tokenName;\r\n    address  public tokenAddress;\r\n    uint public stakingStarts;\r\n    uint public stakingEnds;\r\n    uint public stakingTotal;\r\n    uint public stakeBalance;\r\n    uint public stakedTotal;\r\n    uint public withdrawStarts;\r\n    uint public withdrawEnds;\r\n    uint256 public totalReward;\r\n    uint256 public earlyWithdrawReward;\r\n    uint256 public rewardBalance;\r\n    uint256 public stakedBalance;\r\n\r\n    ERC20 public ERC20Interface;\r\n    event Staked(address indexed token, address indexed staker_, uint256 requestedAmount_, uint256 stakedAmount_);\r\n    event PaidOut(address indexed token, address indexed staker_, uint256 amount_, uint256 reward_);\r\n    event Refunded(address indexed token, address indexed staker_, uint256 amount_);\r\n    \r\n    constructor(\r\n        string memory tokenName_,\r\n        address tokenAddress_,\r\n        uint stakingStarts_,\r\n        uint stakingEnds_,\r\n        uint withdrawStarts_,\r\n        uint withdrawEnds_,\r\n        uint stakingTotal_\r\n    ) public {\r\n        tokenName = tokenName_;\r\n        require(tokenAddress_ != address(0), \"Festaking: 0 address\");\r\n        tokenAddress = tokenAddress_;\r\n\r\n        require(stakingStarts_ > 0, \"Festaking: zero staking start time\");\r\n        if (stakingStarts_ < now) {\r\n            stakingStarts = now;\r\n        } else {\r\n            stakingStarts = stakingStarts_;\r\n        }\r\n\r\n        require(stakingEnds_ > stakingStarts, \"Festaking: staking end must be after staking starts\");\r\n        stakingEnds = stakingEnds_;\r\n\r\n        require(stakingTotal_ > 0, \"Festaking: stakingTotal must be positive\");\r\n        stakingTotal = stakingTotal_;\r\n\r\n        require(withdrawStarts_ >= stakingEnds, \"Festaking: withdrawStarts must be after staking ends\");\r\n        withdrawStarts = withdrawStarts_;\r\n\r\n        require(withdrawEnds_ > withdrawStarts, \"Festaking: withdrawEnds must be after withdraw starts\");\r\n        withdrawEnds = withdrawEnds_;\r\n    }\r\n    \r\n    \r\n\r\n     /**\r\n    * Requirements:\r\n    * - nameOption\r\n     */\r\n    function stake (uint256 amount)\r\n    public\r\n    _positive(amount)\r\n    _realAddress(msg.sender)\r\n    payable\r\n    returns (bool) {\r\n        address sender = msg.sender;\r\n        return _stakeToken(sender,amount);\r\n    }\r\n\r\n    modifier _realAddress(address addr) {\r\n        require(addr != address(0), \"Festaking: zero address\");\r\n        _;\r\n    }\r\n\r\n    modifier _positive(uint256 amount) {\r\n        require(amount > 2, \"Festaking: negative amount\");\r\n        _;\r\n    }\r\n\r\n     modifier _after(uint eventTime) {\r\n        _;\r\n    }\r\n\r\n    modifier _before(uint eventTime) \r\n    {\r\n        _;\r\n    }\r\n\r\n    modifier _hasEnoughToken(address staker, uint256 amount) {\r\n        ERC20Interface = ERC20(tokenAddress);\r\n        uint256 ourAllowance = ERC20Interface.allowance(staker, address(this));\r\n        require(amount <= ourAllowance, \"Festaking: Make sure to add enough allowance\");\r\n        _;\r\n    }\r\n\r\n    function _stakeToken (address stakerAddr,uint amount) \r\n    public\r\n    _after(stakingStarts)\r\n    _before(stakingEnds)\r\n    _positive(amount)\r\n    _hasEnoughToken(stakerAddr, amount)\r\n    returns (bool)\r\n    {\r\n        uint remainingToken = amount;\r\n        if(remainingToken > (stakingTotal - remainingToken)){\r\n            remainingToken = (stakingTotal - remainingToken);\r\n        }\r\n        require(remainingToken > 0, \"Festaking: Staking cap is filled\");\r\n        require((remainingToken + stakedTotal) <= stakingTotal, \"Festaking: this will increase staking amount pass the cap\");\r\n\r\n        if (!_payMe(stakerAddr, remainingToken)) {\r\n            return false;\r\n        }\r\n        emit Staked(tokenAddress, stakerAddr, amount, remainingToken);\r\n\r\n        if (remainingToken < amount) {\r\n            // Return the unstaked amount to sender (from allowance)\r\n            uint256 refund = amount.sub(remainingToken);\r\n            // pay/refund remaining funds\r\n            if (_payTo(stakerAddr, stakerAddr, refund)) {\r\n                emit Refunded(tokenAddress, stakerAddr, refund);\r\n            }\r\n        }\r\n\r\n        stakedTotal = stakedTotal.add(remainingToken);\r\n        stakedTotal = stakedTotal.add(remainingToken);\r\n        stakes[stakerAddr] = stakes[stakerAddr].add(remainingToken);\r\n        return true;\r\n    }\r\n\r\n    function _payMe(address payer, uint256 amount)\r\n    private\r\n    returns (bool) {\r\n        return _payTo(payer, address(this), amount);\r\n    }\r\n\r\n    function _payTo(address allower, address receiver, uint256 amount)\r\n    _hasAllowance(allower, amount)\r\n    private\r\n    returns (bool) {\r\n        // Request to transfer amount from the contract to receiver.\r\n        // contract does not own the funds, so the allower must have added allowance to the contract\r\n        // Allower is the original owner.\r\n        ERC20Interface = ERC20(tokenAddress);\r\n        return ERC20Interface.transferFrom(allower, receiver, amount);\r\n    }\r\n\r\n    function _payDirect(address to, uint256 amount)\r\n    private\r\n    _positive(amount)\r\n    returns (bool) {\r\n        ERC20Interface = ERC20(tokenAddress);\r\n        return ERC20Interface.transfer(to, amount);\r\n    }\r\n\r\n    function addReward(uint256 rewardAmount, uint256 withdrawableAmount)\r\n    public\r\n    _before(withdrawStarts)\r\n    _hasAllowance(msg.sender, rewardAmount)\r\n    returns (bool) {\r\n        require(rewardAmount > 0, \"Festaking: reward must be positive\");\r\n        require(withdrawableAmount >= 0, \"Festaking: withdrawable amount cannot be negative\");\r\n        require(withdrawableAmount <= rewardAmount, \"Festaking: withdrawable amount must be less than or equal to the reward amount\");\r\n        address from = msg.sender;\r\n        if (!_payMe(from, rewardAmount)) {\r\n            return false;\r\n        }\r\n\r\n        totalReward = totalReward.add(rewardAmount);\r\n        rewardBalance = totalReward;\r\n        earlyWithdrawReward = earlyWithdrawReward.add(withdrawableAmount);\r\n        return true;\r\n    }\r\n\r\n    function stakeOf(address account) public view returns (uint256) {\r\n        return stakes[account];\r\n    }\r\n\r\n    function withdraw(uint256 amount)\r\n    public\r\n    _after(withdrawStarts)\r\n    _positive(amount)\r\n    _realAddress(msg.sender)\r\n    returns (bool) {\r\n        address from = msg.sender;\r\n        require(amount <= stakes[from], \"Festaking: not enough balance\");\r\n        if (now < withdrawEnds) {\r\n            return _withdrawEarly(from, amount);\r\n        } else {\r\n            return _withdrawAfterClose(from, amount);\r\n        }\r\n    }\r\n\r\n    function _withdrawEarly(address from, uint256 amount)\r\n    private\r\n    _realAddress(from)\r\n    returns (bool) {\r\n        // This is the formula to calculate reward:\r\n        // r = (earlyWithdrawReward / stakedTotal) * (now - stakingEnds) / (withdrawEnds - stakingEnds)\r\n        // w = (1+r) * a\r\n        uint256 denom = (withdrawEnds.sub(stakingEnds)).mul(stakedTotal);\r\n        uint256 reward = (\r\n        ( (now.sub(stakingEnds)).mul(earlyWithdrawReward) ).mul(amount)\r\n        ).div(denom);\r\n        uint256 payOut = amount.add(reward);\r\n        rewardBalance = rewardBalance.sub(reward);\r\n        stakedBalance = stakedBalance.sub(amount);\r\n        stakes[from] = stakes[from].sub(amount);\r\n        if (_payDirect(from, payOut)) {\r\n            emit PaidOut(tokenAddress, from, amount, reward);\r\n            return true;\r\n        }\r\n        return false;\r\n    }\r\n\r\n    function _withdrawAfterClose(address from, uint256 amount)\r\n    private\r\n    _realAddress(from)\r\n    returns (bool) {\r\n        uint256 reward = (rewardBalance.mul(amount)).div(stakedBalance);\r\n        uint256 payOut = amount.add(reward);\r\n        stakes[from] = stakes[from].sub(amount);\r\n        if (_payDirect(from, payOut)) {\r\n            emit PaidOut(tokenAddress, from, amount, reward);\r\n            return true;\r\n        }\r\n        return false;\r\n    }\r\n\r\n    modifier _hasAllowance(address allower, uint256 amount) {\r\n        // Make sure the allower has provided the right allowance.\r\n        ERC20Interface = ERC20(tokenAddress);\r\n        uint256 ourAllowance = ERC20Interface.allowance(allower, address(this));\r\n        require(amount <= ourAllowance, \"Festaking: Make sure to add enough allowance\");\r\n        _;\r\n    }\r\n}",
  "sourcePath": "C:/Users/horla/OneDrive/Documents/unifyre-staking-app/new/contracts/Staking.sol",
  "compiler": {
    "name": "solc",
    "version": "0.5.16+commit.9c3226ce.Emscripten.clang"
  },
  "schemaVersion": "3.2.3",
  "updatedAt": "2020-08-15T20:26:29.053Z",
  "devdoc": {
    "methods": {}
  },
  "userdoc": {
    "methods": {
      "stake(uint256)": {
        "notice": "Requirements: - nameOption"
      }
    }
  }
}