{
  "contractName": "PoolDrop",
  "abi": [
    {
      "inputs": [],
      "stateMutability": "nonpayable",
      "type": "constructor"
    },
    {
      "inputs": [
        {
          "internalType": "address",
          "name": "_token",
          "type": "address"
        },
        {
          "internalType": "address",
          "name": "_from",
          "type": "address"
        },
        {
          "internalType": "address[]",
          "name": "_tos",
          "type": "address[]"
        },
        {
          "internalType": "uint256",
          "name": "_value",
          "type": "uint256"
        }
      ],
      "name": "transferManyFrom",
      "outputs": [
        {
          "internalType": "bool",
          "name": "",
          "type": "bool"
        }
      ],
      "stateMutability": "nonpayable",
      "type": "function"
    }
  ],
  "bytecode": "0x608060405234801561001057600080fd5b5061033b806100206000396000f3fe608060405234801561001057600080fd5b506004361061002b5760003560e01c806374f2d0de14610030575b600080fd5b6101306004803603608081101561004657600080fd5b81019080803573ffffffffffffffffffffffffffffffffffffffff169060200190929190803573ffffffffffffffffffffffffffffffffffffffff169060200190929190803590602001906401000000008111156100a357600080fd5b8201836020820111156100b557600080fd5b803590602001918460208302840111640100000000831117156100d757600080fd5b919080806020026020016040519081016040528093929190818152602001838360200280828437600081840152601f19601f8201169050808301925050505050505091929192908035906020019092919050505061014a565b604051808215151515815260200191505060405180910390f35b60008073ffffffffffffffffffffffffffffffffffffffff168573ffffffffffffffffffffffffffffffffffffffff16141561018557600080fd5b600073ffffffffffffffffffffffffffffffffffffffff168473ffffffffffffffffffffffffffffffffffffffff1614156101bf57600080fd5b600082116101cc57600080fd5b600085905060008090505b84518110156102f7578173ffffffffffffffffffffffffffffffffffffffff166323b872dd8787848151811061020957fe5b6020026020010151876040518463ffffffff1660e01b8152600401808473ffffffffffffffffffffffffffffffffffffffff1673ffffffffffffffffffffffffffffffffffffffff1681526020018373ffffffffffffffffffffffffffffffffffffffff1673ffffffffffffffffffffffffffffffffffffffff1681526020018281526020019350505050602060405180830381600087803b1580156102ae57600080fd5b505af11580156102c2573d6000803e3d6000fd5b505050506040513d60208110156102d857600080fd5b81019080805190602001909291905050505080806001019150506101d7565b50600191505094935050505056fea26469706673582212203174a7351e05e1182da6c694d02da80782144af3d64b2b50a6f9b706833847cf64736f6c63430006020033",
  "source": "pragma solidity >=0.5.16;\n\nimport \"@openzeppelin/contracts/token/ERC20/IERC20.sol\";\n\n/**\n * @title PoolDrop\n * @dev Basic pool-drop contract to distribute an ERC20 amount to multiple accounts\n **/\ncontract PoolDrop {\n    constructor() public {}\n\n    function transferManyFrom(address _token, address _from, address[] memory _tos, uint256 _value)\n    public returns (bool) {\n        require(_token != address(0));\n        require(_from != address(0));\n        require(_value > 0);\n        IERC20 Token = IERC20(_token);\n        for (uint i=0; i<_tos.length; i++) {\n            Token.transferFrom(_from, _tos[i], _value);\n        }\n        return true;\n    }\n}",
  "sourcePath": "/home/naiemk/nk/unifyre-app-pooldrop/contract/contracts/PoolDrop.sol",
  "compiler": {
    "name": "solc",
    "version": "0.6.2+commit.bacdbe57.Emscripten.clang"
  },
  "schemaVersion": "3.2.0",
  "updatedAt": "2020-06-16T21:45:01.264Z",
  "devdoc": {
    "details": "Basic pool-drop contract to distribute an ERC20 amount to multiple accounts*",
    "methods": {},
    "title": "PoolDrop"
  },
  "userdoc": {
    "methods": {}
  }
}