{
  "contractName": "BridgePool",
  "abi": [
    {
      "inputs": [],
      "stateMutability": "nonpayable",
      "type": "constructor"
    },
    {
      "anonymous": false,
      "inputs": [
        {
          "indexed": false,
          "internalType": "address",
          "name": "actor",
          "type": "address"
        },
        {
          "indexed": false,
          "internalType": "address",
          "name": "token",
          "type": "address"
        },
        {
          "indexed": false,
          "internalType": "uint256",
          "name": "amount",
          "type": "uint256"
        }
      ],
      "name": "BridgeLiquidityAdded",
      "type": "event"
    },
    {
      "anonymous": false,
      "inputs": [
        {
          "indexed": false,
          "internalType": "address",
          "name": "actor",
          "type": "address"
        },
        {
          "indexed": false,
          "internalType": "address",
          "name": "token",
          "type": "address"
        },
        {
          "indexed": false,
          "internalType": "uint256",
          "name": "amount",
          "type": "uint256"
        }
      ],
      "name": "BridgeLiquidityRemoved",
      "type": "event"
    },
    {
      "anonymous": false,
      "inputs": [
        {
          "indexed": false,
          "internalType": "address",
          "name": "from",
          "type": "address"
        },
        {
          "indexed": true,
          "internalType": "address",
          "name": "token",
          "type": "address"
        },
        {
          "indexed": false,
          "internalType": "uint256",
          "name": "targetNetwork",
          "type": "uint256"
        },
        {
          "indexed": false,
          "internalType": "address",
          "name": "targetToken",
          "type": "address"
        },
        {
          "indexed": false,
          "internalType": "address",
          "name": "targetAddrdess",
          "type": "address"
        },
        {
          "indexed": false,
          "internalType": "uint256",
          "name": "amount",
          "type": "uint256"
        },
        {
          "indexed": false,
          "internalType": "uint256",
          "name": "fee",
          "type": "uint256"
        }
      ],
      "name": "BridgeSwap",
      "type": "event"
    },
    {
      "anonymous": false,
      "inputs": [
        {
          "indexed": true,
          "internalType": "address",
          "name": "previousOwner",
          "type": "address"
        },
        {
          "indexed": true,
          "internalType": "address",
          "name": "newOwner",
          "type": "address"
        }
      ],
      "name": "OwnershipTransferred",
      "type": "event"
    },
    {
      "anonymous": false,
      "inputs": [
        {
          "indexed": false,
          "internalType": "bytes32",
          "name": "hash",
          "type": "bytes32"
        },
        {
          "indexed": false,
          "internalType": "address",
          "name": "signer",
          "type": "address"
        },
        {
          "indexed": false,
          "internalType": "address",
          "name": "receiver",
          "type": "address"
        },
        {
          "indexed": false,
          "internalType": "address",
          "name": "token",
          "type": "address"
        },
        {
          "indexed": false,
          "internalType": "uint256",
          "name": "amount",
          "type": "uint256"
        }
      ],
      "name": "TransferBySignature",
      "type": "event"
    },
    {
      "inputs": [],
      "name": "feeDistributor",
      "outputs": [
        {
          "internalType": "address",
          "name": "",
          "type": "address"
        }
      ],
      "stateMutability": "view",
      "type": "function"
    },
    {
      "inputs": [
        {
          "internalType": "address",
          "name": "",
          "type": "address"
        }
      ],
      "name": "fees",
      "outputs": [
        {
          "internalType": "uint256",
          "name": "",
          "type": "uint256"
        }
      ],
      "stateMutability": "view",
      "type": "function"
    },
    {
      "inputs": [],
      "name": "owner",
      "outputs": [
        {
          "internalType": "address",
          "name": "",
          "type": "address"
        }
      ],
      "stateMutability": "view",
      "type": "function"
    },
    {
      "inputs": [],
      "name": "renounceOwnership",
      "outputs": [],
      "stateMutability": "nonpayable",
      "type": "function"
    },
    {
      "inputs": [],
      "name": "signer",
      "outputs": [
        {
          "internalType": "address",
          "name": "",
          "type": "address"
        }
      ],
      "stateMutability": "view",
      "type": "function"
    },
    {
      "inputs": [
        {
          "internalType": "address",
          "name": "newOwner",
          "type": "address"
        }
      ],
      "name": "transferOwnership",
      "outputs": [],
      "stateMutability": "nonpayable",
      "type": "function"
    },
    {
      "inputs": [
        {
          "internalType": "bytes32",
          "name": "",
          "type": "bytes32"
        }
      ],
      "name": "usedHashes",
      "outputs": [
        {
          "internalType": "bool",
          "name": "",
          "type": "bool"
        }
      ],
      "stateMutability": "view",
      "type": "function"
    },
    {
      "inputs": [
        {
          "internalType": "address",
          "name": "_signer",
          "type": "address"
        }
      ],
      "name": "setSigner",
      "outputs": [],
      "stateMutability": "nonpayable",
      "type": "function"
    },
    {
      "inputs": [
        {
          "internalType": "address",
          "name": "token",
          "type": "address"
        },
        {
          "internalType": "uint256",
          "name": "fee10000",
          "type": "uint256"
        }
      ],
      "name": "setFee",
      "outputs": [],
      "stateMutability": "nonpayable",
      "type": "function"
    },
    {
      "inputs": [
        {
          "internalType": "address",
          "name": "_feeDistributor",
          "type": "address"
        }
      ],
      "name": "setFeeDistributor",
      "outputs": [],
      "stateMutability": "nonpayable",
      "type": "function"
    },
    {
      "inputs": [
        {
          "internalType": "address",
          "name": "token",
          "type": "address"
        },
        {
          "internalType": "uint256",
          "name": "amount",
          "type": "uint256"
        },
        {
          "internalType": "uint256",
          "name": "targetNetwork",
          "type": "uint256"
        },
        {
          "internalType": "address",
          "name": "targetToken",
          "type": "address"
        }
      ],
      "name": "swap",
      "outputs": [
        {
          "internalType": "uint256",
          "name": "",
          "type": "uint256"
        }
      ],
      "stateMutability": "nonpayable",
      "type": "function"
    },
    {
      "inputs": [
        {
          "internalType": "address",
          "name": "token",
          "type": "address"
        },
        {
          "internalType": "uint256",
          "name": "amount",
          "type": "uint256"
        },
        {
          "internalType": "uint256",
          "name": "targetNetwork",
          "type": "uint256"
        },
        {
          "internalType": "address",
          "name": "targetToken",
          "type": "address"
        },
        {
          "internalType": "address",
          "name": "targetAddress",
          "type": "address"
        }
      ],
      "name": "swapToAddress",
      "outputs": [
        {
          "internalType": "uint256",
          "name": "",
          "type": "uint256"
        }
      ],
      "stateMutability": "nonpayable",
      "type": "function"
    },
    {
      "inputs": [
        {
          "internalType": "address",
          "name": "token",
          "type": "address"
        },
        {
          "internalType": "address",
          "name": "payee",
          "type": "address"
        },
        {
          "internalType": "uint256",
          "name": "amount",
          "type": "uint256"
        },
        {
          "internalType": "bytes32",
          "name": "salt",
          "type": "bytes32"
        },
        {
          "internalType": "bytes",
          "name": "signature",
          "type": "bytes"
        }
      ],
      "name": "withdrawSigned",
      "outputs": [],
      "stateMutability": "nonpayable",
      "type": "function"
    },
    {
      "inputs": [
        {
          "internalType": "address",
          "name": "token",
          "type": "address"
        },
        {
          "internalType": "address",
          "name": "payee",
          "type": "address"
        },
        {
          "internalType": "uint256",
          "name": "amount",
          "type": "uint256"
        },
        {
          "internalType": "bytes32",
          "name": "salt",
          "type": "bytes32"
        },
        {
          "internalType": "bytes",
          "name": "signature",
          "type": "bytes"
        }
      ],
      "name": "withdrawSignedVerify",
      "outputs": [
        {
          "internalType": "bytes32",
          "name": "",
          "type": "bytes32"
        },
        {
          "internalType": "address",
          "name": "",
          "type": "address"
        }
      ],
      "stateMutability": "view",
      "type": "function"
    },
    {
      "inputs": [
        {
          "internalType": "address",
          "name": "token",
          "type": "address"
        },
        {
          "internalType": "uint256",
          "name": "amount",
          "type": "uint256"
        }
      ],
      "name": "addLiquidity",
      "outputs": [],
      "stateMutability": "nonpayable",
      "type": "function"
    },
    {
      "inputs": [
        {
          "internalType": "address",
          "name": "token",
          "type": "address"
        },
        {
          "internalType": "uint256",
          "name": "amount",
          "type": "uint256"
        }
      ],
      "name": "removeLiquidityIfPossible",
      "outputs": [
        {
          "internalType": "uint256",
          "name": "",
          "type": "uint256"
        }
      ],
      "stateMutability": "nonpayable",
      "type": "function"
    },
    {
      "inputs": [
        {
          "internalType": "address",
          "name": "token",
          "type": "address"
        },
        {
          "internalType": "address",
          "name": "liquidityAdder",
          "type": "address"
        }
      ],
      "name": "liquidity",
      "outputs": [
        {
          "internalType": "uint256",
          "name": "",
          "type": "uint256"
        }
      ],
      "stateMutability": "view",
      "type": "function"
    }
  ],
  "bytecode": "0x6101206040523480156200001257600080fd5b50604080518082018252601881527f46455252554d5f544f4b454e5f4252494447455f504f4f4c00000000000000006020808301918252835180850190945260078452661818181718181960c91b908401528151902060c08190527f1d22cbbc17bdf0730bd4afc2fca81fe77d658bff4a2c7f663ddefee44322c62a60e08190524660a0529192917f8b73c3c69bb8fe3d512ecc4cf759cc79239f7b179b0ffacaa9a75d522b39400f620000c881848462000131565b608052610100525060009250620000e19150506200016d565b600080546001600160a01b0319166001600160a01b0383169081178255604051929350917f8be0079c531659141344cd1fd0a4f28419497f9722a3daafe3b4186f6b6457e0908290a3506200019d565b600083838346306040516020016200014e95949392919062000171565b6040516020818303038152906040528051906020012090509392505050565b3390565b9485526020850193909352604084019190915260608301526001600160a01b0316608082015260a00190565b60805160a05160c05160e05161010051611caa620001e26000396000611052015260006110940152600061107301526000611000015260006110290152611caa6000f3fe608060405234801561001057600080fd5b506004361061011b5760003560e01c8063aa36acfb116100b2578063e55156b511610081578063f2fde38b11610066578063f2fde38b1461023e578063f3e6ea8a14610251578063faaebd21146102645761011b565b8063e55156b514610218578063e91b79bc1461022b5761011b565b8063aa36acfb146101b1578063aef18bf7146101d2578063b2217281146101f2578063ccfc2e8d146102055761011b565b80636c19e783116100ee5780636c19e7831461017b578063715018a61461018e5780638d6e9291146101965780638da5cb5b146101a95761011b565b80630d43e8ad14610120578063238ac9331461013e57806352f9567d146101465780635668870014610166575b600080fd5b610128610277565b604051610135919061158e565b60405180910390f35b610128610286565b610159610154366004611496565b610295565b6040516101359190611b67565b610179610174366004611428565b6102de565b005b61017961018936600461133b565b6103c3565b610179610457565b6101796101a4366004611387565b6104ed565b6101286105f3565b6101c46101bf366004611387565b610603565b604051610135929190611624565b6101e56101e036600461150c565b610623565b6040516101359190611619565b610159610200366004611355565b610638565b61017961021336600461133b565b610663565b610179610226366004611428565b6106d1565b610159610239366004611428565b610752565b61017961024c36600461133b565b61093a565b61015961025f366004611451565b610a07565b61015961027236600461133b565b610a18565b6005546001600160a01b031681565b6001546001600160a01b031681565b60006001600160a01b0382166102c65760405162461bcd60e51b81526004016102bd90611a08565b60405180910390fd5b6102d4338787878787610a2a565b9695505050505050565b806102fb5760405162461bcd60e51b81526004016102bd90611b30565b6001600160a01b0382166103215760405162461bcd60e51b81526004016102bd90611817565b61032d82333084610be9565b6001600160a01b038316600090815260036020908152604080832033845290915290205490915061035e9082610d9d565b6001600160a01b03831660009081526003602090815260408083203380855292529182902092909255517fef3f81f7842dc4087d754ab30e98bb596b7345a806ff6db3c82f0c7d77b74960916103b791859085906115a2565b60405180910390a15050565b6103cb610db0565b6001600160a01b03166103dc6105f3565b6001600160a01b0316146104025760405162461bcd60e51b81526004016102bd9061199c565b6001600160a01b0381166104285760405162461bcd60e51b81526004016102bd90611965565b6001805473ffffffffffffffffffffffffffffffffffffffff19166001600160a01b0392909216919091179055565b61045f610db0565b6001600160a01b03166104706105f3565b6001600160a01b0316146104965760405162461bcd60e51b81526004016102bd9061199c565b600080546040516001600160a01b03909116907f8be0079c531659141344cd1fd0a4f28419497f9722a3daafe3b4186f6b6457e0908390a36000805473ffffffffffffffffffffffffffffffffffffffff19169055565b6000806104fe888888888888610db4565b600082815260026020526040902054919350915060ff16156105325760405162461bcd60e51b81526004016102bd9061174c565b6001546001600160a01b0382811691161461055f5760405162461bcd60e51b81526004016102bd906119d1565b600082815260026020526040902080547fffffffffffffffffffffffffffffffffffffffffffffffffffffffffffffff001660011790556105aa6001600160a01b0389168888610e65565b7feef9de8facb5a597c8a87355a4975c1aaaeed0d89eb29247ca73a5b89c6e55398282898b8a6040516105e195949392919061163b565b60405180910390a15050505050505050565b6000546001600160a01b03165b90565b600080610614888888888888610db4565b91509150965096945050505050565b60026020526000908152604090205460ff1681565b6001600160a01b03918216600090815260036020908152604080832093909416825291909152205490565b61066b610db0565b6001600160a01b031661067c6105f3565b6001600160a01b0316146106a25760405162461bcd60e51b81526004016102bd9061199c565b6005805473ffffffffffffffffffffffffffffffffffffffff19166001600160a01b0392909216919091179055565b6106d9610db0565b6001600160a01b03166106ea6105f3565b6001600160a01b0316146107105760405162461bcd60e51b81526004016102bd9061199c565b6001600160a01b0382166107365760405162461bcd60e51b81526004016102bd90611817565b6001600160a01b03909116600090815260046020526040902055565b6000816107715760405162461bcd60e51b81526004016102bd90611b30565b6001600160a01b0383166107975760405162461bcd60e51b81526004016102bd90611817565b6001600160a01b0383166000908152600360209081526040808320338452909152902054828110156107db5760405162461bcd60e51b81526004016102bd90611a9c565b6040517f70a082310000000000000000000000000000000000000000000000000000000081526000906001600160a01b038616906370a082319061082390309060040161158e565b60206040518083038186803b15801561083b57600080fd5b505afa15801561084f573d6000803e3d6000fd5b505050506040513d601f19601f820116820180604052508101906108739190611524565b905060008482116108845781610886565b845b6001600160a01b03871660009081526003602090815260408083203384529091529020549091506108b79082610eed565b6001600160a01b03871660009081526003602090815260408083203384529091529020558015610931576108f56001600160a01b0387163383610e65565b7f5204091f3aba3d16dbb7fcc090386ce24245ac12f57ae5bf9785e0ab9a79be73338787604051610928939291906115a2565b60405180910390a15b95945050505050565b610942610db0565b6001600160a01b03166109536105f3565b6001600160a01b0316146109795760405162461bcd60e51b81526004016102bd9061199c565b6001600160a01b03811661099f5760405162461bcd60e51b81526004016102bd906117ba565b600080546040516001600160a01b03808516939216917f8be0079c531659141344cd1fd0a4f28419497f9722a3daafe3b4186f6b6457e091a36000805473ffffffffffffffffffffffffffffffffffffffff19166001600160a01b0392909216919091179055565b600061093133868686866000610a2a565b60046020526000908152604090205481565b600554600090859082906001600160a01b03168015610b0d576001600160a01b038916600090815260046020526040902054610a759061271090610a6f908b90610ef9565b90610f05565b9150610a818883610eed565b92508115610b0d576040516323b872dd60e01b81526001600160a01b038a16906323b872dd90610ab9908d90859087906004016115a2565b602060405180830381600087803b158015610ad357600080fd5b505af1158015610ae7573d6000803e3d6000fd5b505050506040513d601f19601f82011682018060405250810190610b0b91906114ec565b505b6040516323b872dd60e01b81526001600160a01b038a16906323b872dd90610b3d908d90309088906004016115a2565b602060405180830381600087803b158015610b5757600080fd5b505af1158015610b6b573d6000803e3d6000fd5b505050506040513d601f19601f82011682018060405250810190610b8f91906114ec565b50886001600160a01b03167f8b518812f3926a10118435fc7e37a92109ef38717cf7a659621ec6da8b72c4b88b8989898888604051610bd3969594939291906115df565b60405180910390a2509098975050505050505050565b600080856001600160a01b03166370a08231856040518263ffffffff1660e01b8152600401610c18919061158e565b60206040518083038186803b158015610c3057600080fd5b505afa158015610c44573d6000803e3d6000fd5b505050506040513d601f19601f82011682018060405250810190610c689190611524565b6040516323b872dd60e01b81529091506001600160a01b038716906323b872dd90610c9b908890889088906004016115a2565b602060405180830381600087803b158015610cb557600080fd5b505af1158015610cc9573d6000803e3d6000fd5b505050506040513d601f19601f82011682018060405250810190610ced91906114ec565b506040517f70a082310000000000000000000000000000000000000000000000000000000081526000906001600160a01b038816906370a0823190610d3690889060040161158e565b60206040518083038186803b158015610d4e57600080fd5b505afa158015610d62573d6000803e3d6000fd5b505050506040513d601f19601f82011682018060405250810190610d869190611524565b9050610d928183610eed565b979650505050505050565b6000610da98284611b70565b9392505050565b3390565b6000806000610e107f6d6f797b9499434950e53f78e2aed8d1678b505b5c7938799779b2fd57d1e6d28a8a8a8a604051602001610df5959493929190611669565b60405160208183030381529060405280519060200120610f11565b90506000610e548287878080601f016020809104026020016040519081016040528093929190818152602001838380828437600092019190915250610f2c92505050565b919a91995090975050505050505050565b610ee88363a9059cbb60e01b8484604051602401610e849291906115c6565b60408051601f198184030181529190526020810180517bffffffffffffffffffffffffffffffffffffffffffffffffffffffff167fffffffff0000000000000000000000000000000000000000000000000000000090931692909217909152610f6d565b505050565b6000610da98284611bfe565b6000610da98284611bc1565b6000610da98284611b88565b6000610f24610f1e610ffc565b836110bf565b90505b919050565b60008151604114610f4f5760405162461bcd60e51b81526004016102bd90611783565b60208201516040830151606084015160001a6102d4868285856110f2565b6000610fc2826040518060400160405280602081526020017f5361666545524332303a206c6f772d6c6576656c2063616c6c206661696c6564815250856001600160a01b03166111df9092919063ffffffff16565b805190915015610ee85780806020019051810190610fe091906114ec565b610ee85760405162461bcd60e51b81526004016102bd90611ad3565b60007f000000000000000000000000000000000000000000000000000000000000000046141561104d57507f0000000000000000000000000000000000000000000000000000000000000000610600565b6110b87f00000000000000000000000000000000000000000000000000000000000000007f00000000000000000000000000000000000000000000000000000000000000007f00000000000000000000000000000000000000000000000000000000000000006111f6565b9050610600565b600082826040516020016110d4929190611558565b60405160208183030381529060405280519060200120905092915050565b60007f7fffffffffffffffffffffffffffffff5d576e7357a4501ddfe92f46681b20a08211156111345760405162461bcd60e51b81526004016102bd9061184e565b8360ff16601b148061114957508360ff16601c145b6111655760405162461bcd60e51b81526004016102bd90611908565b60006001868686866040516000815260200160405260405161118a94939291906116c4565b6020604051602081039080840390855afa1580156111ac573d6000803e3d6000fd5b5050604051601f1901519150506001600160a01b0381166109315760405162461bcd60e51b81526004016102bd90611715565b60606111ee8484600085611230565b949350505050565b60008383834630604051602001611211959493929190611698565b6040516020818303038152906040528051906020012090509392505050565b6060824710156112525760405162461bcd60e51b81526004016102bd906118ab565b61125b856112e5565b6112775760405162461bcd60e51b81526004016102bd90611a65565b600080866001600160a01b03168587604051611293919061153c565b60006040518083038185875af1925050503d80600081146112d0576040519150601f19603f3d011682016040523d82523d6000602084013e6112d5565b606091505b5091509150610d928282866112eb565b3b151590565b606083156112fa575081610da9565b82511561130a5782518084602001fd5b8160405162461bcd60e51b81526004016102bd91906116e2565b80356001600160a01b0381168114610f2757600080fd5b60006020828403121561134c578081fd5b610da982611324565b60008060408385031215611367578081fd5b61137083611324565b915061137e60208401611324565b90509250929050565b60008060008060008060a0878903121561139f578182fd5b6113a887611324565b95506113b660208801611324565b94506040870135935060608701359250608087013567ffffffffffffffff808211156113e0578384fd5b818901915089601f8301126113f3578384fd5b813581811115611401578485fd5b8a6020828501011115611412578485fd5b6020830194508093505050509295509295509295565b6000806040838503121561143a578182fd5b61144383611324565b946020939093013593505050565b60008060008060808587031215611466578384fd5b61146f85611324565b9350602085013592506040850135915061148b60608601611324565b905092959194509250565b600080600080600060a086880312156114ad578081fd5b6114b686611324565b945060208601359350604086013592506114d260608701611324565b91506114e060808701611324565b90509295509295909350565b6000602082840312156114fd578081fd5b81518015158114610da9578182fd5b60006020828403121561151d578081fd5b5035919050565b600060208284031215611535578081fd5b5051919050565b6000825161154e818460208701611c15565b9190910192915050565b7f190100000000000000000000000000000000000000000000000000000000000081526002810192909252602282015260420190565b6001600160a01b0391909116815260200190565b6001600160a01b039384168152919092166020820152604081019190915260600190565b6001600160a01b03929092168252602082015260400190565b6001600160a01b0396871681526020810195909552928516604085015293166060830152608082019290925260a081019190915260c00190565b901515815260200190565b9182526001600160a01b0316602082015260400190565b9485526001600160a01b03938416602086015291831660408501529091166060830152608082015260a00190565b9485526001600160a01b0393841660208601529190921660408401526060830191909152608082015260a00190565b9485526020850193909352604084019190915260608301526001600160a01b0316608082015260a00190565b93845260ff9290921660208401526040830152606082015260800190565b6000602082528251806020840152611701816040850160208701611c15565b601f01601f19169190910160400192915050565b60208082526018908201527f45434453413a20696e76616c6964207369676e61747572650000000000000000604082015260600190565b60208082526014908201527f4d65737361676520616c72656164792075736564000000000000000000000000604082015260600190565b6020808252601f908201527f45434453413a20696e76616c6964207369676e6174757265206c656e67746800604082015260600190565b60208082526026908201527f4f776e61626c653a206e6577206f776e657220697320746865207a65726f206160408201527f6464726573730000000000000000000000000000000000000000000000000000606082015260800190565b60208082526009908201527f42616420746f6b656e0000000000000000000000000000000000000000000000604082015260600190565b60208082526022908201527f45434453413a20696e76616c6964207369676e6174757265202773272076616c60408201527f7565000000000000000000000000000000000000000000000000000000000000606082015260800190565b60208082526026908201527f416464726573733a20696e73756666696369656e742062616c616e636520666f60408201527f722063616c6c0000000000000000000000000000000000000000000000000000606082015260800190565b60208082526022908201527f45434453413a20696e76616c6964207369676e6174757265202776272076616c60408201527f7565000000000000000000000000000000000000000000000000000000000000606082015260800190565b6020808252600a908201527f426164207369676e657200000000000000000000000000000000000000000000604082015260600190565b6020808252818101527f4f776e61626c653a2063616c6c6572206973206e6f7420746865206f776e6572604082015260600190565b6020808252601a908201527f427269646765506f6f6c3a20496e76616c6964207369676e6572000000000000604082015260600190565b60208082526025908201527f427269646765506f6f6c3a20746172676574416464726573732069732072657160408201527f7569726564000000000000000000000000000000000000000000000000000000606082015260800190565b6020808252601d908201527f416464726573733a2063616c6c20746f206e6f6e2d636f6e7472616374000000604082015260600190565b60208082526014908201527f4e6f7420656e6f756768206c6971756964697479000000000000000000000000604082015260600190565b6020808252602a908201527f5361666545524332303a204552433230206f7065726174696f6e20646964206e60408201527f6f74207375636365656400000000000000000000000000000000000000000000606082015260800190565b60208082526017908201527f416d6f756e74206d75737420626520706f736974697665000000000000000000604082015260600190565b90815260200190565b60008219821115611b8357611b83611c45565b500190565b600082611bbc577f4e487b710000000000000000000000000000000000000000000000000000000081526012600452602481fd5b500490565b6000817fffffffffffffffffffffffffffffffffffffffffffffffffffffffffffffffff0483118215151615611bf957611bf9611c45565b500290565b600082821015611c1057611c10611c45565b500390565b60005b83811015611c30578181015183820152602001611c18565b83811115611c3f576000848401525b50505050565b7f4e487b7100000000000000000000000000000000000000000000000000000000600052601160045260246000fdfea2646970667358221220023e15116a38e96f8f23b8495760910bee13147ba2601194d095b9d4468d539964736f6c63430008000033",
  "immutableReferences": {
    "4302": [
      {
        "length": 32,
        "start": 4137
      }
    ],
    "4304": [
      {
        "length": 32,
        "start": 4096
      }
    ],
    "4306": [
      {
        "length": 32,
        "start": 4211
      }
    ],
    "4308": [
      {
        "length": 32,
        "start": 4244
      }
    ],
    "4310": [
      {
        "length": 32,
        "start": 4178
      }
    ]
  },
  "source": "// SPDX-License-Identifier: MIT\n\npragma solidity >=0.6.0 <=0.8.0;\n\nimport \"@openzeppelin/contracts/utils/cryptography/draft-EIP712.sol\";\nimport \"@openzeppelin/contracts/utils/cryptography/ECDSA.sol\";\nimport \"@openzeppelin/contracts/access/Ownable.sol\";\nimport \"@openzeppelin/contracts/token/ERC20/utils/SafeERC20.sol\";\nimport \"../common/SafeAmount.sol\";\nimport \"../token/TaxDistributor.sol\";\n\ncontract BridgePool is EIP712, Ownable {\n    using SafeMath for uint256;\n    using SafeERC20 for IERC20;\n    event TransferBySignature(bytes32 hash, address signer, address receiver, address token, uint256 amount);\n    event BridgeLiquidityAdded(address actor, address token, uint256 amount);\n    event BridgeLiquidityRemoved(address actor, address token, uint256 amount);\n    event BridgeSwap(address from,\n        address indexed token,\n        uint256 targetNetwork,\n        address targetToken,\n        address targetAddrdess,\n        uint256 amount,\n        uint256 fee);\n\n    string constant NAME = \"FERRUM_TOKEN_BRIDGE_POOL\";\n    string constant VERSION = \"000.002\";\n    address public signer;\n    mapping(bytes32=>bool) public usedHashes;\n    mapping(address=>mapping(address=>uint256)) private liquidities;\n    mapping(address=>uint256) public fees;\n    address public feeDistributor;\n\n    constructor () EIP712(NAME, VERSION) { }\n\n    function setSigner(address _signer) external onlyOwner() {\n        require(_signer != address(0), \"Bad signer\");\n        signer = _signer;\n    }\n\n    function setFee(address token, uint256 fee10000) external onlyOwner() {\n        require(token != address(0), \"Bad token\");\n        fees[token] = fee10000;\n    }\n\n    function setFeeDistributor(address _feeDistributor) external onlyOwner() {\n        feeDistributor = _feeDistributor;\n    }\n\n    function _swap(address from, address token, uint256 amount, uint256 targetNetwork,\n        address targetToken, address targetAddress) internal returns(uint256) {\n        uint256 actualAmount = amount;\n        uint256 fee = 0;\n        address _feeDistributor = feeDistributor;\n        if (_feeDistributor != address(0)) {\n            fee = amount.mul(fees[token]).div(10000);\n            actualAmount = amount.sub(fee);\n            if (fee != 0) {\n                IERC20(token).transferFrom(from, _feeDistributor, fee);\n            }\n        }\n        IERC20(token).transferFrom(from, address(this), actualAmount);\n        emit BridgeSwap(from, token, targetNetwork, targetToken, targetAddress, actualAmount, fee);\n        return actualAmount;\n    }\n\n    function swap(address token, uint256 amount, uint256 targetNetwork, address targetToken) external returns(uint256) {\n        return _swap(msg.sender, token, amount, targetNetwork, targetToken, address(0));\n    }\n\n    function swapToAddress(address token,\n        uint256 amount,\n        uint256 targetNetwork,\n        address targetToken,\n        address targetAddress) external returns(uint256) {\n        require(targetAddress != address(0), \"BridgePool: targetAddress is required\");\n        return _swap(msg.sender, token, amount, targetNetwork, targetToken, targetAddress);\n    }\n\n    function withdrawSigned(\n            address token,\n            address payee,\n            uint256 amount,\n            bytes32 salt,\n            bytes calldata signature) external {\n        (bytes32 digest, address _signer) = _withdrawSignedGetSignature(token, payee, amount, salt, signature);\n        require(!usedHashes[digest], \"Message already used\");\n        require(_signer == signer, \"BridgePool: Invalid signer\");\n        usedHashes[digest] = true;\n        IERC20(token).safeTransfer(payee, amount);\n        emit TransferBySignature(digest, _signer, payee, token, amount);\n    }\n\n    function _withdrawSignedGetSignature(\n            address token,\n            address payee,\n            uint256 amount,\n            bytes32 salt,\n            bytes calldata signature) internal view returns (bytes32, address) {\n        bytes32 digest = _hashTypedDataV4(keccak256(abi.encode(\n          keccak256(\"WithdrawSigned(address token, address payee,uint256 amount,bytes32 salt)\"),\n          token,\n          payee,\n          amount,\n          salt\n        )));\n        address _signer = ECDSA.recover(digest, signature);\n        return (digest, _signer);\n    }\n\n    function withdrawSignedVerify(\n            address token,\n            address payee,\n            uint256 amount,\n            bytes32 salt,\n            bytes calldata signature) external view returns (bytes32, address) {\n            return _withdrawSignedGetSignature(token, payee, amount, salt, signature);\n    }\n\n    function addLiquidity(address token, uint256 amount) public {\n        require(amount != 0, \"Amount must be positive\");\n        require(token != address(0), \"Bad token\");\n        amount = SafeAmount.safeTransferFrom(token, msg.sender, address(this), amount);\n        liquidities[token][msg.sender] = liquidities[token][msg.sender].add(amount);\n        emit BridgeLiquidityAdded(msg.sender, token, amount);\n    }\n\n    function removeLiquidityIfPossible(address token, uint256 amount) public returns (uint256) {\n        require(amount != 0, \"Amount must be positive\");\n        require(token != address(0), \"Bad token\");\n        uint256 liq = liquidities[token][msg.sender];\n        require(liq >= amount, \"Not enough liquidity\");\n        uint256 balance = IERC20(token).balanceOf(address(this));\n        uint256 actualLiq = balance > amount ? amount : balance;\n        liquidities[token][msg.sender] = liquidities[token][msg.sender].sub(actualLiq);\n        if (actualLiq != 0) {\n            IERC20(token).safeTransfer(msg.sender, actualLiq);\n            emit BridgeLiquidityRemoved(msg.sender, token, amount);\n        }\n        return actualLiq;\n    }\n\n    function liquidity(address token, address liquidityAdder) public view returns (uint256) {\n        return liquidities[token][liquidityAdder];\n    }\n}",
  "sourcePath": "/home/naiemk/nk/open-staking/contracts/bridge/BridgePool.sol",
  "compiler": {
    "name": "solc",
    "version": "0.8.0+commit.c7dfd78e.Emscripten.clang"
  },
  "schemaVersion": "3.4.1",
  "updatedAt": "2021-05-22T06:29:00.886Z",
  "devdoc": {
    "kind": "dev",
    "methods": {
      "owner()": {
        "details": "Returns the address of the current owner."
      },
      "renounceOwnership()": {
        "details": "Leaves the contract without owner. It will not be possible to call `onlyOwner` functions anymore. Can only be called by the current owner. NOTE: Renouncing ownership will leave the contract without an owner, thereby removing any functionality that is only available to the owner."
      },
      "transferOwnership(address)": {
        "details": "Transfers ownership of the contract to a new account (`newOwner`). Can only be called by the current owner."
      }
    },
    "version": 1
  },
  "userdoc": {
    "kind": "user",
    "methods": {},
    "version": 1
  }
}