{
  "contractName": "BridgePool",
  "abi": [
    {
      "inputs": [],
      "stateMutability": "nonpayable",
      "type": "constructor"
    },
    {
      "anonymous": false,
      "inputs": [
        {
          "indexed": true,
          "internalType": "address",
          "name": "previousOwner",
          "type": "address"
        },
        {
          "indexed": true,
          "internalType": "address",
          "name": "newOwner",
          "type": "address"
        }
      ],
      "name": "OwnershipTransferred",
      "type": "event"
    },
    {
      "inputs": [],
      "name": "owner",
      "outputs": [
        {
          "internalType": "address",
          "name": "",
          "type": "address"
        }
      ],
      "stateMutability": "view",
      "type": "function"
    },
    {
      "inputs": [],
      "name": "renounceOwnership",
      "outputs": [],
      "stateMutability": "nonpayable",
      "type": "function"
    },
    {
      "inputs": [],
      "name": "signer",
      "outputs": [
        {
          "internalType": "address",
          "name": "",
          "type": "address"
        }
      ],
      "stateMutability": "view",
      "type": "function"
    },
    {
      "inputs": [
        {
          "internalType": "address",
          "name": "newOwner",
          "type": "address"
        }
      ],
      "name": "transferOwnership",
      "outputs": [],
      "stateMutability": "nonpayable",
      "type": "function"
    },
    {
      "inputs": [
        {
          "internalType": "address",
          "name": "_signer",
          "type": "address"
        }
      ],
      "name": "setSigner",
      "outputs": [],
      "stateMutability": "nonpayable",
      "type": "function"
    },
    {
      "inputs": [
        {
          "internalType": "address",
          "name": "token",
          "type": "address"
        },
        {
          "internalType": "address",
          "name": "payee",
          "type": "address"
        },
        {
          "internalType": "uint256",
          "name": "amount",
          "type": "uint256"
        },
        {
          "internalType": "bytes32",
          "name": "salt",
          "type": "bytes32"
        },
        {
          "internalType": "bytes",
          "name": "signature",
          "type": "bytes"
        }
      ],
      "name": "withdrawSigned",
      "outputs": [],
      "stateMutability": "nonpayable",
      "type": "function"
    },
    {
      "inputs": [
        {
          "internalType": "address",
          "name": "token",
          "type": "address"
        },
        {
          "internalType": "uint256",
          "name": "amount",
          "type": "uint256"
        }
      ],
      "name": "addLiquidity",
      "outputs": [],
      "stateMutability": "nonpayable",
      "type": "function"
    },
    {
      "inputs": [
        {
          "internalType": "address",
          "name": "token",
          "type": "address"
        },
        {
          "internalType": "uint256",
          "name": "amount",
          "type": "uint256"
        }
      ],
      "name": "removeLiquidityIfPossible",
      "outputs": [
        {
          "internalType": "uint256",
          "name": "",
          "type": "uint256"
        }
      ],
      "stateMutability": "nonpayable",
      "type": "function"
    },
    {
      "inputs": [
        {
          "internalType": "address",
          "name": "token",
          "type": "address"
        },
        {
          "internalType": "address",
          "name": "liquidityAdder",
          "type": "address"
        }
      ],
      "name": "liquidity",
      "outputs": [
        {
          "internalType": "uint256",
          "name": "",
          "type": "uint256"
        }
      ],
      "stateMutability": "nonpayable",
      "type": "function"
    }
  ],
  "bytecode": "0x61012060405234801561001157600080fd5b50604080518082018252601881527f46455252554d5f544f4b454e5f4252494447455f504f4f4c00000000000000006020808301918252835180850190945260078452663030302e30303160c81b908401528151902060c08190527f216997d4e5731c53bb28f92073a02b69ff283b713a79ae155248b0198261acf960e08190524660a0529192917f8b73c3c69bb8fe3d512ecc4cf759cc79239f7b179b0ffacaa9a75d522b39400f6100c581848461012b565b6080526101005250600092506100dc915050610165565b600080546001600160a01b0319166001600160a01b0383169081178255604051929350917f8be0079c531659141344cd1fd0a4f28419497f9722a3daafe3b4186f6b6457e0908290a350610195565b60008383834630604051602001610146959493929190610169565b6040516020818303038152906040528051906020012090509392505050565b3390565b9485526020850193909352604084019190915260608301526001600160a01b0316608082015260a00190565b60805160a05160c05160e051610100516115436101d96000396000610a1001526000610a5201526000610a31015260006109be015260006109e701526115436000f3fe608060405234801561001057600080fd5b50600436106100a35760003560e01c80638d6e929111610076578063b22172811161005b578063b221728114610111578063e91b79bc14610131578063f2fde38b14610144576100a3565b80638d6e9291146100f65780638da5cb5b14610109576100a3565b8063238ac933146100a857806356688700146100c65780636c19e783146100db578063715018a6146100ee575b600080fd5b6100b0610157565b6040516100bd9190610f5f565b60405180910390f35b6100d96100d4366004610eac565b610166565b005b6100d96100e9366004610d88565b61021a565b6100d96102b0565b6100d9610104366004610dd4565b610346565b6100b0610428565b61012461011f366004610da2565b610438565b6040516100bd9190611447565b61012461013f366004610eac565b610463565b6100d9610152366004610d88565b61060f565b6001546001600160a01b031681565b8061018c5760405162461bcd60e51b815260040161018390611410565b60405180910390fd5b6001600160a01b0382166101b25760405162461bcd60e51b815260040161018390611154565b6101be823330846106dc565b6001600160a01b03831660009081526003602090815260408083203384529091529020549091506101ef90826108a9565b6001600160a01b03909216600090815260036020908152604080832033845290915290209190915550565b6102226108bc565b6001600160a01b0316610233610428565b6001600160a01b0316146102595760405162461bcd60e51b815260040161018390611310565b6001546001600160a01b03166102815760405162461bcd60e51b8152600401610183906112a2565b6001805473ffffffffffffffffffffffffffffffffffffffff19166001600160a01b0392909216919091179055565b6102b86108bc565b6001600160a01b03166102c9610428565b6001600160a01b0316146102ef5760405162461bcd60e51b815260040161018390611310565b600080546040516001600160a01b03909116907f8be0079c531659141344cd1fd0a4f28419497f9722a3daafe3b4186f6b6457e0908390a36000805473ffffffffffffffffffffffffffffffffffffffff19169055565b600061039d7f6d6f797b9499434950e53f78e2aed8d1678b505b5c7938799779b2fd57d1e6d28787876040516020016103829493929190610fb0565b604051602081830303815290604052805190602001206108c0565b60008181526002602052604090205490915060ff16156103cf5760405162461bcd60e51b815260040161018390611089565b60006103db82846108db565b6001549091506001600160a01b0380831691161461040b5760405162461bcd60e51b8152600401610183906112d9565b61041f6001600160a01b0388168787610926565b50505050505050565b6000546001600160a01b03165b90565b6001600160a01b03918216600090815260036020908152604080832093909416825291909152205490565b6000816104825760405162461bcd60e51b815260040161018390611410565b6001600160a01b0383166104a85760405162461bcd60e51b815260040161018390611154565b6001600160a01b0383166000908152600360209081526040808320338452909152902054828110156104ec5760405162461bcd60e51b81526004016101839061137c565b6040517f70a082310000000000000000000000000000000000000000000000000000000081526000906001600160a01b038616906370a0823190610534903090600401610f5f565b60206040518083038186803b15801561054c57600080fd5b505afa158015610560573d6000803e3d6000fd5b505050506040513d601f19601f820116820180604052508101906105849190610ef5565b905060008282116105955781610597565b825b6001600160a01b03871660009081526003602090815260408083203384529091529020549091506105c890826109ae565b6001600160a01b03871660009081526003602090815260408083203384529091529020558015610606576106066001600160a01b0387163383610926565b95945050505050565b6106176108bc565b6001600160a01b0316610628610428565b6001600160a01b03161461064e5760405162461bcd60e51b815260040161018390611310565b6001600160a01b0381166106745760405162461bcd60e51b8152600401610183906110f7565b600080546040516001600160a01b03808516939216917f8be0079c531659141344cd1fd0a4f28419497f9722a3daafe3b4186f6b6457e091a36000805473ffffffffffffffffffffffffffffffffffffffff19166001600160a01b0392909216919091179055565b600080856001600160a01b03166370a08231856040518263ffffffff1660e01b815260040161070b9190610f5f565b60206040518083038186803b15801561072357600080fd5b505afa158015610737573d6000803e3d6000fd5b505050506040513d601f19601f8201168201806040525081019061075b9190610ef5565b6040517f23b872dd0000000000000000000000000000000000000000000000000000000081529091506001600160a01b038716906323b872dd906107a790889088908890600401610f73565b602060405180830381600087803b1580156107c157600080fd5b505af11580156107d5573d6000803e3d6000fd5b505050506040513d601f19601f820116820180604052508101906107f99190610ed5565b506040517f70a082310000000000000000000000000000000000000000000000000000000081526000906001600160a01b038816906370a0823190610842908890600401610f5f565b60206040518083038186803b15801561085a57600080fd5b505afa15801561086e573d6000803e3d6000fd5b505050506040513d601f19601f820116820180604052508101906108929190610ef5565b905061089e81836109ae565b979650505050505050565b60006108b58284611450565b9392505050565b3390565b60006108d36108cd6109ba565b83610a7d565b90505b919050565b600081516041146108fe5760405162461bcd60e51b8152600401610183906110c0565b60208201516040830151606084015160001a61091c86828585610ab0565b9695505050505050565b6109a98363a9059cbb60e01b8484604051602401610945929190610f97565b60408051601f198184030181529190526020810180517bffffffffffffffffffffffffffffffffffffffffffffffffffffffff167fffffffff0000000000000000000000000000000000000000000000000000000090931692909217909152610b9d565b505050565b60006108b58284611468565b60007f0000000000000000000000000000000000000000000000000000000000000000461415610a0b57507f0000000000000000000000000000000000000000000000000000000000000000610435565b610a767f00000000000000000000000000000000000000000000000000000000000000007f00000000000000000000000000000000000000000000000000000000000000007f0000000000000000000000000000000000000000000000000000000000000000610c2c565b9050610435565b60008282604051602001610a92929190610f29565b60405160208183030381529060405280519060200120905092915050565b60007f7fffffffffffffffffffffffffffffff5d576e7357a4501ddfe92f46681b20a0821115610af25760405162461bcd60e51b81526004016101839061118b565b8360ff16601b1480610b0757508360ff16601c145b610b235760405162461bcd60e51b815260040161018390611245565b600060018686868660405160008152602001604052604051610b489493929190611001565b6020604051602081039080840390855afa158015610b6a573d6000803e3d6000fd5b5050604051601f1901519150506001600160a01b0381166106065760405162461bcd60e51b815260040161018390611052565b6000610bf2826040518060400160405280602081526020017f5361666545524332303a206c6f772d6c6576656c2063616c6c206661696c6564815250856001600160a01b0316610c669092919063ffffffff16565b8051909150156109a95780806020019051810190610c109190610ed5565b6109a95760405162461bcd60e51b8152600401610183906113b3565b60008383834630604051602001610c47959493929190610fd5565b6040516020818303038152906040528051906020012090509392505050565b6060610c758484600085610c7d565b949350505050565b606082471015610c9f5760405162461bcd60e51b8152600401610183906111e8565b610ca885610d32565b610cc45760405162461bcd60e51b815260040161018390611345565b600080866001600160a01b03168587604051610ce09190610f0d565b60006040518083038185875af1925050503d8060008114610d1d576040519150601f19603f3d011682016040523d82523d6000602084013e610d22565b606091505b509150915061089e828286610d38565b3b151590565b60608315610d475750816108b5565b825115610d575782518084602001fd5b8160405162461bcd60e51b8152600401610183919061101f565b80356001600160a01b03811681146108d657600080fd5b600060208284031215610d99578081fd5b6108b582610d71565b60008060408385031215610db4578081fd5b610dbd83610d71565b9150610dcb60208401610d71565b90509250929050565b600080600080600060a08688031215610deb578081fd5b610df486610d71565b94506020610e03818801610d71565b94506040870135935060608701359250608087013567ffffffffffffffff80821115610e2d578384fd5b818901915089601f830112610e40578384fd5b813581811115610e5257610e526114de565b60405184601f19601f8401168201018181108482111715610e7557610e756114de565b60405281815283820185018c1015610e8b578586fd5b81858501868301378585838301015280955050505050509295509295909350565b60008060408385031215610ebe578182fd5b610ec783610d71565b946020939093013593505050565b600060208284031215610ee6578081fd5b815180151581146108b5578182fd5b600060208284031215610f06578081fd5b5051919050565b60008251610f1f81846020870161147f565b9190910192915050565b7f190100000000000000000000000000000000000000000000000000000000000081526002810192909252602282015260420190565b6001600160a01b0391909116815260200190565b6001600160a01b039384168152919092166020820152604081019190915260600190565b6001600160a01b03929092168252602082015260400190565b9384526001600160a01b03928316602085015291166040830152606082015260800190565b9485526020850193909352604084019190915260608301526001600160a01b0316608082015260a00190565b93845260ff9290921660208401526040830152606082015260800190565b600060208252825180602084015261103e81604085016020870161147f565b601f01601f19169190910160400192915050565b60208082526018908201527f45434453413a20696e76616c6964207369676e61747572650000000000000000604082015260600190565b60208082526014908201527f4d65737361676520616c72656164792075736564000000000000000000000000604082015260600190565b6020808252601f908201527f45434453413a20696e76616c6964207369676e6174757265206c656e67746800604082015260600190565b60208082526026908201527f4f776e61626c653a206e6577206f776e657220697320746865207a65726f206160408201527f6464726573730000000000000000000000000000000000000000000000000000606082015260800190565b60208082526009908201527f42616420746f6b656e0000000000000000000000000000000000000000000000604082015260600190565b60208082526022908201527f45434453413a20696e76616c6964207369676e6174757265202773272076616c60408201527f7565000000000000000000000000000000000000000000000000000000000000606082015260800190565b60208082526026908201527f416464726573733a20696e73756666696369656e742062616c616e636520666f60408201527f722063616c6c0000000000000000000000000000000000000000000000000000606082015260800190565b60208082526022908201527f45434453413a20696e76616c6964207369676e6174757265202776272076616c60408201527f7565000000000000000000000000000000000000000000000000000000000000606082015260800190565b6020808252600a908201527f426164207369676e657200000000000000000000000000000000000000000000604082015260600190565b6020808252600e908201527f496e76616c6964207369676e6572000000000000000000000000000000000000604082015260600190565b6020808252818101527f4f776e61626c653a2063616c6c6572206973206e6f7420746865206f776e6572604082015260600190565b6020808252601d908201527f416464726573733a2063616c6c20746f206e6f6e2d636f6e7472616374000000604082015260600190565b60208082526014908201527f4e6f7420656e6f756768206c6971756964697479000000000000000000000000604082015260600190565b6020808252602a908201527f5361666545524332303a204552433230206f7065726174696f6e20646964206e60408201527f6f74207375636365656400000000000000000000000000000000000000000000606082015260800190565b60208082526017908201527f416d6f756e74206d75737420626520706f736974697665000000000000000000604082015260600190565b90815260200190565b60008219821115611463576114636114af565b500190565b60008282101561147a5761147a6114af565b500390565b60005b8381101561149a578181015183820152602001611482565b838111156114a9576000848401525b50505050565b7f4e487b7100000000000000000000000000000000000000000000000000000000600052601160045260246000fd5b7f4e487b7100000000000000000000000000000000000000000000000000000000600052604160045260246000fdfea26469706673582212208467082af276d170b41f7a0ee505586da42ae951e9309877a05f66e089aacc2064736f6c63430008000033",
  "immutableReferences": {
    "11890": [
      {
        "length": 32,
        "start": 2535
      }
    ],
    "11892": [
      {
        "length": 32,
        "start": 2494
      }
    ],
    "11894": [
      {
        "length": 32,
        "start": 2609
      }
    ],
    "11896": [
      {
        "length": 32,
        "start": 2642
      }
    ],
    "11898": [
      {
        "length": 32,
        "start": 2576
      }
    ]
  },
  "source": "// SPDX-License-Identifier: MIT\n\npragma solidity >=0.6.0 <=0.8.0;\n\nimport \"@openzeppelin/contracts/utils/cryptography/draft-EIP712.sol\";\nimport \"@openzeppelin/contracts/utils/cryptography/ECDSA.sol\";\nimport \"@openzeppelin/contracts/access/Ownable.sol\";\nimport \"@openzeppelin/contracts/token/ERC20/utils/SafeERC20.sol\";\nimport \"../common/SafeAmount.sol\";\n\ncontract BridgePool is EIP712, Ownable {\n    using SafeMath for uint256;\n    using SafeERC20 for IERC20;\n    string constant NAME = \"FERRUM_TOKEN_BRIDGE_POOL\";\n    string constant VERSION = \"000.001\";\n    address public signer;\n    mapping(bytes32=>bool) private usedHashes;\n    mapping(address=>mapping(address=>uint256)) private liquidities;\n\n    constructor () EIP712(NAME, VERSION) { }\n\n    function setSigner(address _signer) external onlyOwner() {\n        require(signer != address(0), \"Bad signer\");\n        signer = _signer;\n    }\n\n    function withdrawSigned(\n            address token,\n            address payee,\n            uint256 amount,\n            bytes32 salt,\n            bytes memory signature) public {\n        bytes32 digest = _hashTypedDataV4(keccak256(abi.encode(\n          keccak256(\"WithdrawSigned(address token, address payee,uint256 amount,bytes32 salt)\"),\n          token,\n          payee,\n          amount\n        )));\n        require(!usedHashes[digest], \"Message already used\");\n        address _signer = ECDSA.recover(digest, signature);\n        require(_signer == signer, \"Invalid signer\");\n        IERC20(token).safeTransfer(payee, amount);\n    }\n\n    function addLiquidity(address token, uint256 amount) public {\n        require(amount != 0, \"Amount must be positive\");\n        require(token != address(0), \"Bad token\");\n        amount = SafeAmount.safeTransferFrom(token, msg.sender, address(this), amount);\n        liquidities[token][msg.sender] = liquidities[token][msg.sender].add(amount);\n    }\n\n    function removeLiquidityIfPossible(address token, uint256 amount) public returns (uint256) {\n        require(amount != 0, \"Amount must be positive\");\n        require(token != address(0), \"Bad token\");\n        uint256 liq = liquidities[token][msg.sender];\n        require(liq >= amount, \"Not enough liquidity\");\n        uint256 balance = IERC20(token).balanceOf(address(this));\n        uint256 actualLiq = balance > liq ? liq : balance;\n        liquidities[token][msg.sender] = liquidities[token][msg.sender].sub(actualLiq);\n        if (actualLiq != 0) {\n            IERC20(token).safeTransfer(msg.sender, actualLiq);\n        }\n        return actualLiq;\n    }\n\n    function liquidity(address token, address liquidityAdder) public returns (uint256) {\n        return liquidities[token][liquidityAdder];\n    }\n}",
  "sourcePath": "/home/naiemk/nk/open-staking/contracts/bridge/BridgePool.sol",
  "compiler": {
    "name": "solc",
    "version": "0.8.0+commit.c7dfd78e.Emscripten.clang"
  },
  "schemaVersion": "3.3.4",
  "updatedAt": "2021-03-26T22:45:28.489Z",
  "devdoc": {
    "kind": "dev",
    "methods": {
      "owner()": {
        "details": "Returns the address of the current owner."
      },
      "renounceOwnership()": {
        "details": "Leaves the contract without owner. It will not be possible to call `onlyOwner` functions anymore. Can only be called by the current owner. NOTE: Renouncing ownership will leave the contract without an owner, thereby removing any functionality that is only available to the owner."
      },
      "transferOwnership(address)": {
        "details": "Transfers ownership of the contract to a new account (`newOwner`). Can only be called by the current owner."
      }
    },
    "version": 1
  },
  "userdoc": {
    "kind": "user",
    "methods": {},
    "version": 1
  }
}